:020000040800F2
:10000000B007002001010008CF140008350F0008D8
:10001000CD1400081B0200089F1700080000000014
:10002000000000000000000000000000C1150008F2
:100030001D02000800000000D1140008C3150008CC
:100040001B0100081B0100081B0100081B01000820
:100050001B0100081B0100081B0100081B01000810
:100060001B0100081B0100081B0100081B01000800
:100070001B0100081B0100081B0100081B010008F0
:100080001B0100081B0100081B0100081B010008E0
:100090001B0100081B0100081B0100081B010008D0
:1000A0001B0100081B0100081B0100081B010008C0
:1000B0001B0100081B0100081B0100081B010008B0
:1000C0001B0100081B0100081B0100081B010008A0
:1000D0001B0100081B0100081B0100081B01000890
:1000E0001B0100081B0100081B010008DFF80CD0F1
:1000F00000F072F800480047E51C0008B007002037
:100100000648804706480047FEE7FEE7FEE7FEE7B1
:10011000FEE7FEE7FEE7FEE7FEE7FEE7251600083E
:10012000ED000008202A04DB203A21FA02F0002129
:10013000704721FA02F3D040C2F1200291400843F7
:1001400019467047D2B201E000F8012B491EFBD2DC
:1001500070470022F6E710B513460A4604461946D2
:10016000FFF7F0FF204610BD421C10F8011B0029CC
:10017000FBD1801A70472DE9F05F054600209246BA
:100180009B4688460646814640241BE02846414659
:1001900047462246FFF7C6FF53465A46C01A9141CA
:1001A00010D311461846224600F028F82D1A67EBA6
:1001B00001084F4622460120002100F01FF817EBEE
:1001C00000094E41201EA4F10104DFDC48463146FF
:1001D0002A464346BDE8F09F064C074D06E0E0681E
:1001E00040F0010394E8070098471034AC42F6D37E
:1001F000FFF780FF7822000898220008202A04DBFD
:10020000203A00FA02F1002070479140C2F1200329
:1002100020FA03F3194390407047FEE7704772B627
:10022000FEE7000070B5044600F00CF90546601CBE
:1002300002D004480078044400F004F9401BA042B6
:10024000FAD370BD080000202DE9F84FDFF8B8910F
:100250000024A9F1040B23460F2709F1040AABF18E
:10026000040EC9E00125A5402A40AA427DD1674E6F
:10027000D1F804C0ACEB0608B44532D014DCBCF1B4
:10028000030F3AD009DCBCF1000F2AD0BCF1010FFA
:100290001CD0BCF1020F31D11DE0BCF1110F17D001
:1002A000BCF1120F2AD119E0B8F5881F19D006DC6D
:1002B000B8F5803F15D0B8F5801F1FD111E0B8F513
:1002C000001F0ED0B8F5041F18D10AE0CB6815E066
:1002D000CB681B1D12E0CB6808330FE0CB680C33F2
:1002E0000CE08B682BB1012B4FF0080303D0456164
:1002F00004E0042302E0056100E00023FF2A01D8A6
:10030000064601E000F104064FEA840501D9A5F193
:100310002005D6F8008007FA05FC28EA0C0803FA45
:1003200005F548EA0508C6F800804D68ED0062D57D
:10033000374DAE6946F00106AE61AD6924F00306A3
:1003400005F001050095334D06EB050CDCF808506F
:10035000A607360F07FA06F825EA0805DFF8B88081
:10036000404503D14FF0000817E044E0DFF8AC80CF
:10037000404502D14FF001080FE0DFF8A48040456E
:1003800002D14FF0020808E0DFF89880404502D122
:100390004FF0030801E04FF0040808FA06F848EAB5
:1003A0000508CCF808804D68D9F80060ED024D468C
:1003B00001D5164300E096432E604D68DAF80060E0
:1003C000AD02554601D5164300E096432E604D68B8
:1003D000DBF80060AD035D4601D5164300E09643AF
:1003E0002E604D68DEF80060ED03754601D51643BA
:1003F00000E096432E60641C0D682A46E5407FF4B9
:1004000031AFBDE8F88F0000080401400000111072
:10041000001002400000014000080140000C0140B3
:100420000010014000140140C26821EA02030A40A2
:1004300043EA0241016170470AB101617047090452
:10044000FBE70000014880687047000008000020BA
:1004500002488168027811448160704708000020DA
:10046000074810B5016841F010010160032000F059
:1004700067F80F2000F006F800F024F8002010BD07
:100480000020024070B50D4D04464FF47A71287873
:10049000B1FBF0F00A490968B1FBF0F000F07CFC18
:1004A00048B9102C07D200222146501E00F028F82F
:1004B00000206C6070BD012070BD000008000020AD
:1004C000140000200C4808B5816941F001018161E8
:1004D000816901F001010091C16941F08051C16160
:1004E000C06900F0805000900448416821F0E0614C
:1004F00041F00071416008BD001002400000014061
:10050000F0B40E4B1B680C46C3F30223C3F107057E
:10051000042D00D90425191D072901D2002300E06C
:10052000DB1E012606FA05F1491E214099409E4036
:10053000761E16403143F0BC01F046B90CED00E0E8
:10054000064900F0070208684FF6FF03184040EA2A
:100550000220034A10430860704700000CED00E0E1
:100560000000FA052DE9F0470F46050061D0434E23
:10057000306800F00700B84209D2306820F0070068
:1005800038433060306800F00700B84251D1286825
:100590003B4C810712D5400703D5606840F4E0600A
:1005A00060602878000703D5606840F460506060A0
:1005B0006068A96820F0F000084360602878C007F0
:1005C00028D06868012810D02168022810D0890737
:1005D00000292EDA616821F0030101436160FFF711
:1005E00031FF804641F288390DE021688903EFE749
:1005F0008901EDE7FFF726FFA0EB0801494502D985
:100600000320BDE8F0876068696800F00C00B0EB7B
:10061000810FEFD1306800F00700B8420BD9306885
:1006200020F0070038433060306800F00700B8421F
:1006300001D00120E5E72878400705D56068E96822
:1006400020F4E060084360602878000706D5606801
:10065000296920F4605040EAC100606000F038F879
:100660006168084AC1F30311515CC840064908603B
:1006700006480068FFF706FF0020C2E7002002409E
:100680000010024060220008140000200C0000202E
:100690000448054900684968044AC1F30221515CD5
:1006A000C84070471400002000100240702200086B
:1006B0000448054900684968044AC1F3C221515CF5
:1006C000C84070471400002000100240702200084B
:1006D0000E4A51680E4801F00C03042B11D0082B70
:1006E0000FD10C48C1F38343C903C05C0AD55168DC
:1006F000084AC1F34041921E515C054A5043B0FB89
:10070000F1F0704704494843704700000010024070
:1007100000127A005022000800093D002DE9F84F30
:10072000040070D02078C04DC00749D06868C0F37D
:100730008100012807D06868C0F38100022809D130
:100740006868C00306D52868800339D5606800282A
:10075000E7D035E06068B0F5803F0BD010B1B0F560
:10076000A02F11D0286820F480302860286820F459
:10077000802002E0286840F480302860606890B1F2
:10078000FFF760FE06460AE0286840F480202860F3
:10079000F0E700BFFFF756FE801B642873D8286877
:1007A0008003F7D50CE0FFF74DFE064605E000BFDD
:1007B000FFF748FE801B6428F0D828688003F7D430
:1007C00020789A4E80074FF001094FF0000839D584
:1007D000686810F00C0F07D06868C0F38100022829
:1007E00009D16868C00306D42868800714D5206939
:1007F000012808D110E02069B0B1C6F80090FFF7D9
:1008000021FE074605E00AE1FFF71CFEC01B022897
:10081000C4D828688007F7D52868616920F0F800F7
:1008200040EAC10028600DE0C6F80080FFF70AFE2C
:10083000074604E0FFF706FEC01B022823D82868FD
:100840008007F7D4207800072CD57948A169D9B161
:10085000C0F80090FFF7F6FD074604E0FFF7F2FD51
:10086000C01B02280FD8686A8007F7D571484FF47B
:10087000FA510068B0FBF1F0009000BF0098411EF3
:100880000091FAD20EE080E0C0F80080FFF7DAFDB8
:10089000074604E0FFF7D6FDC01B022875D8686A3A
:1008A0008007F7D42078400760D5E8690027C000AA
:1008B00008D4E86940F08050E861E869012700F059
:1008C000805000905C480168C90513D401688346D4
:1008D00041F480710160FFF7B5FD824606E000BF7C
:1008E000FFF7B0FDA0EB0A0064284ED8DBF800004B
:1008F000C005F5D5E06801280AD008B1052813D055
:10090000286A20F001002862286A20F0040002E032
:10091000286A40F001002862E06841F2883B98B103
:10092000FFF790FD82460BE0286A40F00400286241
:10093000EEE700BFFFF786FDA0EB0A0159455AD844
:10094000286A8007F6D50CE0FFF77CFD824605E0BB
:10095000FFF778FDA0EB0A0159454CD8286A8007BB
:10096000F6D41FB1E86920F08050E861E06988B3EF
:100970006968C1F38101022944D00228C6F8608069
:1009800004D0FFF75FFD044638E034E0FFF75AFD7E
:10099000074604E0FFF756FDC01B02282BD8286845
:1009A0008001F7D4206AB0F5803F05D16868A1685E
:1009B00020F4003008436860D4E9080108436968FE
:1009C00021F4741108436860C6F86090FFF73AFD9F
:1009D000044606E025E000BFFFF734FD001B0228B7
:1009E00009D828688001F7D51BE000BFFFF72AFD72
:1009F000001B022802D90320BDE8F88F2868800177
:100A0000F4D40EE00128F7D06868226A00F480313F
:100A1000914204D1616A00F47010884201D0012033
:100A2000EAE70020E8E70000001002400000424230
:100A300080044242140000200070004070B50400A1
:100A400009D0606A002540B125616561A56294F80E
:100A5000510040B10CE0012070BD6068B0F5827FAC
:100A6000F4D0E561F2E784F85050204600F040F8F9
:100A7000022084F851002068016821F040010160E3
:100A8000A088218900F4827001F404410843A189FF
:100A900001F400610843217C01F002010843217D3B
:100AA00001F001010843218B01F400710843217F0B
:100AB00001F03801084394F8201001F08001084348
:100AC000218D01F40051084321680860A0690421C8
:100AD00001EA1040216848602068C16921F4006182
:100AE000C1616565012084F85100002070BD0000DF
:100AF00030B585B000240094019402940394254DF0
:100B00000368254802210322AB421AD1836943F4CA
:100B100080538361836903F480530493836943F0B2
:100B20000403836180691D4D00F004000490A0203F
:100B3000CDE90001039269462846FFF785FB402076
:100B40001EE0174DAB4222D1C36943F48043C36119
:100B5000C36903F480430493836943F0080383610A
:100B60008069104D00F0080004904FF42040CDE95A
:100B70000001039269462846FFF766FB4FF4804068
:100B8000CDE90004694628460294FFF75DFB05B0F5
:100B900030BD00000030014000100240000801405C
:100BA00000380040000C01402DE9FF4F81B01D4688
:100BB000934604464FF001090E9EFFF743FC07469B
:100BC00094F851006168012806D0B1F5827F3CD1CC
:100BD000A168C9BB042838D10298002871D0BBF1A4
:100BE000000FFBD0002DF9D094F8500001282CD034
:100BF0004FF0010A84F850A094F85100042802D064
:100C0000052084F851004FF00008C4F85480C4F85F
:100C100038B0E587A58702992163E586A586C4F8E3
:100C20004080C4F8448020680168490603D4016804
:100C300041F040010160E068B0F5006F606808D0E5
:100C4000F0B3012D49D081E0FFE7022005B0BDE8F7
:100C5000F08F08B1012D39D1206B21680088C86060
:100C6000206B801C2063E08E401EE0862EE0206812
:100C7000816889070FD5E18E69B1B9F1010F0AD1F9
:100C8000216B0988C160206B801C2063E08E401EB0
:100C9000E0864FF0000920688168C9070CD0E18F19
:100CA00051B1C068A16B0880A06B801CA063E08F6D
:100CB000401EE0874FF00109FFF7C4FBC01B01E0B5
:100CC0000BE067E0B04201D3701C50D1E08E0028E9
:100CD000CDD1E08F0028CAD13EE0206B216800789A
:100CE0000873206B401C2063E08E401EE0862DE0E0
:100CF0002068816889070FD5E18E69B1B9F1010FCC
:100D00000AD1216B09780173206B401C2063E08EAF
:100D1000401EE0864FF0000920688168C9070CD0AA
:100D2000E18F51B1C068A16B0870A06B401CA0633B
:100D3000E08F401EE0874FF00109FFF783FBC01BE7
:100D4000B04202D3701C01D011E086B1E08E0028C1
:100D5000CED1E08F0028CBD13A463146204600F074
:100D6000B8FB50B12020606584F8508012E084F810
:100D700051A084F85080032068E7A06818B9206863
:100D8000C1688068009084F851A084F85080606D3C
:100D90000028F1D0012059E710B5401EB0F1807F46
:100DA00001D3012010BD4FF0E02460610F216017D6
:100DB00000F00AFD0020A06107202061002010BD86
:100DC00070B5040004D094F84100002510B106E08D
:100DD000012070BD84F84050204600F023F8242004
:100DE00084F841002068C16821F40051C1602046A8
:100DF00000F040FC2068016921F490410161206805
:100E0000416921F02A0141612068C16841F4005123
:100E1000C1606564202084F8410084F84200656365
:100E2000002070BD30B585B0002400940194029478
:100E3000039400681449884224D11448816941F41C
:100E400080418161816901F480410491816941F0AF
:100E50000401816180690E4D00F0040004904FF49C
:100E600000700090022001900320039069462846FC
:100E7000FFF7EAF92815CDE90004694628460294EF
:100E8000FFF7E2F905B030BD003801400010024024
:100E9000000801402DE9F843044690F841009846C7
:100EA00016460D46202802D00220BDE8F88385B101
:100EB0007EB100206064212084F84100FFF7C2FA6F
:100EC000A6848146E684A0682027B0F5805F02D022
:100ED00003E00120E9E7206910B12E4600250EE06D
:100EE00000260CE08021204600F020FCA8B9C6B105
:100EF00016F8010B21684860E08C401EE084E08C0D
:100F00004B464FF00002CDF800800028EAD14FF0A8
:100F10004001204600F00AFC40B184F841700320F3
:100F2000C3E735F8020BC0F30800E3E784F841702B
:100F30000020BAE7FEE700000C480B4902220160DE
:100F40004FF48271416000218160C0E903120122E7
:100F50004261520282613022C0E90721416281620E
:100F60000A21C162FFF76ABD003001402000002065
:100F70002DE9FC41FFF7E0FF1349012000F028F8BC
:100F8000114E124F00240C3EB7F10305CDE9007657
:100F90006B782A780C49204600F03BF8641C14F06A
:100FA000FF04F3D00849012000F031F80649012080
:100FB00000F010F8012000F0EDFFBDE8FC4102490F
:100FC000012000F040B80000840000200300002051
:100FD00000F0CEB8F0B500220C2604240625022726
:100FE0004FF0030C0EE000BFC2EBC20301EB431352
:100FF000521C03F8D66FD2B25C709D70DC701F710A
:1010000083F805C08242EFD3F0BD00F0E7B800F0EE
:101010002BB92DE9F0419846DDE906450E46074615
:1010200000F0ABF942463146384600F05EF9224600
:101030003146384600F08AF92A4631463846BDE83E
:10104000F04100F05FB900F0A5B90000F0B5052946
:1010500016D2DFE801F0032A4B6B160000210DE0E9
:10106000C1EBC10302EB4313491C33F8BA5F13F819
:10107000AC4C25441D805D882C445C808142EFDBB4
:10108000F0BD00210EE000BFC1EBC10302EB431332
:10109000491C33F8BA5F13F89D4C25441D805D88C8
:1010A0002C445C808142EFDBF0BD00231BE000217B
:1010B00014E000BFC3EBC30402EB44146518B4F89A
:1010C000BA6015F8427F3E44A4F8BA6004EB4104CC
:1010D0002D7834F8BE6F491C3544258092F8D940EC
:1010E0008C42E7DC5B1C8342E1DBF0BD00231AE0AD
:1010F000002113E0C3EBC30402EB44146518B4F8F9
:10110000BA6015F85A7F3E44A4F8BA6004EB410473
:101110002D7834F8CA6F491C3544258092F8DA409E
:101120008C42E7DC5B1C8342E2DBF0BD00231BE06A
:10113000002113E0C3EBC30402EB44146518B4F8B8
:10114000BA6015F86B7F3E44A4F8BA6004EB410422
:101150002D7834F8D26F491C3544258092F8DB4055
:10116000641E8C42E6DC5B1C8342E1DBF0BD0000C8
:101170002DE9F04F8B4687B0174906464FF000091E
:10118000D1E90001CDF80890CDF80C90CDF8109081
:101190004FF0010A4D464C4605AF0DF10808CDE968
:1011A000050114E0C4EBC40200200BEB42110A1845
:1011B0000D54401CD5730628F9DBCDE900784B4669
:1011C00052465946204600F078F8641CE4B2B44216
:1011D000E8D307B0BDE8F08F482000082DE9F047BC
:1011E0000646C2B01FA08846006840906A4640A9E3
:1011F000304600F029FE82460024E94626E000BF82
:1012000098F8B900E0B1301B401EC0B2C0EBC0007E
:1012100008EB40150021484601EBC402835C6A18C4
:10122000491C93710829F7DB00EBC40739460620F7
:1012300000F0F0FDF98849BA884203D0012002E0AD
:101240002046E3E70020641CA873E4B2B442D7D37D
:10125000424600213046FFF7F9FE42B05046BDE855
:10126000F08700000002000070B500231D4621E059
:10127000C3EBC30201EB42125FF00004A2F8BA50C4
:10128000A2F8BC5002EB4406641CA6F8BE50062C23
:10129000F8DB002402EB4406641CA6F8CA50042CB8
:1012A000F8DB002402EB4406641CA6F8D250022CA2
:1012B000F8DB5B1C8342DBDB70BDF0B50D46DDE97E
:1012C0000547064600F059F81A462946304600F010
:1012D0000CF822462946304600F038F83A462946AE
:1012E0003046BDE8F04000F00DB8C0EBC00001EBA7
:1012F0004011087812B140F0010001E000F0FE005A
:101300000870704730B50023C0EBC000012401EB2A
:101310004010D15C0029017904FA03F501D029437A
:1013200000E0A9435B1C0171082BF2DB002153187C
:101330001B7A002B437904FA01F501D02B4300E01E
:10134000AB43491C43710429F1DB30BD30B50023A8
:10135000C0EBC000012401EB4010D15C03F1030598
:101360000029017804FA05F501D0294300E0A943DA
:101370005B1C0170052BF0DB30BDC0EBC00001EB46
:101380004011087812B140F0040001E000F0FB00C9
:1013900008707047F0B514A2C1B0126800244092E2
:1013A00022466E4616E000BF91F8B930012B19D0E5
:1013B000831A5B1EDDB2C5EBC505002301EB4515A5
:1013C000EF5C3755641C5B1CDBB2E4B2062BF7D331
:1013D000521CD2B28242E7D3324640A900F0E9FD66
:1013E00041B0F0BD1546E6E7000100002DE9F041EF
:1013F00086B00024244800940194029403948169E7
:1014000041F010018161816901F01001049181694D
:1014100041F020018161816901F02001049181691D
:1014200041F004018161816901F004010491816945
:1014300041F0080181618069144F00F008004FF409
:1014400000550490002229463846FEF7F5FFDFF8E4
:101450004080002210214046FEF7EEFF0095022654
:1014600001250396CDE9015469463846FEF7ECFEA6
:101470001020CDE90005CDE9024669464046FEF759
:10148000E3FE06B0BDE8F08100100240001001400C
:10149000000801400C4810B50A4901604FF4E131E1
:1014A0004160002181600C22C160C0E904128161A9
:1014B000C161FFF785FC002803D0BDE81040FEF7AE
:1014C000AEBE10BD0038014064010020FEE7FEE71B
:1014D0007047F8B515460E460B46009204460122A9
:1014E000022100F011F840B9334600228021204645
:1014F000009500F009F8002804D0606D40F020004D
:1015000060650320F8BD00002DE9F8431E469146B2
:1015100088460446089DFEF795FF401B351AFEF7E6
:1015200091FF074625480068C0F3CB30684338E098
:10153000701C37D0FEF786FFC01BA84203D215B13E
:10154000009860B32CE02068416821F0E001416020
:101550006068B0F5827F0BD1A068B0F5004F02D073
:10156000B0F5806F04D12068016821F0400101606E
:10157000A06AB0F5005F09D12068016821F400512C
:1015800001602068016841F400510160012084F885
:101590005100002084F850000320BDE8F8830025A6
:1015A000401E00902068816838EA010004D00021C4
:1015B0004945BDD10020F0E70121F9E714000020E2
:1015C0007047FEF745BF30B58FB028216846FEF75B
:1015D000C0FD14210AA8FEF7BCFD01210804CDE9D5
:1015E00000100024029402250491CDE907504FF425
:1015F000E01009906846FFF791F808B172B6FEE76F
:101600000F20CDE90A054FF48060CDE90C4002219E
:101610000AA80E94FEF7A6FF002801D072B6FEE7D6
:101620000FB030BD704701680C3151E8002F22F433
:10163000907241E80023002BF5D10168143151E884
:10164000002F22F0010241E80023002BF5D1016BAD
:10165000012909D101680C3151E8002F22F0100254
:1016600041E80023002BF5D1202180F84210002111
:101670000163704770B5044600680169E26821F4AF
:101680004051114301612169A06808436169084321
:101690002168CA6841F20C639A430243CA60206819
:1016A0004169A26921F44071114341611E492068DA
:1016B000884202D1FEF7FCFF01E0FEF7E9FF00EBF4
:1016C000C00101EB0012606864218000B2FBF0F3FE
:1016D000B3FBF1F36FF018067343B2FBF0F5B2FB06
:1016E000F0F605EB8305322303EB0515B5FBF1F5A9
:1016F000B6FBF1F605F0F00505EB0615B2FBF0F6CA
:10170000B2FBF0F0B0FBF1F06FF01802504306EBC3
:10171000800003EB0010B0FBF1F0216800F00F0037
:101720002844886070BD0000003801402DE9F8436E
:10173000984617460D460446089E24E0701C22D0A9
:10174000FEF780FEA0EB0800B0421AD8CEB12068A8
:10175000C168490717D5802D15D0402D13D00168D9
:10176000C94309070FD4016800254068009020464E
:10177000FFF759FF0820606484F840500120BDE85D
:10178000F8830320FBE72068006835EA000004D0F6
:101790000020B842D2D00020F1E70120F9E7FEE7AF
:1017A0000FB4084B10B504A902AA039800F02CF856
:1017B000044602A9002000F058FA204610BC5DF84B
:1017C00014FB00006B1C00080907090E002804DB4D
:1017D00000F1E02080F80014704700F00F0000F1E5
:1017E000E02080F8141D704702E008C8121F08C1ED
:1017F000002AFAD170477047002001E001C1121F92
:10180000002AFBD1704700002DE9FF4F8DB00F4635
:101810000546002606E025280BD0DDE90F1290478B
:101820006D1C761C28780028F5D111B03046BDE833
:10183000F08F0024A246A1460122EC4900E00443B7
:1018400015F8013F203B02FA03F00842F7D128784F
:101850002A2810D06FF02F022878A0F13001092932
:1018600014D80AEB8A0102EB410144F0020400EBB8
:10187000010A6D1CF0E701CF5FEA000A03D544F4CA
:101880000054CAF1000A44F002046D1C28782E2886
:1018900017D115F8010F44F004042A280ED06FF078
:1018A0002F022878A0F1300109290AD809EB890113
:1018B00002EB410100EB01096D1CF2E757F8049BB4
:1018C0006D1C28786C280FD006DC4C2817D06828AF
:1018D0000DD06A2814D104E0742810D07A280FD1D2
:1018E0000DE044F400140AE044F4801401E044F4F0
:1018F00040146978814202D104F580146D1C6D1C7E
:101900002A786E2A1FD00CDC632A31D004DC002A2E
:101910008BD0582A11D1A3E0642A68D0692A0CD14F
:1019200065E0732A2ED004DC6F2A73D0702A04D1AC
:101930009BE0752A6FD0782A6ED01046DDE90F1231
:101940009047761C50E1C4F30250022806D00328C9
:1019500009D0042801CF09D0066045E101CFF11775
:10196000C0E9006140E101CF06803DE106703BE146
:1019700017F8040B8DF8000000208DF80100EB46ED
:10198000012003E057F804BB4FF0FF3061074FF030
:10199000000102D40DE008F10101884649450FDA43
:1019A0008045F8DB1BF808100029F4D108E008F1A5
:1019B000010188468142FADB1BF808100029F6D1A4
:1019C000DDE90F23AAEB08008146214600F036F935
:1019D000304400EB080604E0DDE90F121BF8010BB0
:1019E0009047B8F10108F7D221464846F7E00A21AE
:1019F000C4F302534FF0000B0891022B04D001CF27
:101A0000C117032B09D00AE0FF1D27F00707F7E8ED
:101A1000020108E032E01FE020E000B2C117042B11
:101A200001D140B2C117031E71F1000307DA4FF074
:101A3000000CD0EB0C006CEB01012D2302E0230520
:101A400004D52B238DF82430012303E0E30701D0D4
:101A50002023F7E7984658E00A2110E010210EE015
:101A600010204FF0000B08900CE010214FF0000BFD
:101A700044F004044FF00809089103E008214FF0F6
:101A8000000B0891C4F30253022B04D001CF0021B4
:101A9000032B06D006E0FF1D27F00707F7E8020139
:101AA00003E080B2042B00D1C0B24FF0000823073E
:101AB0002BD5702A07D0DDF820C08CF0100C5CEA22
:101AC0000B0C05D00EE040238DF82430012308E0F4
:101AD00050EA010306D030238DF824308DF82520FC
:101AE00002239846DDF820C08CF0080C5CEA0B0C51
:101AF0000BD150EA010301D1630706D530238DF8DD
:101B000024304FF00108A9F10109582A04D038A265
:101B10000B9208AA0A920BE03AA2F9E75B46089AF0
:101B2000FEF729FB0B9B9B5C0A9A521E0A921370CC
:101B300050EA0102F2D10A98ADEB000000F1200B4F
:101B4000600702D524F4803401E04FF00109D94543
:101B500002DDA9EB0B0000E0002000EB0B0141448B
:101B60000890AAEB010AE00306D4DDE90F23214621
:101B7000504600F063F806444FF0000908E009A958
:101B800011F80900DDE90F12904709F10109761CEF
:101B9000C145F4DBE0030CD5DDE90F2321465046B7
:101BA00000F04CF8064404E0DDE90F1230209047C5
:101BB000761C0899481E08900029F5DC08E00A9870
:101BC0000A990078491C0A91DDE90F129047761CAA
:101BD000BBF10001ABF1010BF1DC21465046DDE920
:101BE0000F2300F019F806446D1C1BE609280100BC
:101BF0003031323334353637383961626364656683
:101C00000000000030313233343536373839414244
:101C100043444546000000002DE9F04104460025FC
:101C20001E461746880404D405E039462020B047F4
:101C30006D1C641EF9D52846BDE8F0812DE9F04100
:101C4000044600251E469046C80301D5302700E013
:101C50002027880404D505E041463846B0476D1C6E
:101C6000641EF9D52846BDE8F0810A68531C0B6054
:101C700010707047012210210148FEF7DDBB000003
:101C800000080140002210210148FEF7D5BB0000EA
:101C90000008014010B5002821D0114B0022001F80
:101CA000196803E0814203D80A4649680029F9D13E
:101CB00052B11368841A9C4204D100681844106021
:101CC000104602E0506000E0186039B102680B1A5B
:101CD000934203D10B681A4402604968416010BD09
:101CE0001800002096B0FEF7BBFBFFF76CFCFFF777
:101CF0007DFBFFF7CFFBFFF73BF91D4F4FF400547F
:101D0000002221463846FEF797FB1A4D1A4EA04690
:101D1000AC1D012000F02CF916490120FFF793F9C2
:101D200014490120FFF771F9B0700246E17894F888
:101D300005C02379A078CDE90101CDE9033C6078A5
:101D4000009023780DA105A8FFF72AFD05A8FEF74E
:101D50000BFA82B2642305A91248FFF79BF84146AB
:101D60003846FEF761FB6420FEF75CFAD0E700001E
:101D70000010014084000020000000206366673AE4
:101D80002564202530325820253032582025303225
:101D900058202530325820253032582025303258EE
:101DA0000D0A000064010020F0B50B30154D20F045
:101DB00007010024144A0FE003688B420BD38B42C7
:101DC00005D95E1A43184768C3E9006700E0436815
:101DD000136002C004E0021D10680028ECD1204608
:101DE000002802D1286808B10020F0BD064A074843
:101DF0001060074A121A22F00702C0E900240120ED
:101E00002860D7E71C00002018000020B401002043
:101E1000B003002030B5102300220A4D0AE08C5C8C
:101E2000521C84EAD314E4B2D2B235F8144084EAE6
:101E300003239BB28242F2D34FF6FF7000EA4300C5
:101E400030BD00004E2000082DE9F041C2B006462A
:101E500008788DF8000148788DF8010115464FF09B
:101E6000000840A90220FFF7D5FF010A8DF80211F2
:101E70008DF80301FFF706FFF006030E6A46042102
:101E800040A800F04DF8FFF7F5FE00241AE000210D
:101E90004FEA0D0201EBC400491C135CC9B22B547C
:101EA0000829F7D305EBC401C8798A7900EB022031
:101EB00087B20620FFF7AEFF874201D04FF0FF3810
:101EC000641CE4B2B442E2D342B04046BDE8F081C3
:101ED0001CB54FF0FF300090012301AAFF210448F8
:101EE000FEF762FE08B1FF201CBD9DF804001CBD7A
:101EF000200000202DE9FC4100240E460546671E07
:101F000008E03119012301AA04480097FEF74CFEAE
:101F1000641CE4B2AC42F4D3BDE8FC812000002094
:101F20002DE9FC4700241E4691460F468046651E5B
:101F30000AE000BF08EB0401012301AA0B48009549
:101F4000FEF732FE641CE4B2BC42F3D3002409E085
:101F500009EB04020123FF2104480095FEF724FE4B
:101F6000641CE4B2B442F3D3BDE8FC872000002037
:101F700070B5054600240AE0FFF784FE0220FEF754
:101F800051F9FF20FFF7A4FFFFF774FE641CAC4279
:101F9000F2DB70BD70B50546002407E0FFF772FE66
:101FA0000120FEF73FF9FFF765FE641CAC42F5DB4C
:101FB00070BD2DE9F0478046042000EBC800C0B298
:101FC00017460C468146FFF7EFFE06462078307034
:101FD0006078707031460220FFF71CFF0146000A4E
:101FE000B070F17004241EE0A8F10105002005EB9B
:101FF000450100EB4102401CBA5C3255641CC0B282
:10200000E4B20628F5D308EB480007EB40010620B0
:10201000891FFFF7FFFE010A31553119A41C4870D2
:10202000E4B205F0FF08B8F1000FDDD1FFF72AFE9A
:1020300031464846FFF75EFFFFF71CFE3046BDE81D
:10204000F047FFF727BE0000010101010100000079
:1020500099C5ABCE320BCFD8561D6416FDD307F40D
:102060009E31AC3A35FFC82C51E963E2FA2797ADAF
:102070000E683C63A5A65875C1B0F3BB6A7E905943
:10208000099C3B97A2525F81C644F44F6D8A2E5B38
:10209000B79E85951C50E18378464A4DD38829AF79
:1020A000B06A82611BA4E6777FB24DB9D47CB9F6E1
:1020B000203312388BFD762EEFEBDDE04425BE0297
:1020C00027C715CC8C0971DAE81FDA1443D1C5F3A0
:1020D0005C366E3DF7F80A2B93EEA1E53820C20777
:1020E0005BC269C9F00C0DDF941AA6113FD4525E91
:1020F000CB9BF99060559D8604433648AF8D55AA19
:10210000CC6FFE6467A19A7203B731BCA879EBA8C3
:10211000726D4066D9A32470BDB58FBE167BEC5C92
:1021200075994792DE572384BA41884A118F7C05FE
:10213000E5C0D7CB4E0EB3DD2A18181381D67BF13C
:10214000E234D03F49FAB4292DEC1FE7862213A2CE
:102150008A67B86C21A9DC7A45BF77B4EE71145652
:102160008D93BF98265DDB8E424B7040E985840FCE
:102170001DCA2FC1B6044BD7D212E01979DC83FBFC
:102180001A3E2835B1F04C23D5E6E7ED7E283DF91F
:10219000A43C96370FF2F2216BE459EFC02A3A0DB6
:1021A000A3C891C30806F5D56C105E1BC7DEAA5400
:1021B0003391019A985F658CFC49CE425787ADA058
:1021C0003465066E9FAB6278FBBDC9B65073D651BD
:1021D0004F947D9FE45A1989804CB2472B82D1A538
:1021E00048607A6BE3AE1E7D87B8B5B32C7641FCB0
:1021F000D839EA3273F78E2417E125EABC2F460856
:10220000DFCDEDC6740389D01015221EBBDBF80AA2
:1022100061CF53C4CA0137D2AE179C1C05D9FFFE4B
:10222000663B5430CDF53026A9E39BE8022D6FA71D
:10223000F662C4695DACA07F39BA0BB19274685381
:10224000F196C39D5A58A78B3E4E0C4595800102CE
:1022500002030405060708090A0B0C0D0E0F1010E7
:102260000000000000000000010203040607080946
:102270000000000001020304982200080000002072
:1022800020000000E8170008B82200082000002005
:1022900090070000F817000801010000000000008E
:1022A00001000000100000000000000000127A0091
:0822B000000000000000000026
:04000005080000ED02
:00000001FF
