:020000040800F2
:10000000A8080020890100083B18000841170008D3
:100010003918000893030008711900080000000057
:100020000000000000000000000000003F18000871
:10003000AD030008000000003D180008411800084A
:10004000A3010008A3010008A3010008A301000800
:10005000A3010008A3010008A3010008A3010008F0
:10006000A3010008A3010008A3010008A3010008E0
:10007000A3010008A3010008A3010008A3010008D0
:10008000A3010008A3010008A301000859190008F2
:100090006519000895030008A1030008A3010008E2
:1000A000A3010008A3010008A3010008A3010008A0
:1000B000A3010008A3010008A3010008A301000890
:1000C000A3010008A3010008A3010008A301000880
:1000D000A3010008A3010008A3010008A301000870
:1000E000A3010008A3010008A301000800F002F822
:1000F00000F03AF80AA090E8000C82448344AAF188
:100100000107DA4501D100F02FF8AFF2090EBAE885
:100110000F0013F0010F18BFFB1A43F0010318473B
:10012000E820000018210000103A24BF78C878C1E8
:10013000FAD8520724BF30C830C144BF04680C60ED
:10014000704700000023002400250026103A28BF35
:1001500078C1FBD8520728BF30C148BF0B60704739
:100160001FB51FBD10B510BD00F0CFF81146FFF749
:10017000F7FF01F0D3FF00F0EDF803B4FFF7F2FF53
:1001800003BC00F0F5F80000094880470948004723
:10019000FEE7FEE7FEE7FEE7FEE7FEE7FEE7FEE737
:1001A000FEE7FEE704480549054A064B7047000094
:1001B0009D180008ED000008A8020020A8080020F3
:1001C000A8040020A8040020032A40F2308010F088
:1001D000030C00F0158011F8013BBCF1020F6244E2
:1001E00098BF11F801CB00F8013B38BF11F8013B73
:1001F000A2F1040298BF00F801CB38BF00F8013B20
:1002000011F0030300F04F80083AC0F0088051F865
:10021000043B083A51F804CBA0E80810F5E7121D9A
:100220005CBF51F8043B40F8043BAFF30080D207B9
:1002300024BF11F8013B11F801CB48BF11F8012B85
:1002400024BF00F8013B00F801CB48BF00F8012BA8
:1002500070474FF0000200B5134694469646203989
:1002600022BFA0E80C50A0E80C50B1F12001BFF46F
:10027000F7AF090728BFA0E80C5048BF0CC05DF8D5
:1002800004EB890028BF40F8042B08BF704748BF23
:1002900020F8022B11F0804F18BF00F8012B704797
:1002A00070477047704710B5203AC0F00B80B1E836
:1002B0001850203AA0E81850B1E81850A0E818509B
:1002C000BFF4F5AF5FEA027C24BFB1E81850A0E8A4
:1002D000185044BF18C918C0BDE810405FEA827CBE
:1002E00024BF51F8043B40F8043B08BF7047D207D5
:1002F00028BF31F8023B48BF11F8012B28BF20F876
:10030000023B48BF00F8012B7047754600F02CF8FF
:10031000AE4605006946534620F00700854618B0F2
:1003200020B5FFF73FFFBDE820404FF000064FF03B
:1003300000074FF000084FF0000B21F00701AC461A
:10034000ACE8C009ACE8C009ACE8C009ACE8C00939
:100350008D46704710B50446AFF300802046BDE8D7
:100360001040FFF70ABF0000004870474802002015
:1003700001491820ABBEFEE726000200704740F29C
:10038000010CC2F2000C604740F2330CC2F2000CC8
:100390006047FEE7014800F070BA0000B800002096
:1003A000014800F06ABA0000B80000207047000061
:1003B0001FB51148816941F01001816180694FF4D6
:1003C000005600F01000002401200096CDE9010441
:1003D00002200A4D03906946284600F023FD084F8D
:1003E0003146284600F00EFE00940098401C009014
:1003F000B842FAD3F4E700000010024000100140B8
:10040000E093040006490020C8610648016941F0F4
:1004100004010161016941F0400101617047000080
:100420002801002000200240064A0021D16106492F
:100430000A6942F002020A614861086940F040001E
:100440000861704728010020002002401448002263
:10045000C168CB06134904D5CA6942F00202CA61D9
:100460001022C3685B0705D5CB6943F00103CB615C
:1004700042F00402C369DB0707D0CB6943F00403F1
:10048000CB61C16921F00101C161A2F5807101391F
:1004900001D0C2607047C16921F00101C16170479C
:1004A000002002402801002070B5054600F0B8FD8C
:1004B0000646114C09E0681C07D025B100F0B0FDDC
:1004C000801BA84201D9032070BDE068C007F2D1AB
:1004D000E068800601D52020E060E068C00605D411
:1004E000E069C00702D1E068400703D5FFF7AEFF1F
:1004F000012070BD002070BD0020024090F8202037
:10050000012A07D0022A05D0416A41F480214162C4
:1005100001207047CA0704D00268936843F0800343
:1005200093608A0704D50268936843F4004393609C
:10053000490704D50068816841F40001816000200A
:10054000704790F82020012A07D0022A05D0416A7E
:1005500041F48021416201207047006842690A43EA
:10056000426100207047F0B590F820500468A468FC
:10057000012D05D0022D03D0416A41F480214DE0C8
:1005800014F0406F01D1E50045D5C4F301640125A5
:10059000A5401D608D684FF4C0739DB1CE68354392
:1005A0004E6845EAC605066803EB0417F5514FF49B
:1005B000C275076805EB04150E697E51097D012996
:1005C00005D009E00E88CD6845EA4655EBE701689D
:1005D0004E5946F480764E511179D2F805504FF4B9
:1005E000C67641EA0521056806EB0416A951117883
:1005F000D2F801204FF4C47541EA0221026805EBEC
:1006000004155151006803EB0411425842F00102F5
:1006100042500020F0BD416A41F4001141620120C6
:10062000F0BD000010B590F820300268012B07D013
:10063000022B05D0416A41F480214162012010BDA6
:10064000D2F8000240F00100C2F80002087D00F07C
:100650001F0301209840D2F81C328343C2F81C3299
:10066000CB69B3B9D2F80C328343C2F80C328C890F
:100670004B6864F31F434C6902EBC404C4F8403276
:100680000C890B6864F31F434C6902EBC404C4F883
:100690004432CB69012B16D1D2F80C320343C2F895
:1006A0000C320C884B6864F31F434C6902EBC404A2
:1006B000C4F840320C89CB6864F31F434C6902EBE9
:1006C000C404C4F844328B69002BD2F804320FD032
:1006D00053EA0003C2F804320B69002BD2F814323B
:1006E00008D00343C2F81432096A012904D008E093
:1006F0008343EFE78343F5E7D2F81C120143C2F8C6
:100700001C12D2F8000220F00100C2F80002002002
:1007100010BD70470246002092F82030012B01D016
:10072000022B05D1106821B1D0F8100000F00300B1
:100730007047C068FAE770B590F82040012C05D0EA
:10074000022C03D0416A41F4802128E0046809B3F7
:100750002469A40720D04FF4D874056804EB011471
:100760002D5915F00405956005682D591AD0ED082E
:10077000556005682C5904F00204D4604FF4DA7413
:10078000056804EB01142E5906F00F06082E0CD351
:1007900008250DE0E468DCE7416A41F4001141629C
:1007A000012070BD6D0D1560E3E72D5905F00F05B3
:1007B000156105682D59C5F30725956105682C5904
:1007C000240C54614FF4DC72046802EB0112A4584B
:1007D0001C700468A458240A5C700468A458240C93
:1007E0009C700468A258120EDA704FF4DE7204682E
:1007F00002EB0112A4581C710468A458240A5C710D
:100800000468A458240C9C710468A258120EDA7172
:10081000006829B1016941F020010161002070BD2B
:10082000C16841F02001C160F8E7014690F820005E
:10083000012801D0022804D109684A68920701D52D
:100840000420704709688907FBD5032070470246DA
:10085000002092F82010012901D002290CD1116842
:100860008A68520100D501208A68120100D5401C17
:100870008968C90000D5401C70472DE9F05F054626
:10088000006800244669D0F804908768D0F80CB05E
:10089000D0F810A0D0F81880F10748D0F90714D08C
:1008A00001218160B80703D5284600F03AFA0CE030
:1008B000780702D54FF4006407E0380702D54FF4FB
:1008C000805402E0284600F02BFAF80516D5296876
:1008D0004FF480708860B80503D5284600F023FAED
:1008E0000CE0780502D544F4005407E0380502D541
:1008F00044F4804402E0284600F014FAF80316D5C8
:1009000029684FF480308860B80303D5284600F08A
:100910000CFA0CE0780302D544F4004407E03803F5
:1009200002D544F4803402E0284600F0FDF9300797
:1009300007D55FEACB6004D52968102044F4007421
:10094000C86070074FF0080707D55FEA0B7004D541
:100950002868C760284600F081F9B00706D52868E6
:10096000C068800702D0284600F079F9700607D5E4
:100970005FEACA6004D52968102044F480640861E5
:10098000B00607D55FEA0A7004D5286807612846D3
:1009900000F067F9F00606D528680069800702D0E4
:1009A000284600F05FF9B00308D55FEAC96005D5B5
:1009B000296810204860284600F055F9F00307D553
:1009C0005FEA097004D528684760284600F0AEF950
:1009D000300446D55FEA497040D5F00504D55FEA9A
:1009E000C87001D044F00104B00504D55FEA8870F6
:1009F00001D544F00204700504D55FEA487001D5C2
:100A000044F00404300529D518F0700F26D008F002
:100A10007000402815D006DC102809D020280AD004
:100A2000302816D10AE050280ED0602811D10EE0EF
:100A300044F008040DE044F010040AE044F02004FF
:100A400007E044F0400404E044F0800401E044F492
:100A500080742868816921F070018161296804200F
:100A60004860002C05D0686A204368622846FFF77A
:100A700050FEBDE8F09F70B5040003D094F820004C
:100A800010B104E0012070BD204600F091F820680C
:100A9000016841F00101016000F0C2FA0546052637
:100AA00004E000F0BDFA401B0A2811D82068406815
:100AB000C007F6D02068016821F00201016000F053
:100AC000AFFA05460BE000F0ABFA401B0A2806D946
:100AD000606A40F40030606284F82060D2E72068E9
:100AE00040688007EFD4207E0128206801683DD04F
:100AF00021F080010160607E01282068016838D003
:100B000021F040010160A07E01282068016833D0F7
:100B100021F020010160E07E0128206801682ED0CC
:100B200041F010010160207F01282068016829D070
:100B300021F008010160607F01282068016824D04D
:100B400021F004010160D4E902010843D4E9041250
:100B5000114308436168491E08432168C8610020A9
:100B60006062012084F82000002070BD41F0800107
:100B7000C0E741F04001C5E741F02001CAE721F09C
:100B80001001CFE741F00801D4E741F00401D9E7B3
:100B90000346002093F82020012A01D0022A05D123
:100BA0001A6889069268914300D0012070470000BE
:100BB00010B586B000210091019102910391006867
:100BC0002249884240D12248816941F00101816176
:100BD000816901F001010491C16941F00071C161B5
:100BE000C16901F000710491816941F004018161E2
:100BF000806900F0040004901648416821F4C04167
:100C00004160C01400900120134C029069462046B8
:100C100000F008F9A0140090022001900320039036
:100C20006946204600F0FEF800220121142000F061
:100C300063FA142000F052FA00220221132000F07F
:100C40005BFA132000F04AFA06B010BD00640040C1
:100C5000001002400000014000080140704701F010
:100C600013B970477047704770B5044690F820007C
:100C7000012804D0606A40F40020606218E002207D
:100C800084F820002068016821F00101016000F073
:100C9000C7F905460EE000BF00F0C2F9401B0A2864
:100CA00008D9606A40F400306062052084F82000B2
:100CB000012070BD20684068C007EDD1606270BD42
:100CC00070B5044690F82000022804D0606A40F411
:100CD0008010606214E02068016841F00101016049
:100CE00000F09EF905460DE000F09AF9401B0A2835
:100CF00008D9606A40F400306062052084F8200062
:100D0000012070BD20684068C007EDD020680168F0
:100D100021F002010160012084F82000002070BD54
:100D200070477047704770477047704770470000C2
:100D300070B5044600F074F90546601C02D0044802
:100D40000078044400F06CF9401BA042FAD370BD57
:100D5000840000202DE9F047054626480F4601266D
:100D6000017E01290FD00121814601762868DFF834
:100D700088804CF25034022808D0A2462046FFF763
:100D800093FBA8B131E00220BDE8F0872046FFF7D1
:100D90008BFB08BB0120FFF735FB2046FFF784FBE8
:100DA000D8F81010064621F00401C8F810101CE015
:100DB0004FF0FF303860AC6811E02046FFF734FB9D
:100DC0005046FFF771FBD8F81010060021F0020121
:100DD000C8F8101001D03C6007E004F58064D5E944
:100DE000020100EB8120A042E7D8002189F8181009
:100DF0003046C9E7280100200020024006490020B3
:100E00000A69120607D5054A4A60054A4A60096917
:100E1000090600D5012070470020024023016745E4
:100E2000AB89EFCD2DE9F84FDFF8B8910024A9F197
:100E3000040B23460F2709F1040AABF1040EC9E0A5
:100E40000125A5402A40AA427DD1674ED1F804C0B1
:100E5000ACEB0608B44532D014DCBCF1030F3AD039
:100E600009DCBCF1000F2AD0BCF1010F1CD0BCF191
:100E7000020F31D11DE0BCF1110F17D0BCF1120FE0
:100E80002AD119E0B8F5881F19D006DCB8F5803FE3
:100E900015D0B8F5801F1FD111E0B8F5001F0ED096
:100EA000B8F5041F18D10AE0CB6815E0CB681B1D0C
:100EB00012E0CB6808330FE0CB680C330CE08B6892
:100EC0002BB1012B4FF0080303D0456104E004234C
:100ED00002E0056100E00023FF2A01D8064601E098
:100EE00000F104064FEA840501D9A5F12005D6F8E2
:100EF000008007FA05FC28EA0C0803FA05F548EA21
:100F00000508C6F800804D68ED0062D5374DAE6922
:100F100046F00106AE61AD6924F0030605F0010557
:100F20000095334D06EB050CDCF80850A607360F8C
:100F300007FA06F825EA0805DFF8B880404503D12E
:100F40004FF0000817E044E0DFF8AC80404502D1E4
:100F50004FF001080FE0DFF8A480404502D14FF0C8
:100F6000020808E0DFF89880404502D14FF00308FE
:100F700001E04FF0040808FA06F848EA0508CCF842
:100F800008804D68D9F80060ED024D4601D5164342
:100F900000E096432E604D68DAF80060AD025546D9
:100FA00001D5164300E096432E604D68DBF80060E3
:100FB000AD035D4601D5164300E096432E604D68B3
:100FC000DEF80060ED03754601D5164300E0964358
:100FD0002E60641C0D682A46E5407FF431AFBDE801
:100FE000F88F0000080401400000111000100240BA
:100FF0000000014000080140000C014000100140C9
:1010000000140140C26821EA02030A4043EA024197
:10101000016170470AB1016170470904FBE70000F4
:101020000148806870470000840000200248816801
:10103000027811448160704784000020074810B591
:10104000016841F010010160032000F075F80F20E5
:1010500000F006F800F024F8002010BD0020024047
:1010600070B50D4D04464FF47A712878B1FBF0F05D
:101070000A490968B1FBF0F000F0DCFA48B9102C1D
:1010800007D200222146501E00F036F800206C6086
:1010900070BD012070BD0000840000209000002081
:1010A0000C4808B5816941F001018161816901F055
:1010B00001010091C16941F08051C161C06900F036
:1010C000805000900448416821F0E06141F00071D7
:1010D000416008BD0010024000000140002809DB0B
:1010E00000F01F02012191404009800000F1E02042
:1010F000C0F8001170470000F0B40E4B1B680C469E
:10110000C3F30223C3F10705042D00D90425191DDB
:10111000072901D2002300E0DB1E012606FA05F1B3
:10112000491E214099409E40761E16403143F0BC36
:1011300000F01FBC0CED00E0064900F00702086853
:101140004FF6FF03184040EA0220034A10430860AC
:10115000704700000CED00E00000FA052DE9F047B3
:101160000F46050061D0434E306800F00700B842DA
:1011700009D2306820F0070038433060306800F052
:101180000700B84251D128683B4C810712D540076F
:1011900003D5606840F4E06060602878000703D5FC
:1011A000606840F4605060606068A96820F0F000FA
:1011B000084360602878C00728D06868012810D0EC
:1011C0002168022810D0890700292EDA616821F0F1
:1011D000030101436160FFF723FF804641F2883934
:1011E0000DE021688903EFE78901EDE7FFF718FFBC
:1011F000A0EB0801494502D90320BDE8F0876068EB
:10120000696800F00C00B0EB810FEFD1306800F09E
:101210000700B8420BD9306820F00700384330602F
:10122000306800F00700B84201D00120E5E72878D7
:10123000400705D56068E96820F4E0600843606015
:101240002878000706D56068296920F4605040EAD4
:10125000C100606000F038F86168084AC1F303110A
:10126000515CC8400649086006480068FFF7F8FE70
:101270000020C2E70020024000100240EE210008DA
:101280009000002088000020044805490068496853
:10129000044AC1F30221515CC8407047900000200D
:1012A00000100240FE210008044805490068496812
:1012B000044AC1F3C221515CC8407047900000202D
:1012C00000100240FE2100080E4A51680E4801F04D
:1012D0000C03042B11D0082B0FD10C48C1F383430E
:1012E000C903C05C0AD55168084AC1F34041921E47
:1012F000515C054A5043B0FBF1F070470449484344
:10130000704700000010024000127A00DE21000841
:1013100000093D002DE9F84F040070D02078C04D41
:10132000C00749D06868C0F38100012807D0686809
:10133000C0F38100022809D16868C00306D5286877
:10134000800339D560680028E7D035E06068B0F5E3
:10135000803F0BD010B1B0F5A02F11D0286820F439
:1013600080302860286820F4802002E0286840F45B
:1013700080302860606890B1FFF752FE06460AE0B0
:10138000286840F480202860F0E700BFFFF748FE9F
:10139000801B642873D828688003F7D50CE0FFF71A
:1013A0003FFE064605E000BFFFF73AFE801B6428BB
:1013B000F0D828688003F7D420789A4E80074FF041
:1013C00001094FF0000839D5686810F00C0F07D0FC
:1013D0006868C0F38100022809D16868C00306D498
:1013E0002868800714D52069012808D110E02069F9
:1013F000B0B1C6F80090FFF713FE074605E00AE11A
:10140000FFF70EFEC01B0228C4D828688007F7D556
:101410002868616920F0F80040EAC10028600DE00A
:10142000C6F80080FFF7FCFD074604E0FFF7F8FD73
:10143000C01B022823D828688007F7D4207800072B
:101440002CD57948A169D9B1C0F80090FFF7E8FD23
:10145000074604E0FFF7E4FDC01B02280FD8686AC6
:101460008007F7D571484FF4FA510068B0FBF1F0EE
:10147000009000BF0098411E0091FAD20EE080E07B
:10148000C0F80080FFF7CCFD074604E0FFF7C8FD79
:10149000C01B022875D8686A8007F7D420784007F7
:1014A00060D5E8690027C00008D4E86940F08050A2
:1014B000E861E869012700F0805000905C4801680D
:1014C000C90513D40168834641F480710160FFF7B8
:1014D000A7FD824606E000BFFFF7A2FDA0EB0A00D1
:1014E00064284ED8DBF80000C005F5D5E068012877
:1014F0000AD008B1052813D0286A20F0010028621C
:10150000286A20F0040002E0286A40F00100286206
:10151000E06841F2883B98B1FFF782FD82460BE01C
:10152000286A40F004002862EEE700BFFFF778FD6C
:10153000A0EB0A0159455AD8286A8007F6D50CE075
:10154000FFF76EFD824605E0FFF76AFDA0EB0A019A
:1015500059454CD8286A8007F6D41FB1E86920F0B5
:101560008050E861E06988B36968C1F381010229AC
:1015700044D00228C6F8608004D0FFF751FD04462D
:1015800038E034E0FFF74CFD074604E0FFF748FD84
:10159000C01B02282BD828688001F7D4206AB0F538
:1015A000803F05D16868A16820F400300843686076
:1015B000D4E908010843696821F47411084368609C
:1015C000C6F86090FFF72CFD044606E025E000BF5A
:1015D000FFF726FD001B022809D828688001F7D5EF
:1015E0001BE000BFFFF71CFD001B022802D90320EF
:1015F000BDE8F88F28688001F4D40EE00128F7D008
:101600006868226A00F48031914204D1616A00F472
:101610007010884201D00120EAE70020E8E70000CE
:10162000001002400000424280044242900000202C
:101630000070004010B5401EB0F1807F01D3012042
:1016400010BD4FF0E02460610F21601700F091F9A8
:101650000020A06107202061002010BD4FF0E02095
:10166000016921F002010161704770B5040004D0E6
:1016700094F84100002510B106E0012070BD84F807
:101680004050204600F024F8242084F841002068CF
:10169000C16821F40051C160204600F001F92068C2
:1016A000016921F4904101612068416921F02A011A
:1016B00041612068C16841F40051C1606564202027
:1016C00084F8410084F842006563002070BD00008A
:1016D00030B585B00024009401940294039400680E
:1016E0001449884224D11448816941F480418161C0
:1016F000816901F480410491816941F004018161B3
:1017000080690E4D00F0040004904FF400700090CA
:10171000022001900320039069462846FFF782FBD0
:101720002815CDE90004694628460294FFF77AFBA4
:1017300005B030BD003801400010024000080140F3
:10174000FEE70000114810B50F4901600421416017
:1017500000214FF08072C0E902124FF46022026152
:101760004FF4801242610176012242768176C27680
:1017700001774177FFF77FF9002803D0BDE81040DB
:10178000FEF716BE10BD000000640040B800002047
:1017900070B586B000241848009401940294039414
:1017A000816941F010018161816901F010010491AA
:1017B000816941F020018161816901F0200104917A
:1017C000816941F0040181618069012200F0040017
:1017D0000A4E5503049029463046FFF71BFC0120B2
:1017E0000095CDE901040220039069463046FFF7D9
:1017F00019FB06B070BD000000100240001001404F
:101800000C4810B50A4901604FF4E13141600021F4
:1018100081600C22C160C0E904128161C161FFF7DF
:1018200024FF002803D0BDE81040FEF7C1BD10BD65
:1018300000380140E0000020FEE7FEE770477047F7
:10184000FFF7F4BB30B58FB028216846FEF701FDE5
:1018500014210AA8FEF7FDFC01210804CDE90010BF
:101860000024029402250491CDE907504FF4E010C2
:1018700009906846FFF74EFD60B90F20CDE90A05D3
:101880006802CDE90C4002210AA80E94FFF766FC1D
:10189000002801D0FEF78CFD0FB030BD704700006E
:1018A00070B5044600680169E26821F440511143B3
:1018B00001612169A0680843616908432168CA6819
:1018C00041F20C639A430243CA6020684169A269ED
:1018D00021F44071114341611E492068884202D1C0
:1018E000FFF7E2FC01E0FFF7CFFC00EBC00101EBEA
:1018F0000012606864218000B2FBF0F3B3FBF1F3E7
:101900006FF018067343B2FBF0F5B2FBF0F605EB8F
:101910008305322303EB0515B5FBF1F5B6FBF1F6B4
:1019200005F0F00505EB0615B2FBF0F6B2FBF0F0A2
:10193000B0FBF1F06FF01802504306EB800003EBB0
:101940000010B0FBF1F0216800F00F00284488601F
:1019500070BD0000003801400148FEF78EBF000056
:10196000B80000200148FEF788BF0000B800002042
:10197000FEE70907090E002804DB00F1E02080F8EB
:101980000014704700F00F0000F1E02080F8141DF3
:10199000704700000B48016840684FF40072B2EBDA
:1019A000115F0BD10821B1EB106F07D1C10705D032
:1019B000044949420844B0F5404F01D30020704724
:1019C000012070470040000870B5FFF7E3FF0028D2
:1019D00023D0124E35687468FFF740FE4FF0E021C7
:1019E000002008614861886172B64FF0FF328100C3
:1019F00001F1E021C1F88021C1F88022401C0828B3
:101A0000F5D307480660BFF34F8FBFF36F8F85F3A1
:101A10000888A446BDE87040604770BD00400008DB
:101A200008ED00E01CB513A1144CD1E90001CDE98B
:101A30000001E07800281BD1FFF7F2FA6168401A34
:101A4000B0F5FA6F14D3FFF7EBFA606020788DF8E9
:101A50000200401C20700822694640F2FE7000F02F
:101A60007BF8002804D04FF400510548FFF7CAFA6C
:101A70001CBD0000A55A000000000000A8000020C6
:101A80000010014010B58AB028216846FEF7E1FB3E
:101A90001448002444708470C4701348FEF7C5FED7
:101AA000022814D00120CDE9064003940890049444
:101AB0000E200594099000940194029469460A4806
:101AC000FEF7B0FD40B90848FFF7CEF820B9022173
:101AD0000548FEF736FD10B100200AB010BD012008
:101AE000FBE70000A8000020B80000202DE9F0412D
:101AF00016460F46050008D03FB136B100F0C4F9D4
:101B0000134CA0786178884202D10020BDE8F081B2
:101B10001048A17800EB011109682960A17800EB59
:101B200001110A793270A17800EB01113846491D84
:101B3000FEF74AFBA078401C00F00F00A070286858
:101B4000B0F5E06F01D10120E0700120DEE7000078
:101B5000A800002048010020F0B593B00E460746CB
:101B6000154618210BA8FEF774FB0024119412945B
:101B7000002E75D0082D00D908252A46314611A817
:101B8000FEF722FBC7F30A00CDE90B04CDE90E45B1
:101B9000344F0D948DF84040002538688069400727
:101BA0001DD528216846FEF754FB2E48FFF788F81C
:101BB0000120CDE906400394089004940E2005947A
:101BC000099000940194029469462648FEF72AFD84
:101BD0002448FFF749F802212248FEF7B2FCFFF73C
:101BE0001FFA064605E000BFFFF71AFA801B14280B
:101BF00004D81C48FEF72BFE0028F5D01948FEF744
:101C000026FE40B30AAB11AA0BA91648FEF7ABFC9F
:101C100008BBFFF705FA06460AE000BFFFF700FA27
:101C2000801B142804D90F480A99FEF767FC05E0C9
:101C30000C480A99FEF7ACFF0028EFD109480A9931
:101C4000FEF7A6FF38B938688069400704D4012040
:101C500013B0F0BD04E0FFE76D1CEDB2032D9CD383
:101C60000020F5E7B800002006480021064A017070
:101C7000C0E9022101618170FF224270C1700171CF
:101C8000FFF700BF94000020004000081FB50020AF
:101C900000908DF80C004FF4E06407E00098A0423B
:101CA00004D19DF80C1001A800F07EF903AA01A947
:101CB0006846FFF71BFF0028F0D105480179C2688C
:101CC00000781143014301D1FFF7ACFE1FBD0000B6
:101CD0009400002070B54FF0FF3200240A4E0EE051
:101CE000035D5A405FF0000302F001056D4235408C
:101CF0005B1CDBB285EA5202082BF5D3641C8C42D4
:101D0000EED3D04370BD00002083B8ED024A0146F7
:101D10001046FFF7DFBF00000040000831B1054A60
:101D2000904203D308440449884201D900207047F7
:101D300001207047004000080000010830B585B060
:101D4000D0B1B0F5404F17D8002400F2FF30850A1B
:101D50000C48009401940294039404944470FFF797
:101D60004DF8FEF70CFB0848CDE9020504A90094E4
:101D70006846FEF7EFFF10B1002005B030BD01202E
:101D8000FBE70000B00000200040000810B5084C40
:101D9000607858B1FFF732F8207840F47F416068EE
:101DA000FEF7F2FA002802D000206070012010BD7A
:101DB000B0000020054810B500214170FF220270DC
:101DC0004160FFF71BF8012010BD0000B0000020AB
:101DD0002DE9F0470E46174605461146FFF79EFFD0
:101DE000404230403AD000244FF00108FFF706F897
:101DF000DFF8709099F8010080B1D9F804004C46E2
:101E0000411C8D422CD13178227842EA0121FEF723
:101E1000BBFA28B30020607001246D1C4FF0010A4A
:101E2000BC4217D2601CB84208D23019018828463B
:101E3000FEF7AAFAA0B1A41CAD1C07E0315D89F839
:101E40000010C9F8045089F801A0641CB8F1000F13
:101E5000E6D105E0B8F1000F02D00120BDE8F0871F
:101E60000020FBE7B000002005480168054A9142C8
:101E700003D100210160012070470020704700005D
:101E8000F04F0020AD1007B070B58AB0194C28E0B3
:101E900007AB6A4600211848FEF74DFC002826D102
:101EA0000298F0B90498082801D908200490C2B219
:101EB0006078009B07A9401C00F00F05A0788542C0
:101EC0000FD00E48667800EB06163360637800EB9F
:101ED00003131A71637800EB0310401DFEF774F9C9
:101EE000657000210448FEF715FC0028D0D10AB027
:101EF00070BD0000A8000020B800002048010020AC
:101F000070B50446042913D3104DE86880B1FFF77B
:101F10003DFF88B1E078246860F31F64E868FFF74C
:101F2000F5FE4FF00003A0421A4609D0042108E054
:101F300000231A46022104E000231A46032100E090
:101F40000021BDE87040052000F014B99400002085
:101F500010B5042903D200231A46022117E0C178E4
:101F60000468012061F31F64FEF7E2FE2046FFF7DC
:101F7000E5FE88B10A480B4A00218260C0E90341AE
:101F800001700120FEF7D4FE00231A461946BDE871
:101F90001040022000F0EEB800231A460321F6E7B5
:101FA00094000020004000087CB5002923D02D4D6E
:101FB00010F8016B491E01220024C9B2EA70082EF4
:101FC0004AD2DFE806F04904191D2125293E8DF883
:101FD00000208DF8014013208DF802008DF8044098
:101FE0004C208DF803208DF8050006236A46002159
:101FF000012000F0BFF87CBDBDE87C40FFF7A8BF22
:10200000BDE87C4000F032B8BDE87C4000F050B83C
:10201000BDE87C40FFF774BFFFF7B8FE2C700023CB
:10202000EC602C711A461946062000F0A3F8022035
:10203000FEF77EFE0C48FEF743FEBDE87C40FFF74E
:10204000C3BC00232C701A4619460720EC6002B06E
:10205000BDE8704000F08EB800231A46FF213046DC
:10206000F5E7000094000020B8000020042906D302
:10207000C178006861F31F60B0F5404F03D30023BF
:102080001A4602210DE00849421808498A60086191
:102090000120087000208870FF20002348701A4635
:1020A0001946032000F066B80040000894000020A4
:1020B000F8B5194C2278012A03D1022901D3072946
:1020C00003D900231A46052121E010F8015B491EBF
:1020D000CEB28DF80050A17831B161788D4203D134
:1020E00001236A46002112E001463246A068FFF74C
:1020F0006FFE48B1A0683044A06020693044206180
:1021000065700120A070EBE701236A4603210420DB
:1021100000F030F8F8BD000094000020FEF78EFFBC
:10212000FFF790FBFFF734FBFFF70CFBFFF768FBB3
:1021300001220F4C550329462046FEF76BFFFFF79F
:1021400039FEFFF791FD18B1FFF78EFE40B10CE0AC
:1021500029462046FEF756FF6420FEF7E9FDF7E723
:10216000FFF718FC08B1FFF72FFCFFF78FFDFCE726
:10217000001001401CB514001A464FF000030093F4
:102180008DF8000001938DF8011008D03AB1062AAD
:1021900000D9062221460DF10200FEF715F8FEF7E0
:1021A0003FFF044605E000BFFEF73AFF001B322860
:1021B00004D80948FEF74BFB0328F5D30120FEF7AE
:1021C000B7FD0822694640F20170FFF7C5FC012007
:1021D000FEF7AEFD1CBD0000B800002001020203A6
:1021E0000405060708090A0B0C0D0E0F101000005D
:1021F00000000000000001020304060708090000B7
:102200000000010203040000382200080000002042
:102210008400000028010008BC220008840000207F
:102220003400000028010008F0220008B800002057
:10223000F0070000440100081E493420C8607047C0
:1022400010B500211B4A04E0491C814201D900203D
:1022500010BDD368DB07F7D1D06810F0140F02D09F
:10226000FFF7EAFFF3E7012010BD2DE9F041054635
:102270000E46C00719D1104F3846FFF7E1FF00287E
:1022800014D0FFF7D9FF0B4C206940F0010020610A
:102290002E803846FFF7D4FF0028206920F0010087
:1022A000206102D02888B04202D00020BDE8F08131
:1022B0000120FBE70020024020A1070001000000F0
:1022C000100000000000000000127A0000FF000073
:1022D00000000000004000080000000000000000B6
:1022E00000000000000000000000000000000000EE
:04000005080000ED02
:00000001FF
