:020000040800F2
:10000000F83F00202902000857250008C51D0008F8
:1000100055250008650D0008512800080000000063
:100020000000000000000000000000009101000836
:10003000670D000800000000D5010008992600089F
:10004000430200084302000843020008430200087C
:10005000430200084302000843020008430200086C
:10006000430200084302000843020008430200085C
:10007000430200084302000843020008430200084C
:10008000430200084302000843020008430200083C
:10009000430200084302000843020008430200082C
:1000A0004302000815270008430200084302000825
:1000B000430200084302000843020008430200080C
:1000C00043020008430200084302000843020008FC
:1000D00043020008430200084302000843020008EC
:1000E00043020008430200084302000800F002F83F
:1000F00000F03EF80AA090E8000C82448344AAF184
:100100000107DA4501D100F033F8AFF2090EBAE881
:100110000F0013F0010F18BFFB1A43F0010318473B
:100120001045000030450000103A24BF78C878C15F
:10013000FAD8520724BF30C830C144BF04680C60ED
:10014000704700000023002400250026103A28BF35
:1001500078C1FBD8520728BF30C148BF0B60704739
:100160001FB59DE8030000F069F91FBD10B510BD73
:1001700000F014FA1146FFF7F3FF02F0EBFB00F07A
:1001800032FA03B4FFF7F2FF03BC00F063FA000099
:10019000224B19680868B0E8F00F80F30988BFF3B4
:1001A0006F8F4FF0000080F311884EF00D0E7047F6
:1001B0000000000006480068006880F3088862B606
:1001C00061B6BFF34F8FBFF36F8F00DF00BF00BF7B
:1001D00008ED00E0EFF30980BFF36F8F0F4B1A6853
:1001E00020E9F00F106008B54FF0500080F311883F
:1001F000BFF34F8FBFF36F8F03F00EFB4FF0000084
:1002000080F31188BDE8084019680868B0E8F00F6D
:1002100080F30988BFF36F8F704700BF1C00002078
:10022000EFF3058070470000094880470948004700
:10023000FEE7FEE7FEE7FEE7FEE7FEE7FEE7FEE796
:10024000FEE7FEE704480549054A064B70470000F3
:1002500011270008ED000008F8390020F83F0020C1
:10026000F83B0020F83B002070B5064600F0CAF8C5
:10027000056806F10B0020F00704B4429CBF002083
:1002800070BD2B466A68BAB11068A04210D304F161
:10029000080188423CBF5068586007D35168101964
:1002A00041601168091B016058601460101D70BD29
:1002B00013465268002AE7D12146284600F0AAF8E2
:1002C0000028DED170BD70B50446051F00F09AF815
:1002D0000068002C14BF446870BD002C18BFAC42ED
:1002E0003CBF20466468F8D301680A18AA4218BFC8
:1002F000456003D12A680546114401602868411908
:10030000A1421CBF6C6070BD6168696021680844CF
:10031000286070BD032A40F2308010F0030C00F01A
:10032000158011F8013BBCF1020F624498BF11F82F
:1003300001CB00F8013B38BF11F8013BA2F10402E8
:1003400098BF00F801CB38BF00F8013B11F0030360
:1003500000F0AA80083AC0F0088051F8043B083A3F
:1003600051F804CBA0E80810F5E7121D5CBF51F866
:10037000043B40F8043BAFF30080D20724BF11F8E0
:10038000013B11F801CB48BF11F8012B24BF00F845
:10039000013B00F801CB48BF00F8012B704702F089
:1003A000FF0343EA032242EA024200F0B1B84FF0F1
:1003B000000200B5134694469646203922BFA0E8B5
:1003C0000C50A0E80C50B1F12001BFF4F7AF0907C1
:1003D00028BFA0E80C5048BF0CC05DF804EB8900B2
:1003E00028BF40F8042B08BF704748BF20F8022BF5
:1003F00011F0804F18BF00F8012B7047704770470D
:1004000070470000004870479C39002070477047D3
:100410007047704738B504460A4600206946AFF376
:100420000080002808BF38BD02460099204600F031
:1004300093F8012038BD012000F0A8B8F8B5AFF35B
:100440000080054600200C46102000BF0646A81973
:10045000A0420DD9324669460020AFF30080070064
:1004600008BF00F093F80098A04218BF0546C419D1
:10047000FFF7C8FF05600746F01D20F0070046198A
:10048000284600F00AF8B44208BFF8BDA21B314666
:100490003868BDE8F84000F05FB800210160C0E9AD
:1004A000011070471020704710B5203AC0F00B8043
:1004B000B1E81850203AA0E81850B1E81850A0E868
:1004C0001850BFF4F5AF5FEA027C24BFB1E81850C2
:1004D000A0E8185044BF18C918C0BDE810405FEA32
:1004E000827C24BF51F8043B40F8043B08BF7047AE
:1004F000D20728BF31F8023B48BF11F8012B28BFB3
:1005000020F8023B48BF00F8012B70474FF0000273
:100510000429C0F0128010F0030C3FF44AAFCCF174
:10052000040CBCF1020F18BF00F8012BA8BF20F883
:10053000022BA1EB0C01FFF73CBF5FEAC17C24BF9B
:1005400000F8012B00F8012B48BF00F8012B704781
:100550000048704794390020034640688C460028C4
:1005600018BF88423CBF03464068F8D31868184457
:10057000884207D00CF1030020F00700001D411A4B
:10058000521A0146081D0A60FFF79DBE10B500F023
:1005900039F8BDE8104000F02FB870477546FFF7F6
:1005A000D7FFAE4605006946534620F00700854652
:1005B00018B020B5FFF746FEBDE820404FF000061A
:1005C0004FF000074FF000084FF0000B21F007013B
:1005D000AC46ACE8C009ACE8C009ACE8C009ACE87E
:1005E000C0098D46704710B50446AFF30080204621
:1005F000BDE81040FFF7C5BD002801D000F02AB8C3
:100600007047000010B5012805D0002103A000F0BC
:1006100027F8012010BD09A1F8E70000534947520F
:10062000544D454D3A204F7574206F6620686561C2
:1006300070206D656D6F7279000000003A2048658A
:100640006170206D656D6F727920636F7272757065
:100650007465640001491820ABBEFEE72600020065
:1006600070B505460C460A2000E06D1C00F011F83C
:1006700035B128780028F8D102E0641C00F009F8B0
:1006800014B120780028F8D1BDE870400A20AFF3FB
:10069000008008B569468DF800000320ABBE08BD98
:1006A00070B50D460646002410E0062003F0E6F87B
:1006B00000231A463146022001F0F2FB142000F01C
:1006C000B1F808B1012070BD641CE4B2AC42ECD3B7
:1006D000002070BD002205E0835C0BB10120704753
:1006E000521C92B28A42F7D3002070470022134670
:1006F00004E000BF20F81230521C92B28A42F9D3B3
:100700007047000070B50446002500F057F800F06F
:10071000B9F840B1002108466054491C89B27229D9
:10072000FAD3012070BD0D48002202EB8213002194
:1007300000EB83035E18491C96F8E86066556D1C53
:10074000C9B2ADB21329F5D3521CD2B2062AECD3EA
:100750002046BDE870407221FFF7BCBF04020020B4
:1007600070B50446002500F029F800F0ABF940B15F
:10077000002108466054491C89B23629FAD3012069
:1007800070BD0D48002202EB8213002100EB8303B1
:100790005E18491C96F8FB6066556D1CC9B2ADB277
:1007A0000929F5D3521CD2B2062AECD32046BDE863
:1007B00070403621FFF78EBF0402002010B5114CA7
:1007C000207800281CD11049062001F087FB0E4933
:1007D000062001F06DFB0C49062001F06BFB0A4975
:1007E00000204FF6FF7200BF00EB801301EB830384
:1007F000401CC0B2C3F8E4200628F5D301202070C5
:1008000010BD0000180000200402002008B10122E1
:1008100000E000224FF40051014800F05BBC0000F2
:100820000010014038B5054607208DF8000014205F
:100830008DF801006946022002F058F9010A8DF88E
:1008400002108DF803000A2002F06AF869460420BD
:1008500002F0B3FD02F03EF84FEA000402F03AF86D
:10086000001BA84204D90A2002F052F8012038BD2A
:10087000FF2002F09FFD0028F0D00A2002F048F887
:10088000002038BD2DE9F04F8C4C85B000254FF687
:10089000FF7700BF05EB851004EB800606F1E8004A
:1008A0001321FFF784FD6D1CEDB2C6F8E470062D30
:1008B000F0D3062002F0F3FF01F0F8FA0521012041
:1008C000FFF7EEFE20BB062002F0D8FF7B4A062190
:1008D000002001F020FB7A4D002101EBC10205EB65
:1008E000820301EB8112002004EB820202EB40063E
:1008F000F68B23F81060401CC0B21228F6D3491CB6
:10090000C9B20629E9D305210020FFF7C9FE18B1B5
:10091000012005B0BDE8F08F062002F0AFFF674A66
:100920000621002001F0F7FA654A0021D83201EBD8
:10093000C10302EB830601EB8113002004EB830368
:1009400003EB4007FF8B26F81070401CC0B2122842
:10095000F6D3491CC9B20629E9D30026AE46934610
:100960006B46A24606EB86140AEB84094FF6FF722B
:1009700006EBC6070020C9F8E42001460EEB870508
:100980000BEB870235F8118032F811C0C44530D224
:10099000A8EB0C0C1FFA8CFCBCF57A6F29D901F17D
:1009A000010C03F800C0401C40B24FFA81FC10E07B
:1009B00005EB4C08B8F80480B8F1000F05D10CF134
:1009C000020803F80080401C40B20CF1010C4FFA01
:1009D0008CFCBCF10F0FEBDB0E290AD1B2F81EC064
:1009E000BCF1000F05D14FF0100C03F800C0401C03
:1009F00040B2491CC9B21229C4D33BF8271019B917
:100A000000211954401C40B2518C19B912211954BB
:100A1000401C40B2118C19B911211954401C40B22C
:100A2000002218E0511C49B20D4611E09C565F5659
:100A3000BC420BD10C4604E01F197F781F55641C83
:100A400064B28442F8DB401E40B201E0491C49B266
:100A50008142EBDB2A468242E4DB0022411E4DB29A
:100A60000FE003EB010C5C569CF90170BC4202DD07
:100A70005F548CF80140491C49B2A942F1DB521C79
:100A800052B282424FF00001F7DB012407E05A56D0
:100A9000132A02D24A4482F8E840491C49B28142F2
:100AA000F5DB002803DD9DF90010C9F8E410761C81
:100AB000F6B2062EFFF456AF00202AE7040200200B
:100AC0001C0800202DE9F0470020674C02464FF635
:100AD000FF7500BF00EB801104EB8101401C41F861
:100AE000FB2FC0B24A600A7241F8175C0628F1D3A6
:100AF000062002F0D4FE01F0D7F90026062002F00D
:100B0000BDFE0021022001F0C7F91420FFF78AFE84
:100B1000D0BB761CF6B2032EF0D3062002F0AEFE58
:100B2000514A0621002001F0F4F900210846DFF8BF
:100B30003C8103E0002001E009280CD201EB811286
:100B400004EB820202EB4002B2F8483001EB810272
:100B500008EB820200E0002322F81030401CC0B2F3
:100B60000A28E9D3491CC9B20629E3D301F09CF94C
:100B70000026062002F082FE0021022001F092F9F8
:100B80001420FFF74FFE10B10120BDE8F087761C5E
:100B9000F6B2032EEDD3062002F070FE324A062193
:100BA000002001F0B6F90021304A0846783203E00F
:100BB000002001E009280CD201EB811304EB830330
:100BC00003EB4003B3F8486001EB810302EB8303BE
:100BD00000E0002623F81060401CC0B20A28E9D3C8
:100BE000491CC9B20629E3D30021A9464FF0010AE6
:100BF00001EB811304EB830301EB810508EB850610
:100C0000002002EB8505C3F8E49000BF35F810C062
:100C100036F81070BC4503D9ACEB0707BFB200E053
:100C20000027052809D2962F13D9471C03EB000C87
:100C3000C3F8E4708CF8FBA00BE00AD9962F08D912
:100C4000471EFFB2C3F8E400092F02D21F4487F801
:100C5000FBA0401CC0B20A28D8D3491CC9B206293F
:100C6000C6D3002091E7000004020020CC09002038
:100C70002DE9F04105460024FFF7A0FD062002F013
:100C80000EFE00221146022001F008F91420FFF7A1
:100C9000C9FD20B16C212846FFF728FD1FE0062082
:100CA00002F0ECFD0F4A0621002001F034F90D4B53
:100CB000002202EB8216002103EB860606EB4107B9
:100CC000491CFF8B25F81470641CC9B2A4B2122908
:100CD000F4D3521CD2B2062AEBD3002800D0012054
:100CE000BDE8F081040200202DE9F0410546002412
:100CF000FFF764FD062002F0D2FD0021022001F082
:100D0000CBF81420FFF78EFD20B136212846FFF7DF
:100D1000EDFC21E0062002F0B1FD114A0621002081
:100D200001F0F7F80E4B002202EB8216002103EBD4
:100D3000860600BF06EB4107491CB7F8487025F846
:100D40001470641CC9B2A4B20929F3D3521CD2B2E4
:100D5000062AE9D3002800D00120BDE8F081000078
:100D600004020020FEE7704772B6FEE7704770B5D8
:100D7000040003D094F8200010B104E0012070BDFD
:100D8000204600F081F82068016841F0010101600F
:100D900000F0A6F90546052604E000F0A1F9401B85
:100DA0000A2811D820684068C007F6D0206801687A
:100DB00021F00201016000F093F905460BE000F01C
:100DC0008FF9401B0A2806D9606A40F4003060623F
:100DD00084F82060D2E7206840688007EFD4207E46
:100DE0000128206801683DD021F080010160607E0B
:100DF00001282068016838D021F040010160A07E00
:100E000001282068016833D021F020010160E07ED4
:100E10000128206801682ED041F010010160207F78
:100E200001282068016829D021F008010160607F55
:100E300001282068016824D021F004010160D4E970
:100E400002010843D4E90412114308436168491EB2
:100E500008432168C86100206062012084F82000F6
:100E6000002070BD41F08001C0E741F04001C5E7BE
:100E700041F02001CAE721F01001CFE741F008015D
:100E8000D4E741F00401D9E710B586B00021009104
:100E900001910291039100681349884222D11348BD
:100EA000C16941F00071C161C16901F00071049133
:100EB000816941F00401816180690D4C00F00400FA
:100EC00004904FF4006000906946204600F012F84C
:100ED000A014009002200190032003906946204650
:100EE00000F008F806B010BD006400400010024099
:100EF000000801402DE9F84FDFF8B8910024A9F16E
:100F0000040B23460F2709F1040AABF1040EC9E0D4
:100F10000125A5402A40AA427DD1674ED1F804C0E0
:100F2000ACEB0608B44532D014DCBCF1030F3AD068
:100F300009DCBCF1000F2AD0BCF1010F1CD0BCF1C0
:100F4000020F31D11DE0BCF1110F17D0BCF1120F0F
:100F50002AD119E0B8F5881F19D006DCB8F5803F12
:100F600015D0B8F5801F1FD111E0B8F5001F0ED0C5
:100F7000B8F5041F18D10AE0CB6815E0CB681B1D3B
:100F800012E0CB6808330FE0CB680C330CE08B68C1
:100F90002BB1012B4FF0080303D0456104E004237B
:100FA00002E0056100E00023FF2A01D8064601E0C7
:100FB00000F104064FEA840501D9A5F12005D6F811
:100FC000008007FA05FC28EA0C0803FA05F548EA50
:100FD0000508C6F800804D68ED0062D5374DAE6952
:100FE00046F00106AE61AD6924F0030605F0010587
:100FF0000095334D06EB050CDCF80850A607360FBC
:1010000007FA06F825EA0805DFF8B880404503D15D
:101010004FF0000817E044E0DFF8AC80404502D113
:101020004FF001080FE0DFF8A480404502D14FF0F7
:10103000020808E0DFF89880404502D14FF003082D
:1010400001E04FF0040808FA06F848EA0508CCF871
:1010500008804D68D9F80060ED024D4601D5164371
:1010600000E096432E604D68DAF80060AD02554608
:1010700001D5164300E096432E604D68DBF8006012
:10108000AD035D4601D5164300E096432E604D68E2
:10109000DEF80060ED03754601D5164300E0964387
:1010A0002E60641C0D682A46E5407FF431AFBDE830
:1010B000F88F0000080401400000111000100240E9
:1010C0000000014000080140000C014000100140F8
:1010D000001401400AB1016170470904FBE70000F8
:1010E00001488068704700000800002002488168BD
:1010F000027811448160704708000020074810B54D
:10110000016841F010010160032000F0A1F80F20F8
:1011100000F006F800F04AF8002010BD0020024060
:1011200030B505461C4887B0816941F40061816192
:10113000806906A900F40060009001A800F030F971
:1011400000F05EF91549164AB0FBF1F11548491E49
:101150000260416040F2E7320021C0E90321816072
:10116000816100F0C3FC040012D10E4800F0ECFCD9
:1011700004000DD1192000F03DF8102D07D20022F7
:101180002946192000F044F80748056000E00124D2
:1011900007B0204630BD00000010024040420F0062
:1011A000002C0140BC0100200C0000200F4808B5B5
:1011B000816941F001018161816901F001010091C2
:1011C000C16941F08051C161C069002200F08050C6
:1011D00000900F21901E00F01BF80548416821F097
:1011E000E06141F00071416008BD00000010024064
:1011F00000000140002809DB00F01F02012191409E
:101200004009800000F1E020C0F8001170470000A4
:10121000F0B40E4B1B680C46C3F30223C3F1070561
:10122000042D00D90425191D072901D2002300E04F
:10123000DB1E012606FA05F1491E214099409E4019
:10124000761E16403143F0BC01F003BB0CED00E00C
:10125000064900F0070208684FF6FF03184040EA0D
:101260000220034A10430860704700000CED00E0C4
:101270000000FA052DE9F0470F46050061D0434E06
:10128000306800F00700B84209D2306820F007004B
:1012900038433060306800F00700B84251D1286808
:1012A0003B4C810712D5400703D5606840F4E060ED
:1012B00060602878000703D5606840F46050606083
:1012C0006068A96820F0F000084360602878C007D3
:1012D00028D06868012810D02168022810D089071A
:1012E00000292EDA616821F0030101436160FFF7F4
:1012F000F7FE804641F288390DE021688903EFE767
:101300008901EDE7FFF7ECFEA0EB0801494502D9A2
:101310000320BDE8F0876068696800F00C00B0EB5E
:10132000810FEFD1306800F00700B8420BD9306868
:1013300020F0070038433060306800F00700B84202
:1013400001D00120E5E72878400705D56068E96805
:1013500020F4E060084360602878000706D56068E4
:10136000296920F4605040EAC100606000F058F83C
:101370006168084AC1F30311515CC840064908601E
:1013800006480068FFF7CCFE0020C2E700200240BC
:1013900000100240FE430008140000200C00002052
:1013A0000F2202600C4A536803F003034360536842
:1013B00003F0F0038360536803F4E063C360526892
:1013C0004FF4E06303EAD20202610448006800F0CF
:1013D0000700086070470000001002400020024033
:1013E0000448054900684968044AC1F30221515C78
:1013F000C840704714000020001002400E4400084E
:101400000448054900684968044AC1F3C221515C97
:10141000C840704714000020001002400E4400082D
:101420000E4A51680E4801F00C03042B11D0082B12
:101430000FD10C48C1F38343C903C05C0AD551687E
:10144000084AC1F34041921E515C054A5043B0FB2B
:10145000F1F0704704494843704700000010024013
:1014600000127A00EE43000800093D002DE9F84F14
:10147000040070D02078C04DC00749D06868C0F320
:101480008100012807D06868C0F38100022809D1D3
:101490006868C00306D52868800339D560680028CD
:1014A000E7D035E06068B0F5803F0BD010B1B0F503
:1014B000A02F11D0286820F480302860286820F4FC
:1014C000802002E0286840F480302860606890B195
:1014D000FFF706FE06460AE0286840F480202860F0
:1014E000F0E700BFFFF7FCFD801B642873D8286875
:1014F0008003F7D50CE0FFF7F3FD064605E000BFDB
:10150000FFF7EEFD801B6428F0D828688003F7D42D
:1015100020789A4E80074FF001094FF0000839D526
:10152000686810F00C0F07D06868C0F381000228CB
:1015300009D16868C00306D42868800714D52069DB
:10154000012808D110E02069B0B1C6F80090FFF77B
:10155000C7FD074605E00AE1FFF7C2FDC01B0228F0
:10156000C4D828688007F7D52868616920F0F8009A
:1015700040EAC10028600DE0C6F80080FFF7B0FD2A
:10158000074604E0FFF7ACFDC01B022823D82868FB
:101590008007F7D4207800072CD57948A169D9B104
:1015A000C0F80090FFF79CFD074604E0FFF798FDA8
:1015B000C01B02280FD8686A8007F7D571484FF41E
:1015C000FA510068B0FBF1F0009000BF0098411E96
:1015D0000091FAD20EE080E0C0F80080FFF780FDB5
:1015E000074604E0FFF77CFDC01B022875D8686A37
:1015F0008007F7D42078400760D5E8690027C0004D
:1016000008D4E86940F08050E861E869012700F0FB
:10161000805000905C480168C90513D40168834676
:1016200041F480710160FFF75BFD824606E000BF78
:10163000FFF756FDA0EB0A0064284ED8DBF8000047
:10164000C005F5D5E06801280AD008B1052813D0F7
:10165000286A20F001002862286A20F0040002E0D5
:10166000286A40F001002862E06841F2883B98B1A6
:10167000FFF736FD82460BE0286A40F0040028623E
:10168000EEE700BFFFF72CFDA0EB0A0159455AD841
:10169000286A8007F6D50CE0FFF722FD824605E0B8
:1016A000FFF71EFDA0EB0A0159454CD8286A8007B8
:1016B000F6D41FB1E86920F08050E861E06988B392
:1016C0006968C1F38101022944D00228C6F860800C
:1016D00004D0FFF705FD044638E034E0FFF700FDD5
:1016E000074604E0FFF7FCFCC01B02282BD8286843
:1016F0008001F7D4206AB0F5803F05D16868A16801
:1017000020F4003008436860D4E9080108436968A0
:1017100021F4741108436860C6F86090FFF7E0FC9C
:10172000044606E025E000BFFFF7DAFC001B0228B4
:1017300009D828688001F7D51BE000BFFFF7D0FC6F
:10174000001B022802D90320BDE8F88F2868800119
:10175000F4D40EE00128F7D06868226A00F48031E2
:10176000914204D1616A00F47010884201D00120D6
:10177000EAE70020E8E700000010024000004242D3
:1017800080044242140000200070004070B5040044
:1017900009D0606A002540B125616561A56294F8B1
:1017A000510040B10CE0012070BD6068B0F5827F4F
:1017B000F4D0E561F2E784F85050204600F040F89C
:1017C000022084F851002068016821F04001016086
:1017D000A088218900F4827001F404410843A189A2
:1017E00001F400610843217C01F002010843217DDE
:1017F00001F001010843218B01F400710843217FAE
:1018000001F03801084394F8201001F080010843EA
:10181000218D01F40051084321680860A06904216A
:1018200001EA1040216848602068C16921F4006124
:10183000C1616565012084F85100002070BD000081
:1018400030B585B000240094019402940394254D92
:101850000368254802210322AB421AD1836943F46D
:1018600080538361836903F480530493836943F055
:101870000403836180691D4D00F004000490A020E2
:10188000CDE90001039269462846FFF733FB40206B
:101890001EE0174DAB4222D1C36943F48043C361BC
:1018A000C36903F480430493836943F008038361AD
:1018B0008069104D00F0080004904FF42040CDE9FD
:1018C0000001039269462846FFF714FB4FF480405D
:1018D000CDE90004694628460294FFF70BFB05B0EA
:1018E00030BD0000003001400010024000080140FF
:1018F00000380040000C01402DE9FF4F81B01D462B
:10190000934604464FF001090E9EFFF7E9FB074698
:1019100094F851006168012806D0B1F5827F3CD16E
:10192000A168C9BB042838D10298002871D0BBF146
:10193000000FFBD0002DF9D094F8500001282CD0D6
:101940004FF0010A84F850A094F85100042802D006
:10195000052084F851004FF00008C4F85480C4F802
:1019600038B0E587A58702992163E586A586C4F886
:101970004080C4F8448020680168490603D40168A7
:1019800041F040010160E068B0F5006F606808D088
:10199000F0B3012D49D081E0FFE7022005B0BDE89A
:1019A000F08F08B1012D39D1206B21680088C86003
:1019B000206B801C2063E08E401EE0862EE02068B5
:1019C000816889070FD5E18E69B1B9F1010F0AD19C
:1019D000216B0988C160206B801C2063E08E401E53
:1019E000E0864FF0000920688168C9070CD0E18FBC
:1019F00051B1C068A16B0880A06B801CA063E08F10
:101A0000401EE0874FF00109FFF76AFBC01B01E0B1
:101A10000BE067E0B04201D3701C50D1E08E00288B
:101A2000CDD1E08F0028CAD13EE0206B216800783C
:101A30000873206B401C2063E08E401EE0862DE082
:101A40002068816889070FD5E18E69B1B9F1010F6E
:101A50000AD1216B09780173206B401C2063E08E52
:101A6000401EE0864FF0000920688168C9070CD04D
:101A7000E18F51B1C068A16B0870A06B401CA063DE
:101A8000E08F401EE0874FF00109FFF729FBC01BE4
:101A9000B04202D3701C01D011E086B1E08E002864
:101AA000CED1E08F0028CBD13A463146204600F017
:101AB00053FD50B12020606584F8508012E084F816
:101AC00051A084F85080032068E7A06818B9206806
:101AD000C1688068009084F851A084F85080606DDF
:101AE0000028F1D0012059E77047704710B5040075
:101AF00003D094F83D0010B107E0012010BD002094
:101B000084F83C00204600F01EF8022084F83D00D6
:101B1000211D206800F004FE012084F8460084F8AE
:101B20003E0084F83F0084F8400084F8410084F8C7
:101B3000420084F8430084F8440084F8450084F8A7
:101B40003D00002010BD704790F83D10012901D0E4
:101B500001207047022180F83D100168CA6842F0F8
:101B60000102CA6000680B49884208D0B0F1804F7A
:101B700005D00949884202D00849884204D18168C9
:101B800001F00701062903D0016841F0010101605D
:101B900000207047002C0140000400400008004075
:101BA00070472DE9F04104460068C66805694FF0AA
:101BB0000007A90713D5B10711D5F91E016101204E
:101BC0002077206880698007204602D0FFF7E8FF71
:101BD00004E000F07EF8204600F07CF827776807E4
:101BE00016D5700714D521686FF004000861022033
:101BF00020772068806910F4407F204602D0FFF7EC
:101C0000CFFF04E000F065F8204600F063F8277786
:101C1000280715D5300713D521686FF00800086133
:101C2000042020772068C0698007204602D0FFF793
:101C3000B7FF04E000F04DF8204600F04BF827779E
:101C4000E80616D5F00614D521686FF0100008617B
:101C5000082020772068C06910F4407F204602D019
:101C6000FFF79EFF04E000F034F8204600F032F861
:101C70002777E80708D0F00706D021686FF0010049
:101C80000861204600F028F8280608D5300606D559
:101C900021686FF0800008612046FFF725FF680685
:101CA00008D5700606D521686FF04000086120460F
:101CB00000F01CF8A8060AD5B00608D521686FF018
:101CC000200008612046BDE8F041FFF70EBFBDE8E7
:101CD000F08170477047000000680349884201D1D5
:101CE000FFF704BA70470000002C0140704770B540
:101CF000040004D094F84100002510B106E0012052
:101D000070BD84F84050204600F024F8242084F868
:101D100041002068C16821F40051C160204600F0F4
:101D20003BFD2068016921F490410161206841690F
:101D300021F02A0141612068C16841F40051C1606D
:101D40006564202084F8410084F842006563002027
:101D500070BD000030B585B0002400940194029459
:101D6000039400681449884224D11448816941F4DD
:101D700080418161816901F480410491816941F070
:101D80000401816180690E4D00F0040004904FF45D
:101D900000700090022001900320039069462846BD
:101DA000FFF7A8F82815CDE90004694628460294F3
:101DB000FFF7A0F805B030BD003801400010024028
:101DC00000080140FEE700002DE9F041304CD4E965
:101DD000020194F8FE217F2A02D2521C84F8FE21CF
:101DE00094F8FC21002601274FF00308D2B194F8A3
:101DF000FD21012A19D0022A2AD0032A32D094F8D0
:101E0000FE010125642804D384F8FE6184F8FD8175
:101E100000252846FEF7FAFCD4E90001C4E90201D6
:101E2000BDE8F08184F8FC71EEE700252A462B46D8
:101E300002F02EFA04D184F8FE6184F8FD81E8E70F
:101E400094F8FE010A28E4D384F8FE61022011E030
:101E500094F8FE0101250A28DBD384F8FE6184F89A
:101E6000FD71D5E794F8FE210025642A06D384F895
:101E7000FE61042084F8FD010125CAE70022054B1C
:101E800002F006FAC5D184F8FE6184F8FD71C0E75E
:101E9000C00A00200000F03F00F042B800F04FB848
:101EA00000F05EB800F06FB800F010B900F018B99B
:101EB00000F020B970B5002215460BE002EB821449
:101EC000002301EB8404E6185B1CF573062BFADB98
:101ED000521CD2B28242F1D370BD0000F0B5002294
:101EE00012260424092506274FF0020C0EE000BF3D
:101EF00002EB821301EB8303521C03F8DC6FD2B2B6
:101F00005C709D70DF701C7183F805C08242EFD356
:101F1000F0BD00F001B910B500F090F9C0B210BDED
:101F2000C0F3400208B5121D01EBC0108DF800206F
:101F300060308DF80100684600F0CEFC08BD08B5A1
:101F4000C0F34003C00100EB01109B1C10448DF84E
:101F5000003060308DF80100684600F0BDFC08BD1F
:101F600038B5C0F34004C00100EB81101044A41C3C
:101F700000EB03108DF8004028308DF80100684612
:101F800000F0AAFC38BDC0F3400208B5C001121D24
:101F900000EB81108DF8002010308DF801006846AC
:101FA00000F09AFC08BD0000F0B5052916D2DFE864
:101FB00001F0032A4B6B160000210DE001EB8113A9
:101FC00002EB8303491C33F8C05F13F8B24C25447D
:101FD0001D805D882C445C808142EFDBF0BD0021D8
:101FE0000EE000BF01EB811302EB8303491C33F8C1
:101FF000C05F13F8A34C25441D805D882C445C8091
:102000008142EFDBF0BD00231BE0002114E000BFA4
:1020100003EB831402EB84046518B4F8C06015F870
:10202000427F3E44A4F8C06004EB41042D7834F8AC
:10203000C46F491C3544258092F8DF408C42E7DCB0
:102040005B1C8342E1DBF0BD00231AE0002113E0BA
:1020500003EB831402EB84046518B4F8C06015F830
:102060005A7F3E44A4F8C06004EB41042D7834F854
:10207000D06F491C3544258092F8E0408C42E7DC63
:102080005B1C8342E2DBF0BD00231BE0002113E078
:1020900003EB831402EB84046518B4F8C06015F8F0
:1020A0006B7F3E44A4F8C06004EB41042D7834F803
:1020B000D86F491C3544258092F8E140641E8C425B
:1020C000E6DC5B1C8342E1DBF0BD000008B503A049
:1020D00000680090684600F0FFFB08BD0712000092
:1020E00008B503A000680090684600F0F5FB08BD45
:1020F0000711000030B5002215460AE002EB8214F9
:10210000002301EB8404E5545B1C062BFBDB521C13
:10211000D2B28242F2D330BD2DE9F84307461646CB
:102120000C464FF00008C800FEF79EF8814637B114
:1021300002462146384600F051F800253FE00127CD
:102140001FE04A462146384600F048F8002514E0D2
:1021500096F8BF00D8B1601B401EC0B200EB8010E3
:1021600006EB800303F15A000090E8B24A46394674
:10217000483300F088FC80466D1CA542E8DB7F1CDC
:10218000FFB296F8E000401CB842DAD819E0E8B295
:10219000E4E700BF96F8BF00F0B1601B401EC0B27C
:1021A00000EB801006EB800303F15A000090E8B2C8
:1021B0004A463946483300F066FC80466D1CA5420D
:1021C000E8DB324602212046FFF7EEFE4846FEF7E6
:1021D0007AF84046BDE8F883E8B2E1E738B50C4646
:1021E0000C2100231546012805D0022806D003281B
:1021F00006D0042820D08DF8011004E00E2000E065
:102200000D208DF801008DF800306946022000F0A5
:102210006DFC010A8DF802108DF803000A2000F011
:102220007FFBE006030E2A460421684601F0D2F83F
:102230000A2000F06DFB38BD0F20E2E72DE9F843DE
:10224000804617460D460026C800FEF70DF8814669
:10225000B8F1000005D04A46294600F055F80024A0
:1022600043E0012021E04A462946404600F04CF870
:10227000002415E097F8BF00F0B1281B401EC0B243
:1022800000EB801007EB800303F142000090E0B206
:102290004A4641461E3300F0F6FB304446B2641C09
:1022A000AC42E7DB08F10100C0B2804697F8DF00DE
:1022B000401C4045D7D81AE0E0B2E1E797F8BF00EC
:1022C00000B3281B401EC0B200EB801107EB810356
:1022D00003F1420109EBC0020091E0B241461E3316
:1022E00000F0D1FB304446B2641CAC42E6DB3A4617
:1022F00001212846FFF758FE4846FDF7E4FFF0B2FB
:10230000BDE8F883E0B2DFE738B5002315460C4698
:1023100001280AD002280AD003280AD004280AD0AB
:1023200005280AD006280AD00EE0042008E006207E
:1023300006E0082004E00A2002E0092000E00B206B
:102340008DF801008DF800306946022000F0CEFBC8
:10235000010A8DF802108DF803000A2000F0E0FA5F
:10236000E006030E2A460421684601F033F80A20ED
:1023700000F0CEFA38BD00000D4810B50B490160E1
:102380001021416000218160C160016141610176DD
:1023900041768176C17601774177FEF7E8FC002827
:1023A00003D0BDE81040FEF7DFBC10BD0064004064
:1023B0009C00002010B5074A0021074800F01EFBD2
:1023C000064C044A002120602432054800F016FB28
:1023D000606010BDA44300088126000800000020B2
:1023E0008D2600082DE9F04186B000242448009491
:1023F000019402940394816941F010018161816923
:1024000001F010010491816941F02001816181692D
:1024100001F020010491816941F004018161816929
:1024200001F004010491816941F008018161806932
:10243000144F00F008004FF4005504900022294684
:102440003846FEF747FEDFF8408000221021404664
:10245000FEF740FE0095022601250396CDE90154C2
:1024600069463846FEF746FD1020CDE90005CDE966
:10247000024669464046FEF73DFD06B0BDE8F081E4
:10248000001002400010014000080140104810B543
:102490000E4901604FF48271416000210222816087
:1024A000C0E9031201224261520282613022C0E976
:1024B0000721416281620A21C162FFF767F90028A2
:1024C00003D0BDE81040FEF74FBC10BD0030014006
:1024D000C4000020104810B50E4901604FF482710D
:1024E0004160002102228160C0E9031201224261A1
:1024F000520282612022C0E90721416281620A21E1
:10250000C162FFF743F9002803D0BDE81040FEF791
:102510002BBC10BD003800401C0100200C4810B539
:102520000A4901604FF4E1314160002181600C22D1
:10253000C160C0E904128161C161FFF7D8FB0028C6
:1025400003D0BDE81040FEF70FBC10BD00380140BD
:1025500074010020FEE7FEE7F8B515460E460B466F
:10256000009204460122022100F010F840B93346DF
:10257000002280212046009500F008F8002804D0B1
:10258000606D40F0200060650320F8BD2DE9F84340
:102590001E46914688460446089DFEF7A1FD401B55
:1025A000351AFEF79DFD074625480068C0F3CB307D
:1025B000684338E0701C37D0FEF792FDC01BA8427C
:1025C00003D215B1009860B32CE02068416821F077
:1025D000E00141606068B0F5827F0BD1A068B0F582
:1025E000004F02D0B0F5806F04D12068016821F05F
:1025F00040010160A06AB0F5005F09D12068016860
:1026000021F4005101602068016841F4005101602B
:10261000012084F85100002084F850000320BDE818
:10262000F8830025401E00902068816838EA010088
:1026300004D000214945BDD10020F0E70121F9E790
:10264000140000200C4A10B50A490020C2E900011C
:1026500002F5AA70FEF756F80848FEF781F806481A
:102660001030FEF705FB0548BDE81040DE38FEF7E8
:102670003BBB00000000F03FC00A0020860C002099
:10268000FFF7E0FF0A2000F07EF9F9E7FFF79CFB77
:102690000A2000F078F9F9E710B54FF0E020006962
:1026A00001F034FC012803D0BDE8104001F062B90C
:1026B00010BD30B58FB028216846FDF778FE142193
:1026C0000AA8FDF774FE01210804CDE900100024DA
:1026D000029402250491CDE907504FF4E0100990CF
:1026E0006846FEF7C3FE08B172B6FEE70F20CDE9DB
:1026F0000A054FF4A060CDE90C4002210AA80E940F
:10270000FEF7B8FD002801D072B6FEE70FB030BD6D
:10271000704700000148FFF744BA0000BC010020E8
:10272000F0B50268194B1A4C1A4D4FF08047984289
:1027300005D0B84203D0A04201D0A84203D122F074
:1027400070064A683243984205D0B84203D0A0428E
:1027500001D0A84203D122F44074CA6822434C69D4
:1027600022F08002224302608A68C2620A688262A2
:10277000984201D109690163012141610169C907D9
:1027800003D0016921F001010161F0BD002C01407D
:10279000000400400008004070B50446006801696C
:1027A000E26821F44051114301612169A0680843A6
:1027B000616908432168CA6841F20C639A43024385
:1027C000CA6020684169A26921F4407111434161E6
:1027D0001E492068884202D1FEF712FE01E0FEF792
:1027E000FFFD00EBC00101EB001260686421800076
:1027F000B2FBF0F3B3FBF1F36FF018067343B2FBD7
:10280000F0F5B2FBF0F605EB8305322303EB05157B
:10281000B5FBF1F5B6FBF1F605F0F00505EB061595
:10282000B2FBF0F6B2FBF0F0B0FBF1F06FF0180283
:10283000504306EB800003EB0010B0FBF1F0216881
:1028400000F00F002844886070BD0000003801408F
:10285000FEE70907090E002804DB00F1E02080F8FC
:102860000014704700F00F0000F1E02080F8141D04
:102870007047000000B585B00020029011488169C2
:1028800041F0040181618069694600F00400049010
:102890001020009001200190032003900A48FEF7C9
:1028A00029FB002000F034F80848094A01689142E9
:1028B00003D190F85100002801D1FFF7E7FD05B0E2
:1028C00000BD00000010024000080140C4000020CC
:1028D00000300140FEF704BC08B501788DF8001007
:1028E00040788DF801006946022000F0FFF8010AE7
:1028F0008DF802108DF803000A2000F011F86946E7
:10290000042000F05AFD0A2000F002F808BD000083
:10291000012210210148FEF7DDBB00000008014044
:10292000002210210148FEF7D5BB0000000801403D
:102930000649074A0968B1FBF2F141430520B1FBA2
:10294000F0F000E000BF401EFCD2704714000020F1
:1029500040420F00FEF7D2FBFFF7ABFEFFF742FD50
:10296000FFF70AFDFFF792FDFFF7B4FDFFF7D6FD75
:10297000FFF780FFFEF7FAF900F012F8FFF71AFDF3
:1029800000F020F8FEE710B5EFF3058111B16FF00C
:10299000050403E0002408B100F08AFE204610BDC3
:1029A000EFF3058010B16FF005007047044801682F
:1029B00011B14FF0FF3070470121016000207047D6
:1029C0006C00002010B5EFF3058010B16FF005002A
:1029D00010BD08480168012902D04FF0FF3010BD3A
:1029E000054A002182F8141D0221016000F0C8FE92
:1029F000002010BD6C0000200BE000E02DE9FF413D
:102A00004FEA01034FF00005EFF30581039549BB41
:102A100040B38027182100244AB3166806B1344613
:102A200096691EB13146761E382E02D21679F60707
:102A300003D0002004B0BDE8F081566906B1B708A4
:102A4000D2F808C0BCF1000F0DD0D5685C2D18D3AA
:102A500012693AB136B18DE806103A46214601F0C6
:102A60002AFA03900DE0D6685EB912694AB903AA42
:102A7000CDE90012BAB2214601F0F0F9012800D0E8
:102A800003950398D6E72DE9F0430F460026C106CB
:102A9000DDF81C900C0E354607EB470C02EB0408E2
:102AA000115D98F80180A41C01EB08210CEB0508CE
:102AB00003EB48086D1CEDB228F8061CE4B2032DA8
:102AC000ECD3111909884CBA02EBC001062000F0C2
:102AD0000DF809EB0701844202D00126304600E0E0
:102AE000002001F8010C3046BDE8F08330B510231A
:102AF00000220A4D0AE08C5C521C84EAD314E4B232
:102B0000D2B235F8144084EA03239BB28242F2D356
:102B10004FF6FF7000EA430030BD00001644000885
:102B20002DE9F041134C0F460546E6682068001D6C
:102B300000F08AFC681C07D137B12168BDE8F0417C
:102B40000D48091D00F0D0BC20683544B5424560F1
:102B5000216805D2A06BBDE8F041091D00F0ACBCB6
:102B6000606B091D00F0A8FCA06A854200D2A56236
:102B7000BDE8F0811C000020B01100202DE9F041DB
:102B8000054600F0BDFC2D4CA068401CA0602068EC
:102B90002B4F10B1606930B32BE02560A06801288D
:102BA00027D1002606EB860007EB800000F076FCBC
:102BB000761C382EF6D3234800F070FC21481430E0
:102BC00000F06CFC1F48283000F068FC1D483C30C9
:102BD00000F064FC1B48503000F060FC1948606352
:102BE0001430A06305E02068E96AC06A884200D812
:102BF0002560606A401C60626864E86A21698842F6
:102C000000D9206100EB800007EB8000291D00F057
:102C10006BFC00F095FC606900280CD02068E96A24
:102C2000C06A884207D208494FF080500860BFF35D
:102C30004F8FBFF36F8FBDE8F08100001C000020B4
:102C4000000D00206011002004ED00E038B500F018
:102C500057FC104C2068C8B90F4800F01FFC0E4804
:102C6000143000F01BFC0C48E060143020610A4B6B
:102C70000020F03B009003F1500210210A2000F0E8
:102C80008FFE206010B105A100F0DCFCBDE83840EB
:102C900000F056BC58000020B4120020546D725150
:102CA0000000000030B4026C0B46002A0BD0C16853
:102CB0001144C1608468A14201D30168C16030BC85
:102CC0001846FDF727BB30BC70472DE9F041856BF6
:102CD000174604460026026C82B1C7B1E068FDF7D2
:102CE00019FBE168206C091AE1602268914202D266
:102CF000A168081AE060022F16D017E02068A8B972
:102D0000A06801F07BF906460020A0600EE0606834
:102D1000FDF700FB216C606808446060A168884290
:102D200004D32068606001E005B16D1E6D1CA563D1
:102D30003046BDE8F08110B5044690F8590058B10E
:102D400001280CD002280FD0502080F31188BFF347
:102D50004F8FBFF36F8FFEE7206B00F005FC20461E
:102D6000BDE8104000F000BC10BD000010484FF45A
:102D70000051420706D0C01D0D4920F00700411A3E
:102D8000C1F500510B4A00230144C2E90003083990
:102D9000183A21F0070111604B600B600B1AC0E973
:102DA000001393604FF00040536050617047000083
:102DB0009419002088000020144E154CA6F29C4760
:102DC0004FF08058DFF84C9012E000BF00F098FB05
:102DD000F068C568281D00F037FBA068401EA060A1
:102DE0006068401E606000F0ABFB2846FFF7A3FF61
:102DF00060680028EAD138680128F9D9C9F800804C
:102E0000BFF34F8FBFF36F8FF2E700009C110020DC
:102E10001C00002004ED00E070B51D46049C51B17B
:102E2000C4F80020C4E90F010121204600F0ECFDA8
:102E300084F84C5070BD2460F4E700002DE9F05F89
:102E40008846DDE90B941546834691009A460A9E12
:102E5000A522206BFDF7A3FA6FF00301206B01EBB5
:102E60008501084420F00707780707D0502080F339
:102E70001188BFF34F8FBFF36F8FFEE70025B8F1C6
:102E8000000F0FD05FF00000221818F8001082F831
:102E9000341018F8001011B1401C1028F4D384F835
:102EA000435001E084F83450382E00D33726E662D0
:102EB000C4E91365201D00F0FCFA04F1180000F0CD
:102EC000F8FA2461C6F138006462A061656584F88F
:102ED000585052465946384600F05AFA2060B9F127
:102EE000000F01D0C9F80040BDE8F09F30B511498E
:102EF00000E011460A688242FBD34B685C188442AA
:102F000003D1406818444860084643681C1894423E
:102F100009D1084C183C2468A24209D052681A44CE
:102F200042600A6812680260814200D0086030BDC9
:102F30000460F9E78800002070B5002441600B4D63
:102F40000061914206D8D11A8269914206D2011DD0
:102F5000286907E09A4203D2994201D3012403E091
:102F6000011DE86800F0A8FA204670BD5800002056
:102F700010B5044600F0C4FAA06B28B15FF000045D
:102F800000F0DEFA204610BD0124F9E730B589B023
:102F90003C4D6EE00498002806DADDE90601059A4A
:102FA00090470498002864DB069C606910B1201DDE
:102FB00000F04AFA03A800F0D7F8024604980A285D
:102FC00057D2DFE800F00505052D334A05052D33FE
:102FD00094F8280040F0010084F828000599A069C1
:102FE000059B01442046FFF7A7FF68B3216A2046EE
:102FF000884794F8280040073BD5002000900598AA
:10300000A169002342181946204601F001F9D8B9F8
:10301000502080F31188BFF34F8FBFF36F8FFEE70F
:1030200014F8280F20F00100207022E094F8280006
:1030300040F0010084F828000598A06128B18118AB
:1030400013462046FFF778FF13E0502080F31188E5
:10305000BFF34F8FBFF36F8FFEE794F8280081070F
:1030600003D4204600F080FA03E020F0010084F849
:103070002800002204A9286800F01AFE002889D13F
:1030800009B030BD580000202DE9FC410F4605462F
:1030900000F0BAFB01A800F067F80446019818B1E7
:1030A00001F024F8BDE8FC81254EAFB1306900681D
:1030B000D0B30027291B3A46306800F0D7FA01F058
:1030C00015F80028EED11F494FF080500860BFF37B
:1030D0004F8FBFF36F8FE5E7A542EBD801F006F8FD
:1030E000F0682746C068C468201D00F0ADF994F868
:1030F0002800410719D5A0692B4641193A462046B8
:10310000FFF71AFFA8B100200346014600902A46A7
:10311000204601F07DF860B9502080F31188BFF39C
:103120004F8FBFF36F8FFEE707E020F0010084F8B8
:103130002800216A20468847B4E70127BAE7000043
:103140005800002004ED00E00648416B096829B1F1
:10315000416BC968C9684968816270474FF0FF31A7
:10316000FAE700001C00002070B5054600F0DCFE08
:10317000064E0446B068844203D200F009F80120EC
:1031800000E0002028602046B46070BD5800002098
:10319000F8B5194D20E0C068C4680668201D00F02D
:1031A00053F9216A2046884794F82800400713D530
:1031B000A0693044B04206D924616060211DE868EE
:1031C00000F07AF908E000200346014600903246FC
:1031D000204601F01DF838B1E86801680029DAD10D
:1031E0002969C5E90310F8BD502080F31188BFF3A9
:1031F0004F8FBFF36F8FFEE75800002008484068EC
:10320000401C4FF0500080F3118804D0BFF34F8F63
:10321000BFF36F8FFEE7BFF34F8FBFF36F8FFEE7F4
:1032200090000020074CE068016841B1C0680021AF
:10323000D0F80000FFF728FFFFF7A8FEF3E7012111
:103240000020F7E7580000202DE9F041044600F087
:1032500057F994F9455004F1240609E0606A48B131
:10326000304600F00BFF08B100F050FA6D1E6DB251
:10327000002DF3DC4FF0FF3684F8456000F060F974
:1032800000F03EF994F9445004F1100709E0206978
:1032900048B1384600F0F2FE08B100F037FA6D1E72
:1032A0006DB2002DF3DC84F84460BDE8F04100F01D
:1032B00047B900002DE9F0410546002700F0A4FAC7
:1032C000324E306808B9FFF751FD706905424ED1A2
:1032D000C5B3083568070ED005F00700C0F1080037
:1032E0000544680707D0502080F31188BFF34F8F43
:1032F000BFF36F8FFEE72DB37068854237D8234840
:10330000183001460C6801E020460C466168A9426D
:1033100002D221680029F7D131688C4227D0076892
:103320002168016060680837411B10290FD96019B6
:10333000420708D0502080F31188BFF34F8FBFF3AE
:103340006F8FFEE713E041606560FFF7CFFD6168B6
:103350007068401A7060B268904200D2B0607069C4
:1033600001430020C4E90001F068401CF06000F057
:10337000BDFE780707D0502080F31188BFF34F8F30
:10338000BFF36F8FFEE73846BDE8F0817000002084
:1033900010B5031F4FF080741C601B1F21F001014A
:1033A0001960191F024B0B60143940380A6010BDB8
:1033B000FD310008FF2000F029B870B50E46054623
:1033C000002404E0305D00F021F8641CE4B2AC425B
:1033D000F8D370BD2DE9F0411D4690460E460746D4
:1033E000002404E0385D00F011F8641CE4B2B4423B
:1033F000F8D3002406E0FF2000F008F808F80400E5
:10340000641CE4B2AC42F6D3BDE8F08101B582B0F1
:10341000FF208DF8040064200090012301AA02A976
:103420000848FEF769FA48B106480168CA68896821
:103430000091012180F85110FF200EBD9DF804007D
:103440000EBD0000C4000020D0E9013201699A607D
:10345000D0E901235A604A68824201D182684A60F9
:10346000002202610868401E08600868704700007A
:10347000034B036003F15C0008608020106070471C
:10348000DC120020044B036003F15C0008604FF481
:1034900080701060704700003815002000F10801AE
:1034A0004FF0FF32C0E90112C160016100210160EB
:1034B000704700210161704730B50B685A1C02D07B
:1034C00000F1080202E0026904E02246546825681F
:1034D0009D42FAD953684B6099608A6051600861D7
:1034E0000168491C016030BD42684A6093688B6086
:1034F00093685960916008610168491C01607047D8
:10350000502080F31188BFF34F8FBFF36F8F0A49AC
:103510004868401C486001280CD10848006810F039
:10352000FF0F07D0502080F31188BFF34F8FBFF3F8
:103530006F8FFEE7704700009000002004ED00E070
:103540000849486828B1401E486001D180F31188BD
:103550007047502080F31188BFF34F8FBFF36F8FF8
:10356000FEE700009000002070B500282AD0164D1C
:10357000A0F1080460686969084207D1502080F30F
:103580001188BFF34F8FBFF36F8FFEE722683AB108
:10359000502080F31188BFF34F8FBFF36F8FFEE78A
:1035A0008843606000F030F96068696808446860CA
:1035B0002046FFF79BFC2869401C2861BDE870404D
:1035C00000F094BD70BD0000700000204FF0E020BE
:1035D00000210161816105494FF47A720968B1FBEC
:1035E000F2F1491E4161072101617047140000207A
:1035F00010B5FCF715FE114910280ED300F1E0209C
:1036000090F8F0030A78904207D2502080F3118896
:10361000BFF34F8FBFF36F8FFEE7094800688968DB
:1036200000F4E060884207D9502080F31188BFF38E
:103630004F8FBFF36F8FFEE710BD0000900000209A
:103640000CED00E010B5084B002200BF53F83240EB
:103650001CB1521C082AF9D310BD43F8321003EBF9
:10366000C201486010BD0000C00C002070B51546B6
:103670000E460446FFF744FF94F944100020491C0D
:1036800001D184F8440094F94510491C01D184F813
:103690004500FFF755FFA06B28B92A46314604F1D3
:1036A000240000F051F82046BDE87040FFF7CCBD83
:1036B00010B5020014D00F48006B38B1502080F3D1
:1036C0001188BFF34F8FBFF36F8FFEE700F09CF8B8
:1036D00000211046FFF724FA00F008FD002807D16A
:1036E00005494FF080500860BFF34F8FBFF36F8FD5
:1036F00010BD00001C00002004ED00E002490A6A31
:103700000260C968416070471C0000200149012027
:10371000C86170471C00002010B50C4650B1094923
:1037200009681831FFF7C8FE2046BDE810400121A6
:10373000FFF7F6B9502080F31188BFF34F8FBFF326
:103740006F8FFEE71C00002070B514460D4668B16F
:103750000A4909681831FFF7C7FE0CB14FF0FF3571
:1037600021462846BDE87040FFF7DAB9502080F3C3
:103770001188BFF34F8FBFF36F8FFEE71C0000204F
:1037800030B587B00024039405AA04A903A80494C3
:10379000FFF76EFEDDE903010094CDE9011000237F
:1037A00015A11748059A00F086FB164D0028E8621F
:1037B0001FD000F0FDFC012809D0401C19D1502079
:1037C00080F31188BFF34F8FBFF36F8FFEE7502058
:1037D00080F31188BFF34F8FBFF36F8F4FF0FF302F
:1037E000A86201206861EC6007B0BDE8304000F0DD
:1037F0006DB807B030BD000049444C4500000000E2
:10380000B92D00081C0000200248016B491C01630F
:10381000704700001C000020164810B5016B11B164
:103820000121C16110BD0021C1610169124A01E09D
:10383000B9B1491E01EB810352F82330002BF7D0B8
:1038400001EB810302EB830202F1080453685B6819
:103850005360A34201D15B685360DA680260016182
:1038600010BD502080F31188BFF34F8FBFF36F8FCF
:10387000FEE700001C000020000D002070B505468A
:10388000002409E00A20FFF74BF8FF20FFF792FD24
:103890000A20FFF73DF8641CAC42F3DB70BD70B545
:1038A000054600244FF496760CE00A20FFF738F81E
:1038B0003046FFF73DF80A20FFF72AF80A20FFF705
:1038C00037F8641CAC42F0DB70BD00001CB5264923
:1038D00008780190FF20087008788DF800009DF8A6
:1038E00000009DF8002000F0F000904207D050202A
:1038F00080F31188BFF34F8FBFF36F8FFEE79DF802
:1039000000001A4C00F0500020700720A06005E075
:103910009DF8002052008DF80020401E9DF80020E8
:103920001206F5D4A060032807D0502080F3118838
:10393000BFF34F8FBFF36F8FFEE74FF44070A0606F
:10394000019808700A48016841F47001016001683B
:1039500041F070410160FFF739FE00206060FCF724
:1039600029FC00201CBD000000E400E090000020C5
:1039700020ED00E010B5502080F31188BFF34F8F89
:10398000BFF36F8F00F0D6FA18B104494FF08050A2
:103990000860002080F3118810BD000004ED00E0F5
:1039A00038B5049D18B153B1CAB181B120E050209F
:1039B00080F31188BFF34F8FBFF36F8FFEE7502066
:1039C00080F31188BFF34F8FBFF36F8FFEE7502056
:1039D00080F31188BFF34F8FBFF36F8FFEE739B1CC
:1039E000502080F31188BFF34F8FBFF36F8FFEE736
:1039F00050241C46012384F846302B460094FFF7E0
:103A00000BFA204638BD000070B50D46040025D0E5
:103A1000FFF776FDD4E90F20216802FB0011A160B9
:103A20000021A163216861600A46D4E90F01401EAC
:103A300000FB0121E16021464FF0FF3001F8440F07
:103A4000487004F110008DB1FFF728FD04F1240047
:103A5000FFF724FDFFF774FD012070BD502080F3B7
:103A60001188BFF34F8FBFF36F8FFEE721690029E5
:103A7000F0D000F003FB0028ECD004494FF0805058
:103A80000860BFF34F8FBFF36F8FE3E704ED00E0F3
:103A90002DE9FF4782B01D468A464FF0000804001A
:103AA00003D0BAF1000F08D011E0502080F3118844
:103AB000BFF34F8FBFF36F8FFEE7206C38B15020FC
:103AC00080F31188BFF34F8FBFF36F8FFEE7022D96
:103AD0000AD1E06B012807D0502080F31188BFF392
:103AE0004F8FBFF36F8FFEE700F010FA3F4F4FF09C
:103AF00000094FF0805648B9049838B1502080F33F
:103B00001188BFF34F8FBFF36F8FFEE7FFF7F8FC0D
:103B1000A06BE16B884207D3022D05D00498D0B189
:103B2000B8F1000F1AD01EE02A4651462046FFF792
:103B3000CCF8616A19B104F1240000F09FFA20B1B9
:103B40003E60BFF34F8FBFF36F8FFFF7F9FC01208B
:103B500006B0BDE8F087FFF7F3FC22E06846FFF708
:103B6000CDFD4FF00108FFF7EBFCFFF74DFEFFF72F
:103B7000C7FC94F94400401C01D184F8449094F9A6
:103B80004500401C01D184F84590FFF7D9FC04A9F9
:103B9000684600F029F930B12046FFF755FB00F0E8
:103BA000A5FA0020D4E7FFF7ABFCA06BE16B8842DD
:103BB00013D1FFF7C5FC04F110000499FFF7ACFD29
:103BC0002046FFF741FB00F091FA00289ED13E60AD
:103BD000BFF34F8FBFF36F8F98E7FFF7B1FC20461D
:103BE000FFF732FB00F082FA90E7000004ED00E0FE
:103BF0002DE9F0471F4690468946040003D0B9F1ED
:103C0000000F08D011E0502080F31188BFF34F8FD0
:103C1000BFF36F8FFEE7206C38B1502080F311881E
:103C2000BFF34F8FBFF36F8FFEE7022F0AD1E06B18
:103C3000012807D0502080F31188BFF34F8FBFF3C6
:103C40006F8FFEE7FFF7D4FC5020EFF3118680F36F
:103C50001188BFF34F8FBFF36F8FA06BE16B88426A
:103C600006D3022F04D0002086F31188BDE8F08728
:103C700094F94550A06B3A4649462046FFF725F88F
:103C8000681C04D06D1C84F845500120ECE7606A84
:103C90000028FAD004F1240000F0F0F90028F4D054
:103CA000B8F1000FF1D00121C8F80010EDE70000D5
:103CB0002DE9F747002683B08A46040003D0BAF105
:103CC000000F08D011E0502080F31188BFF34F8F10
:103CD000BFF36F8FFEE7206C38B1502080F311885E
:103CE000BFF34F8FBFF36F8FFEE700F00FF9DFF8E0
:103CF000F4804FF000094FF0805748B9059838B16B
:103D0000502080F31188BFF34F8FBFF36F8FFEE712
:103D1000FFF7F6FBA56BC5B151462046FEF7C2FF83
:103D20006D1EA563206950B104F1100000F0A6F9E2
:103D300028B1C8F80070BFF34F8FBFF36F8FFFF744
:103D4000FFFB012006B0BDE8F087059808B11EB161
:103D500006E0FFF7F5FB27E06846FFF7CFFC0126FA
:103D6000FFF7EEFBFFF750FDFFF7CAFB94F94400A5
:103D7000401C01D184F8449094F94500401C01D1C5
:103D800084F84590FFF7DCFB05A9684600F02CF8A5
:103D9000002820460AD0FFF757FA00F0A7F920467E
:103DA000FFF7E6F80028B3D00020CBE7FFF7E0F8F4
:103DB00090B104F124000599FFF7AEFC2046FFF70F
:103DC00043FA00F093F90028A2D1C8F80070BFF3BD
:103DD0004F8FBFF36F8F9BE72046FFF735FA00F058
:103DE00085F995E704ED00E02DE9F0410C4605006A
:103DF00011D0C4B1FFF784FB174BDA686E682068F6
:103E0000911B471C17D02F681B6A9F4219D09642FE
:103E100017D8012410E0502080F31188BFF34F8F92
:103E2000BFF36F8FFEE7502080F31188BFF34F8FF1
:103E3000BFF36F8FFEE70024FFF782FB2046BDE84B
:103E4000F081884205D9401A20602846FFF756FCC9
:103E5000F1E700202060DCE71C0000202DE9FF5F77
:103E60008346DDE90E87994616468A469000FFF79D
:103E700021FA05001CD05C20FFF71CFA040014D0C6
:103E80000020256384F85900CDE90240CDE9008780
:103E90004B46324651465846FEF7D0FF2046FEF7C5
:103EA0006DFE012004B0BDE8F09F2846FFF75CFBE3
:103EB0004FF0FF30F6E7F0B585B0DDE90B640A9D01
:103EC000A6B1DCB15C2700972663022684F859600E
:103ED000002604AFCDE90246CDE90057FEF7AEFF5C
:103EE0002046FEF74BFE049805B0F0BD502080F34D
:103EF0001188BFF34F8FBFF36F8FFEE7502080F321
:103F00001188BFF34F8FBFF36F8FFEE705484169FC
:103F100019B1006B18B100207047012070470220D2
:103F2000704700001C0000200148C0687047000076
:103F30001C0000202DE9F0412E4C0027206B28B1F9
:103F4000A069401CA0613846BDE8F081E668761C97
:103F5000E66013D1606B006838B1502080F311889F
:103F6000BFF34F8FBFF36F8FFEE7606BA16B616391
:103F7000A063206A401C2062FFF7E6F8A06ADFF821
:103F80007880864209D3606B0068A0B1606BC0681E
:103F9000C5686868864211D2A0622068C06A00EBDA
:103FA000800158F82100012800D90127E069002884
:103FB000C9D00127C7E74FF0FF30EDE7281DFFF715
:103FC00043FAA86A18B105F11800FFF73DFAE86A4C
:103FD0002169884200D9206100EB800108EB810053
:103FE000291DFFF781FAE86A2168C96A8842CAD3A5
:103FF0000127C8E71C000020000D002070B5040058
:104000004FF0000133D01B4D2868844207D0502068
:1040100080F31188BFF34F8FBFF36F8FFEE7206DE2
:1040200038B1401E2065E36CE26A9A421FD040B16D
:104030001DE0502080F31188BFF34F8FBFF36F8FC7
:10404000FEE7201DFFF700FAE06CE062C0F13800E7
:10405000A061E06A2969884200D92861064900EB1D
:10406000800001EB8000211DFFF73EFA0121084688
:1040700070BD00001C000020000D002070B5C0685D
:10408000C46854B104F118000646FFF7DDF9144D79
:10409000286B50B13146134815E0502080F3118849
:1040A000BFF34F8FBFF36F8FFEE7201DFFF7CCF9F3
:1040B000E06A2969884200D928610B4900EB800039
:1040C00001EB8000211DFFF70FFAE06A2968C96A39
:1040D000884202D90120E86170BD002070BD000057
:1040E0001C00002088110020000D00202DE9F04761
:1040F0002C4D00242746286B38B1FFF701FA286BB6
:10410000401E2863286B40B146E0502080F31188A0
:10411000BFF34F8FBFF36F8FFEE7A968224E0120D8
:10412000D1B3A6F5916980463068E0B1F068C46803
:1041300004F11800FFF788F9201DFFF785F9E06A00
:104140002969884200D9286100EB800109EB8100D0
:10415000211DFFF7C9F9E06A2968C96A8842E3D3DB
:10416000C5F81C80E0E70CB1FEF7EEFFAC694CB17E
:104170004FEA0806FFF7DEFE00B1EE61641EF9D1DA
:104180000020A861E86938B10849012738070860AC
:10419000BFF34F8FBFF36F8FFFF7D2F93846BDE8FB
:1041A000F08700001C0000208811002004ED00E0D2
:1041B00010B586B0FEF74AFD114C2068B8B100205A
:1041C0000390049005AA04A903A8FFF75BF9DDE9B1
:1041D000032102208DE8070000230AA10B48059A5D
:1041E000FFF769FE606010B106B0012010BD5020DD
:1041F00080F31188BFF34F8FBFF36F8FFEE700008E
:1042000058000020546D7220537663002532000858
:104210002DE9FF411E46134602000A9D4FF00000A3
:1042200016D0144C2768002F0FD0CDE9001302924E
:10423000062917DAFFF76AFE02284FF000030FD0B5
:10424000002269462068FFF723FC04B0BDE8F08136
:10425000502080F31188BFF34F8FBFF36F8FFEE7BD
:104260002A46EEE70023324669463846FFF7C0FC8F
:10427000EBE7000058000020491058BFC1F1404151
:104280005B1058BFC3F140438B42EFF3008070478F
:1042900051EA030C17D41CF5801F58BFBCF5801FD2
:1042A00000F10680994218BF704708BF90427047DE
:1042B00007D711F5801F58BF13F5801F19D49942F5
:1042C0007047894270471CF5801F08D5BCF5801FD8
:1042D000F7D58B4218BF704708BF824270474FF432
:1042E000001C1CEB410F38BF1CEB430F01D28B426B
:1042F000704770B500F008F8922449004FF0005163
:104300004FF08053FFF7B8BF0EF1020E2EF0030EF0
:104310005EF8046B364205D4012A43EB030515F51C
:10432000001F12D8012841EB010C1CF5001F0CD80E
:104330000ED14FEAD17C15F5001F0CEB4C0C0CF1A3
:10434000020C08BF4CEBD37C04E04FF0080C01E0FA
:104350004FEAD37C0CEB4C0526FA05F606F007066F
:10436000B6F1040C06D20EEB860CBDE870404CF0A2
:10437000010C6047DFE80CF0090B02024FF000412E
:104380004FF00000A1F5002170BD1946104601282C
:1043900051EB010418BFD4F5001484BF002001F0D4
:1043A000004170BD18460008000000000000000039
:1043B00000000000000000000008000018000000DD
:1043C000000000000000000024460008000000007B
:1043D00000000000000000000000000000020000DB
:1043E00019000000000000000000000001020203AC
:1043F0000405060708090A0B0C0D0E0F101000002B
:104400000000000000000102030406070809000084
:10441000000001020304000099C5ABCE320BCFD8D7
:10442000561D6416FDD307F49E31AC3A35FFC82CF7
:1044300051E963E2FA2797AD0E683C63A5A658756B
:10444000C1B0F3BB6A7E9059099C3B97A2525F8131
:10445000C644F44F6D8A2E5BB79E85951C50E18350
:1044600078464A4DD38829AFB06A82611BA4E677AB
:104470007FB24DB9D47CB9F6203312388BFD762E3D
:10448000EFEBDDE04425BE0227C715CC8C0971DABD
:10449000E81FDA1443D1C5F35C366E3DF7F80A2BFA
:1044A00093EEA1E53820C2075BC269C9F00C0DDFAD
:1044B000941AA6113FD4525ECB9BF99060559D860D
:1044C00004433648AF8D55AACC6FFE6467A19A723B
:1044D00003B731BCA879EBA8726D4066D9A32470EC
:1044E000BDB58FBE167BEC5C75994792DE57238471
:1044F000BA41884A118F7C05E5C0D7CB4E0EB3DD9B
:104500002A18181381D67BF1E234D03F49FAB42936
:104510002DEC1FE7862213A28A67B86C21A9DC7AEA
:1045200045BF77B4EE7114568D93BF98265DDB8E30
:10453000424B7040E985840F1DCA2FC1B6044BD78A
:10454000D212E01979DC83FB1A3E2835B1F04C23F6
:10455000D5E6E7ED7E283DF9A43C96370FF2F2212F
:104560006BE459EFC02A3A0DA3C891C30806F5D5EC
:104570006C105E1BC7DEAA543391019A985F658C5C
:10458000FC49CE425787ADA03465066E9FAB62787A
:10459000FBBDC9B65073D6514F947D9FE45A19891B
:1045A000804CB2472B82D1A548607A6BE3AE1E7D6A
:1045B00087B8B5B32C7641FCD839EA3273F78E242C
:1045C00017E125EABC2F4608DFCDEDC6740389D07C
:1045D0001015221EBBDBF80A61CF53C4CA0137D2C3
:1045E000AE179C1C05D9FFFE663B5430CDF5302636
:1045F000A9E39BE8022D6FA7F662C4695DACA07FBA
:1046000039BA0BB192746853F196C39D5A58A78B6F
:104610003E4E0C459580000052544F535461736BCD
:10462000310000006D795461736B3032000000007E
:1046300050460008000000209C00000028010008EF
:10464000EC4600089C0000205C3F0000440100088C
:104650000000000000000000010000001000000049
:104660000000000000127A000000000000000000BE
:10467000000000000000000000000000000000003A
:10468000000000000000000000000000000000002A
:10469000000000000000000000000000000000001A
:1046A000000000000000000000000000000000000A
:1046B00000000000000000000000000000000000FA
:1046C00000000000000000000000000000000000EA
:1046D00000000000000000000000000000000000DA
:0C46E00000000000AAAAAAAA0000000026
:04000005080000ED02
:00000001FF
