:020000040800F2
:100000000040002029020008E52A000865220008B7
:100010004D2A0008650D0008512E00080000000060
:100020000000000000000000000000009101000836
:10003000810D000800000000D5010008812C000897
:10004000430200084302000843020008430200087C
:10005000430200084302000843020008430200086C
:10006000430200084302000843020008430200085C
:10007000430200084302000843020008430200084C
:10008000430200084302000843020008392E00081A
:10009000452E0008690D0008750D00084302000890
:1000A00043020008FD2C0008430200084302000838
:1000B000430200084302000843020008430200080C
:1000C00043020008430200084302000843020008FC
:1000D00043020008430200084302000843020008EC
:1000E00043020008430200084302000800F002F83F
:1000F00000F03EF80AA090E8000C82448344AAF184
:100100000107DA4501D100F033F8AFF2090EBAE881
:100110000F0013F0010F18BFFB1A43F0010318473B
:10012000A4520000C4520000103A24BF78C878C11D
:10013000FAD8520724BF30C830C144BF04680C60ED
:10014000704700000023002400250026103A28BF35
:1001500078C1FBD8520728BF30C148BF0B60704739
:100160001FB59DE8030000F069F91FBD10B510BD73
:1001700000F014FA1146FFF7F3FF02F0EBFE00F077
:1001800032FA03B4FFF7F2FF03BC00F063FA000099
:10019000224B19680868B0E8F00F80F30988BFF3B4
:1001A0006F8F4FF0000080F311884EF00D0E7047F6
:1001B0000000000006480068006880F3088862B606
:1001C00061B6BFF34F8FBFF36F8F00DF00BF00BF7B
:1001D00008ED00E0EFF30980BFF36F8F0F4B1A6853
:1001E00020E9F00F106008B54FF0500080F311883F
:1001F000BFF34F8FBFF36F8F03F0A6FF4FF00000E8
:1002000080F31188BDE8084019680868B0E8F00F6D
:1002100080F30988BFF36F8F704700BF2400002070
:10022000EFF3058070470000094880470948004700
:10023000FEE7FEE7FEE7FEE7FEE7FEE7FEE7FEE796
:10024000FEE7FEE704480549054A064B70470000F3
:10025000F92C0008ED000008003A002000400020C2
:10026000003C0020003C002070B5064600F0CAF8B3
:10027000056806F10B0020F00704B4429CBF002083
:1002800070BD2B466A68BAB11068A04210D304F161
:10029000080188423CBF5068586007D35168101964
:1002A00041601168091B016058601460101D70BD29
:1002B00013465268002AE7D12146284600F0AAF8E2
:1002C0000028DED170BD70B50446051F00F09AF815
:1002D0000068002C14BF446870BD002C18BFAC42ED
:1002E0003CBF20466468F8D301680A18AA4218BFC8
:1002F000456003D12A680546114401602868411908
:10030000A1421CBF6C6070BD6168696021680844CF
:10031000286070BD032A40F2308010F0030C00F01A
:10032000158011F8013BBCF1020F624498BF11F82F
:1003300001CB00F8013B38BF11F8013BA2F10402E8
:1003400098BF00F801CB38BF00F8013B11F0030360
:1003500000F0AA80083AC0F0088051F8043B083A3F
:1003600051F804CBA0E80810F5E7121D5CBF51F866
:10037000043B40F8043BAFF30080D20724BF11F8E0
:10038000013B11F801CB48BF11F8012B24BF00F845
:10039000013B00F801CB48BF00F8012B704702F089
:1003A000FF0343EA032242EA024200F0B1B84FF0F1
:1003B000000200B5134694469646203922BFA0E8B5
:1003C0000C50A0E80C50B1F12001BFF4F7AF0907C1
:1003D00028BFA0E80C5048BF0CC05DF804EB8900B2
:1003E00028BF40F8042B08BF704748BF20F8022BF5
:1003F00011F0804F18BF00F8012B7047704770470D
:100400007047000000487047A439002070477047CB
:100410007047704738B504460A4600206946AFF376
:100420000080002808BF38BD02460099204600F031
:1004300093F8012038BD012000F0A8B8F8B5AFF35B
:100440000080054600200C46102000BF0646A81973
:10045000A0420DD9324669460020AFF30080070064
:1004600008BF00F093F80098A04218BF0546C419D1
:10047000FFF7C8FF05600746F01D20F0070046198A
:10048000284600F00AF8B44208BFF8BDA21B314666
:100490003868BDE8F84000F05FB800210160C0E9AD
:1004A000011070471020704710B5203AC0F00B8043
:1004B000B1E81850203AA0E81850B1E81850A0E868
:1004C0001850BFF4F5AF5FEA027C24BFB1E81850C2
:1004D000A0E8185044BF18C918C0BDE810405FEA32
:1004E000827C24BF51F8043B40F8043B08BF7047AE
:1004F000D20728BF31F8023B48BF11F8012B28BFB3
:1005000020F8023B48BF00F8012B70474FF0000273
:100510000429C0F0128010F0030C3FF44AAFCCF174
:10052000040CBCF1020F18BF00F8012BA8BF20F883
:10053000022BA1EB0C01FFF73CBF5FEAC17C24BF9B
:1005400000F8012B00F8012B48BF00F8012B704781
:10055000004870479C390020034640688C460028BC
:1005600018BF88423CBF03464068F8D31868184457
:10057000884207D00CF1030020F00700001D411A4B
:10058000521A0146081D0A60FFF79DBE10B500F023
:1005900039F8BDE8104000F02FB870477546FFF7F6
:1005A000D7FFAE4605006946534620F00700854652
:1005B00018B020B5FFF746FEBDE820404FF000061A
:1005C0004FF000074FF000084FF0000B21F007013B
:1005D000AC46ACE8C009ACE8C009ACE8C009ACE87E
:1005E000C0098D46704710B50446AFF30080204621
:1005F000BDE81040FFF7C5BD002801D000F02AB8C3
:100600007047000010B5012805D0002103A000F0BC
:1006100027F8012010BD09A1F8E70000534947520F
:10062000544D454D3A204F7574206F6620686561C2
:1006300070206D656D6F7279000000003A2048658A
:100640006170206D656D6F727920636F7272757065
:100650007465640001491820ABBEFEE72600020065
:1006600070B505460C460A2000E06D1C00F011F83C
:1006700035B128780028F8D102E0641C00F009F8B0
:1006800014B120780028F8D1BDE870400A20AFF3FB
:10069000008008B569468DF800000320ABBE08BD98
:1006A00070B50D460646002410E0062003F07EFDDE
:1006B00000231A463146022001F05EFE142000F0AD
:1006C000B1F808B1012070BD641CE4B2AC42ECD3B7
:1006D000002070BD002205E0835C0BB10120704753
:1006E000521C92B28A42F7D3002070470022134670
:1006F00004E000BF20F81230521C92B28A42F9D3B3
:100700007047000070B50446002500F057F800F06F
:10071000B9F840B1002108466054491C89B27229D9
:10072000FAD3012070BD0D48002202EB8213002194
:1007300000EB83035E18491C96F8E86066556D1C53
:10074000C9B2ADB21329F5D3521CD2B2062AECD3EA
:100750002046BDE870407221FFF7BCBF0C020020AC
:1007600070B50446002500F029F800F0ABF940B15F
:10077000002108466054491C89B23629FAD3012069
:1007800070BD0D48002202EB8213002100EB8303B1
:100790005E18491C96F8FB6066556D1CC9B2ADB277
:1007A0000929F5D3521CD2B2062AECD32046BDE863
:1007B00070403621FFF78EBF0C02002010B5114C9F
:1007C000207800281CD11049062001F0F3FD0E49C5
:1007D000062001F0D9FD0C49062001F0D7FD0A4999
:1007E00000204FF6FF7200BF00EB801301EB830384
:1007F000401CC0B2C3F8E4200628F5D301202070C5
:1008000010BD0000200000200C02002008B10122D1
:1008100000E000224FF40051014800F0ABBE0000A0
:100820000010014038B5054607208DF8000014205F
:100830008DF801006946022002F02AFD010A8DF8B8
:1008400002108DF803000A2002F06AFB69460420BA
:1008500003F091F902F03EFB4FEA000402F03AFB8C
:10086000001BA84204D90A2002F052FB012038BD27
:10087000FF2003F07DF90028F0D00A2002F048FBA9
:10088000002038BD2DE9F04F8C4C85B000254FF687
:10089000FF7700BF05EB851004EB800606F1E8004A
:1008A0001321FFF784FD6D1CEDB2C6F8E470062D30
:1008B000F0D3062003F08BFC01F064FD052101203C
:1008C000FFF7EEFE20BB062003F070FC7B4A0621FA
:1008D000002001F08CFD7A4D002101EBC10205EBF7
:1008E000820301EB8112002004EB820202EB40063E
:1008F000F68B23F81060401CC0B21228F6D3491CB6
:10090000C9B20629E9D305210020FFF7C9FE18B1B5
:10091000012005B0BDE8F08F062003F047FC674AD0
:100920000621002001F063FD654A0021D83201EB69
:10093000C10302EB830601EB8113002004EB830368
:1009400003EB4007FF8B26F81070401CC0B2122842
:10095000F6D3491CC9B20629E9D30026AE46934610
:100960006B46A24606EB86140AEB84094FF6FF722B
:1009700006EBC6070020C9F8E42001460EEB870508
:100980000BEB870235F8118032F811C0C44530D224
:10099000A8EB0C0C1FFA8CFCBCF57A6F29D901F17D
:1009A000010C03F800C0401C40B24FFA81FC10E07B
:1009B00005EB4C08B8F80480B8F1000F05D10CF134
:1009C000020803F80080401C40B20CF1010C4FFA01
:1009D0008CFCBCF10F0FEBDB0E290AD1B2F81EC064
:1009E000BCF1000F05D14FF0100C03F800C0401C03
:1009F00040B2491CC9B21229C4D33BF8271019B917
:100A000000211954401C40B2518C19B912211954BB
:100A1000401C40B2118C19B911211954401C40B22C
:100A2000002218E0511C49B20D4611E09C565F5659
:100A3000BC420BD10C4604E01F197F781F55641C83
:100A400064B28442F8DB401E40B201E0491C49B266
:100A50008142EBDB2A468242E4DB0022411E4DB29A
:100A60000FE003EB010C5C569CF90170BC4202DD07
:100A70005F548CF80140491C49B2A942F1DB521C79
:100A800052B282424FF00001F7DB012407E05A56D0
:100A9000132A02D24A4482F8E840491C49B28142F2
:100AA000F5DB002803DD9DF90010C9F8E410761C81
:100AB000F6B2062EFFF456AF00202AE70C02002003
:100AC000240800202DE9F0470020674C02464FF62D
:100AD000FF7500BF00EB801104EB8101401C41F861
:100AE000FB2FC0B24A600A7241F8175C0628F1D3A6
:100AF000062003F06CFB01F043FC0026062003F007
:100B000055FB0021022001F033FC1420FFF78AFE80
:100B1000D0BB761CF6B2032EF0D3062003F046FBC2
:100B2000514A0621002001F060FC00210846DFF850
:100B30003C8103E0002001E009280CD201EB811286
:100B400004EB820202EB4002B2F8483001EB810272
:100B500008EB820200E0002322F81030401CC0B2F3
:100B60000A28E9D3491CC9B20629E3D301F008FCDD
:100B70000026062003F01AFB0021022001F0FEFBF4
:100B80001420FFF74FFE10B10120BDE8F087761C5E
:100B9000F6B2032EEDD3062003F008FB324A0621FD
:100BA000002001F022FC0021304A0846783203E0A0
:100BB000002001E009280CD201EB811304EB830330
:100BC00003EB4003B3F8486001EB810302EB8303BE
:100BD00000E0002623F81060401CC0B20A28E9D3C8
:100BE000491CC9B20629E3D30021A9464FF0010AE6
:100BF00001EB811304EB830301EB810508EB850610
:100C0000002002EB8505C3F8E49000BF35F810C062
:100C100036F81070BC4503D9ACEB0707BFB200E053
:100C20000027052809D2962F13D9471C03EB000C87
:100C3000C3F8E4708CF8FBA00BE00AD9962F08D912
:100C4000471EFFB2C3F8E400092F02D21F4487F801
:100C5000FBA0401CC0B20A28D8D3491CC9B206293F
:100C6000C6D3002091E700000C020020D409002028
:100C70002DE9F04105460024FFF7A0FD062003F012
:100C8000A6FA00221146022001F074FB1420FFF79F
:100C9000C9FD20B16C212846FFF728FD1FE0062082
:100CA00003F084FA0F4A0621002001F0A0FB0D4B4F
:100CB000002202EB8216002103EB860606EB4107B9
:100CC000491CFF8B25F81470641CC9B2A4B2122908
:100CD000F4D3521CD2B2062AEBD3002800D0012054
:100CE000BDE8F0810C0200202DE9F041054600240A
:100CF000FFF764FD062003F06AFA0021022001F0EC
:100D000037FB1420FFF78EFD20B136212846FFF770
:100D1000EDFC21E0062003F049FA114A06210020EB
:100D200001F063FB0E4B002202EB8216002103EB65
:100D3000860600BF06EB4107491CB7F8487025F846
:100D40001470641CC9B2A4B20929F3D3521CD2B2E4
:100D5000062AE9D3002800D00120BDE8F081000078
:100D60000C020020FEE70000014800F0F6B8000089
:100D7000A4000020014800F0F0B80000A40000200A
:100D8000704772B6FEE7704790F82020012A07D01E
:100D9000022A05D0416A41F4802141620120704756
:100DA000006842690A43426100207047F0B590F83C
:100DB00020500468A468012D05D0022D03D0416A9B
:100DC00041F480214DE014F0406F01D1E50045D59C
:100DD000C4F301640125A5401D608D684FF4C07304
:100DE0009DB1CE6835434E6845EAC605066803EBFB
:100DF0000417F5514FF4C275076805EB04150E6929
:100E00007E51097D012905D009E00E88CD6845EAAB
:100E10004655EBE701684E5946F480764E511179FC
:100E2000D2F805504FF4C67641EA0521056806EB75
:100E30000416A9511178D2F801204FF4C47541EA83
:100E40000221026805EB04155151006803EB0411FF
:100E5000425842F0010242500020F0BD416A41F484
:100E6000001141620120F0BD10B590F820300268F9
:100E7000012B07D0022B05D0416A41F48021416249
:100E8000012010BDD2F8000240F00100C2F80002BB
:100E9000087D00F01F0301209840D2F81C328343E4
:100EA000C2F81C32CB69B3B9D2F80C328343C2F812
:100EB0000C328C894B6864F31F434C6902EBC40409
:100EC000C4F840320C890B6864F31F434C6902EB91
:100ED000C404C4F84432CB69012B16D1D2F80C32C9
:100EE0000343C2F80C320C884B6864F31F434C690F
:100EF00002EBC404C4F840320C89CB6864F31F438E
:100F00004C6902EBC404C4F844328B69002BD2F85C
:100F100004320FD053EA0003C2F804320B69002BED
:100F2000D2F8143208D00343C2F81432096A0129F6
:100F300004D008E08343EFE78343F5E7D2F81C12BF
:100F40000143C2F81C12D2F8000220F00100C2F8DE
:100F50000002002010BD01F0BBBD2DE9F05F054689
:100F6000006800244669D0F804908768D0F80CB077
:100F7000D0F810A0D0F81880F10748D0F90714D0A5
:100F800001218160B80703D5284600F0FAF90CE08A
:100F9000780702D54FF4006407E0380702D54FF414
:100FA000805402E0284600F0EBF9F80516D52968D0
:100FB0004FF480708860B80503D5284600F0E4F946
:100FC0000CE0780502D544F4005407E0380502D55A
:100FD00044F4804402E0284600F0D5F9F80316D521
:100FE00029684FF480308860B80303D5284600F0A4
:100FF000CEF90CE0780302D544F4004407E038034E
:1010000002D544F4803402E0284600F0BFF93007EE
:1010100007D55FEACB6004D52968102044F400743A
:10102000C86070074FF0080707D55FEA0B7004D55A
:101030002868C760284600F071F9B00706D528680F
:10104000C068800702D0284600F069F9700607D50D
:101050005FEACA6004D52968102044F480640861FE
:10106000B00607D55FEA0A7004D5286807612846EC
:1010700000F056F9F00606D528680069800702D00E
:10108000284600F04EF9B00308D55FEAC96005D5DF
:10109000296810204860284600F044F9F00307D57D
:1010A0005FEA097004D528684760284600F071F9A6
:1010B000300446D55FEA497040D5F00504D55FEAB3
:1010C000C87001D044F00104B00504D55FEA88700F
:1010D00001D544F00204700504D55FEA487001D5DB
:1010E00044F00404300529D518F0700F26D008F01C
:1010F0007000402815D006DC102809D020280AD01E
:10110000302816D10AE050280ED0602811D10EE008
:1011100044F008040DE044F010040AE044F0200418
:1011200007E044F0400404E044F0800401E044F4AB
:1011300080742868816921F0700181612968042028
:101140004860002C05D0686A204368622846FFF793
:1011500002FFBDE8F09F70B5040003D094F82000B2
:1011600010B104E0012070BD204600F081F8206835
:10117000016841F00101016000F002FA0546052610
:1011800004E000F0FDF9401B0A2811D820684068EF
:10119000C007F6D02068016821F00201016000F06C
:1011A000EFF905460BE000F0EBF9401B0A2806D9E1
:1011B000606A40F40030606284F82060D2E7206802
:1011C00040688007EFD4207E0128206801683DD068
:1011D00021F080010160607E01282068016838D01C
:1011E00021F040010160A07E01282068016833D011
:1011F00021F020010160E07E0128206801682ED0E6
:1012000041F010010160207F01282068016829D089
:1012100021F008010160607F01282068016824D066
:1012200021F004010160D4E902010843D4E9041269
:10123000114308436168491E08432168C8610020C2
:101240006062012084F82000002070BD41F0800120
:10125000C0E741F04001C5E741F02001CAE721F0B5
:101260001001CFE741F00801D4E741F00401D9E7CC
:1012700010B586B0002100910191029103910068A0
:101280002349884242D12348C16941F00071C161BC
:10129000C16901F000710491816941F0040181612B
:1012A00080691D4C00F0040004904FF40060009031
:1012B0006946204600F06EF8A014009002200190CC
:1012C000032003906946204600F064F800220521BF
:1012D000132000F0EDF9132000F0DCF900220521C5
:1012E000142000F0E5F9142000F0D4F900220521C3
:1012F000152000F0DDF9152000F0CCF900220521C1
:10130000162000F0D5F9162000F0C4F906B010BD83
:101310000064004000100240000801407047704720
:10132000704770477047000070B5044690F8200081
:10133000012804D0606A40F40020606218E00220B6
:1013400084F820002068016821F00101016000F0AC
:1013500017F905460EE000BF00F012F9401B0A28FD
:1013600008D9606A40F400306062052084F82000EB
:10137000012070BD20684068C007EDD1606270BD7B
:10138000704701F0A5BB704701F0A2BB704701F0A8
:101390009FBB70472DE9F84FDFF8B8910024A9F101
:1013A000040B23460F2709F1040AABF1040EC9E030
:1013B0000125A5402A40AA427DD1674ED1F804C03C
:1013C000ACEB0608B44532D014DCBCF1030F3AD0C4
:1013D00009DCBCF1000F2AD0BCF1010F1CD0BCF11C
:1013E000020F31D11DE0BCF1110F17D0BCF1120F6B
:1013F0002AD119E0B8F5881F19D006DCB8F5803F6E
:1014000015D0B8F5801F1FD111E0B8F5001F0ED020
:10141000B8F5041F18D10AE0CB6815E0CB681B1D96
:1014200012E0CB6808330FE0CB680C330CE08B681C
:101430002BB1012B4FF0080303D0456104E00423D6
:1014400002E0056100E00023FF2A01D8064601E022
:1014500000F104064FEA840501D9A5F12005D6F86C
:10146000008007FA05FC28EA0C0803FA05F548EAAB
:101470000508C6F800804D68ED0062D5374DAE69AD
:1014800046F00106AE61AD6924F0030605F00105E2
:101490000095334D06EB050CDCF80850A607360F17
:1014A00007FA06F825EA0805DFF8B880404503D1B9
:1014B0004FF0000817E044E0DFF8AC80404502D16F
:1014C0004FF001080FE0DFF8A480404502D14FF053
:1014D000020808E0DFF89880404502D14FF0030889
:1014E00001E04FF0040808FA06F848EA0508CCF8CD
:1014F00008804D68D9F80060ED024D4601D51643CD
:1015000000E096432E604D68DAF80060AD02554663
:1015100001D5164300E096432E604D68DBF800606D
:10152000AD035D4601D5164300E096432E604D683D
:10153000DEF80060ED03754601D5164300E09643E2
:101540002E60641C0D682A46E5407FF431AFBDE88B
:10155000F88F000008040140000011100010024044
:101560000000014000080140000C01400010014053
:10157000001401400AB1016170470904FBE7000053
:101580000148806870470000100000200248816810
:10159000027811448160704710000020074810B5A0
:1015A000016841F010010160032000F0A1F80F2054
:1015B00000F006F800F04AF8002010BD00200240BC
:1015C00030B505461C4887B0816941F400618161EE
:1015D000806906A900F40060009001A800F030F9CD
:1015E00000F05EF91549164AB0FBF1F11548491EA5
:1015F0000260416040F2E7320021C0E903218160CE
:10160000816100F0C3FC040012D10E4800F0ECFC34
:1016100004000DD1192000F03DF8102D07D2002252
:101620002946192000F044F80748056000E001242D
:1016300007B0204630BD00000010024040420F00BD
:10164000002C0140C4010020140000200F4808B500
:10165000816941F001018161816901F0010100911D
:10166000C16941F08051C161C069002200F0805021
:1016700000900F21901E00F01BF80548416821F0F2
:10168000E06141F00071416008BD000000100240BF
:1016900000000140002809DB00F01F0201219140F9
:1016A0004009800000F1E020C0F800117047000000
:1016B000F0B40E4B1B680C46C3F30223C3F10705BD
:1016C000042D00D90425191D072901D2002300E0AB
:1016D000DB1E012606FA05F1491E214099409E4075
:1016E000761E16403143F0BC01F0B3BB0CED00E0B8
:1016F000064900F0070208684FF6FF03184040EA69
:101700000220034A10430860704700000CED00E01F
:101710000000FA052DE9F0470F46050061D0434E61
:10172000306800F00700B84209D2306820F00700A6
:1017300038433060306800F00700B84251D1286863
:101740003B4C810712D5400703D5606840F4E06048
:1017500060602878000703D5606840F460506060DE
:101760006068A96820F0F000084360602878C0072E
:1017700028D06868012810D02168022810D0890775
:1017800000292EDA616821F0030101436160FFF74F
:10179000F7FE804641F288390DE021688903EFE7C2
:1017A0008901EDE7FFF7ECFEA0EB0801494502D9FE
:1017B0000320BDE8F0876068696800F00C00B0EBBA
:1017C000810FEFD1306800F00700B8420BD93068C4
:1017D00020F0070038433060306800F00700B8425E
:1017E00001D00120E5E72878400705D56068E96861
:1017F00020F4E060084360602878000706D5606840
:10180000296920F4605040EAC100606000F058F897
:101810006168084AC1F30311515CC8400649086079
:1018200006480068FFF7CCFE0020C2E70020024017
:10183000001002407E5100081C000020140000200F
:101840000F2202600C4A536803F00303436053689D
:1018500003F0F0038360536803F4E063C3605268ED
:101860004FF4E06303EAD20202610448006800F02A
:10187000070008607047000000100240002002408E
:101880000448054900684968044AC1F30221515CD3
:10189000C84070471C000020001002408E51000814
:1018A0000448054900684968044AC1F3C221515CF3
:1018B000C84070471C000020001002408E510008F4
:1018C0000E4A51680E4801F00C03042B11D0082B6E
:1018D0000FD10C48C1F38343C903C05C0AD55168DA
:1018E000084AC1F34041921E515C054A5043B0FB87
:1018F000F1F070470449484370470000001002406F
:1019000000127A006E51000800093D002DE9F84FE1
:10191000040070D02078C04DC00749D06868C0F37B
:101920008100012807D06868C0F38100022809D12E
:101930006868C00306D52868800339D56068002828
:10194000E7D035E06068B0F5803F0BD010B1B0F55E
:10195000A02F11D0286820F480302860286820F457
:10196000802002E0286840F480302860606890B1F0
:10197000FFF706FE06460AE0286840F4802028604B
:10198000F0E700BFFFF7FCFD801B642873D82868D0
:101990008003F7D50CE0FFF7F3FD064605E000BF36
:1019A000FFF7EEFD801B6428F0D828688003F7D489
:1019B00020789A4E80074FF001094FF0000839D582
:1019C000686810F00C0F07D06868C0F38100022827
:1019D00009D16868C00306D42868800714D5206937
:1019E000012808D110E02069B0B1C6F80090FFF7D7
:1019F000C7FD074605E00AE1FFF7C2FDC01B02284C
:101A0000C4D828688007F7D52868616920F0F800F5
:101A100040EAC10028600DE0C6F80080FFF7B0FD85
:101A2000074604E0FFF7ACFDC01B022823D8286856
:101A30008007F7D4207800072CD57948A169D9B15F
:101A4000C0F80090FFF79CFD074604E0FFF798FD03
:101A5000C01B02280FD8686A8007F7D571484FF479
:101A6000FA510068B0FBF1F0009000BF0098411EF1
:101A70000091FAD20EE080E0C0F80080FFF780FD10
:101A8000074604E0FFF77CFDC01B022875D8686A92
:101A90008007F7D42078400760D5E8690027C000A8
:101AA00008D4E86940F08050E861E869012700F057
:101AB000805000905C480168C90513D401688346D2
:101AC00041F480710160FFF75BFD824606E000BFD4
:101AD000FFF756FDA0EB0A0064284ED8DBF80000A3
:101AE000C005F5D5E06801280AD008B1052813D053
:101AF000286A20F001002862286A20F0040002E031
:101B0000286A40F001002862E06841F2883B98B101
:101B1000FFF736FD82460BE0286A40F00400286299
:101B2000EEE700BFFFF72CFDA0EB0A0159455AD89C
:101B3000286A8007F6D50CE0FFF722FD824605E013
:101B4000FFF71EFDA0EB0A0159454CD8286A800713
:101B5000F6D41FB1E86920F08050E861E06988B3ED
:101B60006968C1F38101022944D00228C6F8608067
:101B700004D0FFF705FD044638E034E0FFF700FD30
:101B8000074604E0FFF7FCFCC01B02282BD828689E
:101B90008001F7D4206AB0F5803F05D16868A1685C
:101BA00020F4003008436860D4E9080108436968FC
:101BB00021F4741108436860C6F86090FFF7E0FCF8
:101BC000044606E025E000BFFFF7DAFC001B022810
:101BD00009D828688001F7D51BE000BFFFF7D0FCCB
:101BE000001B022802D90320BDE8F88F2868800175
:101BF000F4D40EE00128F7D06868226A00F480313E
:101C0000914204D1616A00F47010884201D0012031
:101C1000EAE70020E8E7000000100240000042422E
:101C2000800442421C0000200070004070B5040097
:101C300009D0606A002540B125616561A56294F80C
:101C4000510040B10CE0012070BD6068B0F5827FAA
:101C5000F4D0E561F2E784F85050204600F040F8F7
:101C6000022084F851002068016821F040010160E1
:101C7000A088218900F4827001F404410843A189FD
:101C800001F400610843217C01F002010843217D39
:101C900001F001010843218B01F400710843217F09
:101CA00001F03801084394F8201001F08001084346
:101CB000218D01F40051084321680860A0690421C6
:101CC00001EA1040216848602068C16921F4006180
:101CD000C1616565012084F85100002070BD0000DD
:101CE00030B585B000240094019402940394254DEE
:101CF0000368254802210322AB421AD1836943F4C9
:101D000080538361836903F480530493836943F0B0
:101D10000403836180691D4D00F004000490A0203D
:101D2000CDE90001039269462846FFF733FB4020C6
:101D30001EE0174DAB4222D1C36943F48043C36117
:101D4000C36903F480430493836943F00803836108
:101D50008069104D00F0080004904FF42040CDE958
:101D60000001039269462846FFF714FB4FF48040B8
:101D7000CDE90004694628460294FFF70BFB05B045
:101D800030BD00000030014000100240000801405A
:101D900000380040000C01402DE9FF4F81B01D4686
:101DA000934604464FF001090E9EFFF7E9FB0746F4
:101DB00094F851006168012806D0B1F5827F3CD1CA
:101DC000A168C9BB042838D10298002871D0BBF1A2
:101DD000000FFBD0002DF9D094F8500001282CD032
:101DE0004FF0010A84F850A094F85100042802D062
:101DF000052084F851004FF00008C4F85480C4F85E
:101E000038B0E587A58702992163E586A586C4F8E1
:101E10004080C4F8448020680168490603D4016802
:101E200041F040010160E068B0F5006F606808D0E3
:101E3000F0B3012D49D081E0FFE7022005B0BDE8F5
:101E4000F08F08B1012D39D1206B21680088C8605E
:101E5000206B801C2063E08E401EE0862EE0206810
:101E6000816889070FD5E18E69B1B9F1010F0AD1F7
:101E7000216B0988C160206B801C2063E08E401EAE
:101E8000E0864FF0000920688168C9070CD0E18F17
:101E900051B1C068A16B0880A06B801CA063E08F6B
:101EA000401EE0874FF00109FFF76AFBC01B01E00D
:101EB0000BE067E0B04201D3701C50D1E08E0028E7
:101EC000CDD1E08F0028CAD13EE0206B2168007898
:101ED0000873206B401C2063E08E401EE0862DE0DE
:101EE0002068816889070FD5E18E69B1B9F1010FCA
:101EF0000AD1216B09780173206B401C2063E08EAE
:101F0000401EE0864FF0000920688168C9070CD0A8
:101F1000E18F51B1C068A16B0870A06B401CA06339
:101F2000E08F401EE0874FF00109FFF729FBC01B3F
:101F3000B04202D3701C01D011E086B1E08E0028BF
:101F4000CED1E08F0028CBD13A463146204600F072
:101F5000CAFD50B12020606584F8508012E084F8FA
:101F600051A084F85080032068E7A06818B9206861
:101F7000C1688068009084F851A084F85080606D3A
:101F80000028F1D0012059E77047704710B50400D0
:101F900003D094F83D0010B107E0012010BD0020EF
:101FA00084F83C00204600F01EF8022084F83D0032
:101FB000211D206800F0A8FE012084F8460084F866
:101FC0003E0084F83F0084F8400084F8410084F823
:101FD000420084F8430084F8440084F8450084F803
:101FE0003D00002010BD704790F83D10012901D040
:101FF00001207047022180F83D100168CA6842F054
:102000000102CA6000680B49884208D0B0F1804FD5
:1020100005D00949884202D00849884204D1816824
:1020200001F00701062903D0016841F001010160B8
:1020300000207047002C01400004004000080040D0
:1020400070472DE9F04104460068C66805694FF005
:102050000007A90713D5B10711D5F91E01610120A9
:102060002077206880698007204602D0FFF7E8FFCC
:1020700004E000F07EF8204600F07CF8277768073F
:1020800016D5700714D521686FF00400086102208E
:1020900020772068806910F4407F204602D0FFF747
:1020A000CFFF04E000F065F8204600F063F82777E2
:1020B000280715D5300713D521686FF0080008618F
:1020C000042020772068C0698007204602D0FFF7EF
:1020D000B7FF04E000F04DF8204600F04BF82777FA
:1020E000E80616D5F00614D521686FF010000861D7
:1020F000082020772068C06910F4407F204602D075
:10210000FFF79EFF04E000F034F8204600F032F8BC
:102110002777E80708D0F00706D021686FF00100A4
:102120000861204600F028F8280608D5300606D5B4
:1021300021686FF0800008612046FFF725FF6806E0
:1021400008D5700606D521686FF04000086120466A
:1021500000F01CF8A8060AD5B00608D521686FF073
:10216000200008612046BDE8F041FFF70EBFBDE842
:10217000F08170477047000000680349884201D130
:10218000FFF704BA70470000002C0140704770B59B
:10219000040004D094F84100002510B106E00120AD
:1021A00070BD84F84050204600F024F8242084F8C4
:1021B00041002068C16821F40051C160204600F050
:1021C000DFFD2068016921F49041016120684169C7
:1021D00021F02A0141612068C16841F40051C160C9
:1021E0006564202084F8410084F842006563002083
:1021F00070BD000030B585B00024009401940294B5
:10220000039400681449884224D11448816941F438
:1022100080418161816901F480410491816941F0CB
:102220000401816180690E4D00F0040004904FF4B8
:102230000070009002200190032003906946284618
:10224000FFF7A8F82815CDE900046946284602944E
:10225000FFF7A0F805B030BD003801400010024083
:1022600000080140FEE7000000B58BB02821684659
:10227000FEF79DF800200121CDE9060105900490AC
:1022800000900190029003900E20CDE9081069465D
:102290000248FEF7E9FD0BB000BD0000A4000020DD
:1022A0002DE9F041304CD4E9020194F8FF217F2A56
:1022B00002D2521C84F8FF2194F8FD210026012748
:1022C0004FF00308D2B194F8FE21012A19D0022A56
:1022D0002AD0032A32D094F8FF010125642804D3C0
:1022E00084F8FF6184F8FE8100252846FEF78EFA07
:1022F000D4E90001C4E90201BDE8F08184F8FD7170
:10230000EEE700252A462B4602F054FE04D184F85D
:10231000FF6184F8FE81E8E794F8FF010A28E4D31E
:1023200084F8FF61022011E094F8FF0101250A28DA
:10233000DBD384F8FF6184F8FE71D5E794F8FF21C0
:102340000025642A06D384F8FF61042084F8FE0186
:102350000125CAE70022054B02F02CFEC5D184F806
:10236000FF6184F8FE71C0E7C80A00200000F03F5A
:1023700000F042B800F04FB800F05EB800F06FB85F
:1023800000F010B900F018B900F020B970B50022C3
:1023900015460BE002EB8214002301EB8404E618DF
:1023A0005B1CF573062BFADB521CD2B28242F1D3CE
:1023B00070BD0000F0B5002212260424092506276E
:1023C0004FF0020C0EE000BF02EB821301EB83031F
:1023D000521C03F8DC6FD2B25C709D70DF701C7110
:1023E00083F805C08242EFD3F0BD00F001B910B50B
:1023F00000F090F9C0B210BDC0F3400208B5121D44
:1024000001EBC0108DF8002060308DF801006846A7
:1024100000F062FD08BD08B5C0F34003C00100EB49
:1024200001109B1C10448DF8003060308DF80100C5
:10243000684600F051FD08BD38B5C0F34004C00146
:1024400000EB81101044A41C00EB03108DF8004039
:1024500028308DF80100684600F03EFD38BDC0F31D
:10246000400208B5C001121D00EB81108DF800205C
:1024700010308DF80100684600F02EFD08BD000008
:10248000F0B5052916D2DFE801F0032A4B6B1600E0
:1024900000210DE001EB811302EB8303491C33F8AB
:1024A000C05F13F8B24C25441D805D882C445C80CD
:1024B0008142EFDBF0BD00210EE000BF01EB811394
:1024C00002EB8303491C33F8C05F13F8A34C254487
:1024D0001D805D882C445C808142EFDBF0BD0023D1
:1024E0001BE0002114E000BF03EB831402EB840423
:1024F0006518B4F8C06015F8427F3E44A4F8C06087
:1025000004EB41042D7834F8C46F491C3544258010
:1025100092F8DF408C42E7DC5B1C8342E1DBF0BDDC
:1025200000231AE0002113E003EB831402EB840480
:102530006518B4F8C06015F85A7F3E44A4F8C0602E
:1025400004EB41042D7834F8D06F491C35442580C4
:1025500092F8E0408C42E7DC5B1C8342E2DBF0BD9A
:1025600000231BE0002113E003EB831402EB84043F
:102570006518B4F8C06015F86B7F3E44A4F8C060DD
:1025800004EB41042D7834F8D86F491C354425807C
:1025900092F8E140641E8C42E6DC5B1C8342E1DB86
:1025A000F0BD000008B503A000680090684600F088
:1025B00093FC08BD0712000008B503A00068009056
:1025C000684600F089FC08BD0711000030B5002204
:1025D00015460AE002EB8214002301EB8404E55463
:1025E0005B1C062BFBDB521CD2B28242F2D330BD05
:1025F0002DE9F843074616460C464FF00008C80080
:10260000FDF732FE814637B102462146384600F0DA
:1026100051F800253FE001271FE04A462146384691
:1026200000F048F8002514E096F8BF00D8B1601B10
:10263000401EC0B200EB801006EB800303F15A008D
:102640000090E8B24A463946483300F0EEFD804635
:102650006D1CA542E8DB7F1CFFB296F8E000401C31
:10266000B842DAD819E0E8B2E4E700BF96F8BF0054
:10267000F0B1601B401EC0B200EB801006EB80037F
:1026800003F15A000090E8B24A463946483300F058
:10269000CCFD80466D1CA542E8DB32460221204677
:1026A000FFF7EEFE4846FDF70EFE4046BDE8F88314
:1026B000E8B2E1E738B50C460C21002315460128A5
:1026C00005D0022806D0032806D0042820D08DF893
:1026D000011004E00E2000E00D208DF801008DF8BF
:1026E00000306946022000F0D3FD010A8DF8021087
:1026F0008DF803000A2000F013FCE006030E2A46C2
:102700000421684601F044FA0A2000F001FC38BDBB
:102710000F20E2E72DE9F843804617460D460026D4
:10272000C800FDF7A1FD8146B8F1000005D04A467A
:10273000294600F055F8002443E0012021E04A46F4
:102740002946404600F04CF8002415E097F8BF00F9
:10275000F0B1281B401EC0B200EB801007EB8003D5
:1027600003F142000090E0B24A4641461E3300F0B9
:102770005CFD304446B2641CAC42E7DB08F101006A
:10278000C0B2804697F8DF00401C4045D7D81AE019
:10279000E0B2E1E797F8BF0000B3281B401EC0B2CB
:1027A00000EB801107EB810303F1420109EBC0024A
:1027B0000091E0B241461E3300F037FD304446B28E
:1027C000641CAC42E6DB3A4601212846FFF758FE7E
:1027D0004846FDF778FDF0B2BDE8F883E0B2DFE7E8
:1027E00038B5002315460C4601280AD002280AD025
:1027F00003280AD004280AD005280AD006280AD0BF
:102800000EE0042008E0062006E0082004E00A208C
:1028100002E0092000E00B208DF801008DF8003067
:102820006946022000F034FD010A8DF802108DF88F
:1028300003000A2000F074FBE006030E2A46042180
:10284000684601F0A5F90A2000F062FB38BD0000DF
:102850000F4810B50D4901600421416000214FF07F
:102860004072C0E902129211026192004261017647
:1028700041768176C17601774177FEF76CFC0028BE
:1028800003D0BDE81040FEF77CBA10BD00640040E4
:10289000A400002010B500F0DBF80B4A00210B4823
:1028A00000F07EFC0A4C084A0021206024320948CE
:1028B00000F076FC044A606048320021064800F0CF
:1028C0006FFCA06010BD0000F0500008252C00082F
:1028D00000000020312C00083D2C00082DE9F041BB
:1028E00086B00024244800940194029403948169E2
:1028F00041F010018161816901F010010491816949
:1029000041F020018161816901F020010491816918
:1029100041F004018161816901F004010491816940
:1029200041F0080181618069144F00F008004FF404
:1029300000550490002229463846FEF71BFEDFF8BA
:102940004080002210214046FEF714FE009502262A
:1029500001250396CDE9015469463846FEF71AFD74
:102960001020CDE90005CDE9024669464046FEF754
:1029700011FD06B0BDE8F0810010024000100140DA
:1029800000080140104810B50E4901604FF48271F3
:102990004160002102228160C0E9031201224261EC
:1029A000520282613022C0E90721416281620A211C
:1029B000C162FFF73BF9002803D0BDE81040FEF7E5
:1029C000E0B910BD00300140CC000020104810B527
:1029D0000E4901604FF48271416000210222816042
:1029E000C0E9031201224261520282612022C0E941
:1029F0000721416281620A21C162FFF717F90028AD
:102A000003D0BDE81040FEF7BCB910BD003800404F
:102A1000240100200C4810B50A4901604FF4E1314F
:102A20004160002181600C22C160C0E90412816113
:102A3000C161FFF7ACFB002803D0BDE81040FEF7F2
:102A4000A0B910BD003801407C010020FEE7000065
:102A50001FB5094B094C0FCB8DE80F00206828B932
:102A600001216A46084600F023FB2060012104484A
:102A7000FEF78AF91FBD00005C5100080C00002021
:102A8000A4000020F8B50D46060009D045B10E4C53
:102A9000206828B1142100F0DDFA18B10220F8BD39
:102AA0000120F8BD01F00AF96B462A463146074875
:102AB000FEF77CF9054601F021F915B1206800F018
:102AC00043FB2846F8BD00000C000020A4000020B5
:102AD00003480068002801D000F036BB70470000B2
:102AE0000C000020FEE7F8B515460E460B46009296
:102AF00004460122022100F011F840B933460022B9
:102B000080212046009500F009F8002804D0606D6F
:102B100040F0200060650320F8BD00002DE9F84377
:102B20001E46914688460446089DFEF729FD401B37
:102B3000351AFEF725FD074625480068C0F3CB305F
:102B4000684338E0701C37D0FEF71AFDC01BA8425E
:102B500003D215B1009860B32CE02068416821F0E1
:102B6000E00141606068B0F5827F0BD1A068B0F5EC
:102B7000004F02D0B0F5806F04D12068016821F0C9
:102B800040010160A06AB0F5005F09D120680168CA
:102B900021F4005101602068016841F40051016096
:102BA000012084F85100002084F850000320BDE883
:102BB000F8830025401E00902068816838EA0100F3
:102BC00004D000214945BDD10020F0E70121F9E7FB
:102BD0001C0000202DE9F041104C94F8FC0100B1DC
:102BE000012002F023FAC4E900010D48FDF78AFD37
:102BF00007460B487230FDF7B3FD06460748103014
:102C0000FEF736F8054606486C38FEF76DF8B91938
:102C10002944084484F8FC01BDE8F081C80A00207A
:102C20001C0C0020FFF7D6FF0A2000F0B9F9F9E7E5
:102C3000FFF736FB0A2000F0B3F9F9E70EA188B0E0
:102C4000D1E90001CDE9060140F2231000900020F7
:102C5000019008210290CDE903018DF8140000F0E5
:102C6000C3F9044606A96846FFF70CFF0A3420465C
:102C700000F0A3F9F6E700000102030405060708C7
:102C800010B54FF0E020006901F08EFF012803D05D
:102C9000BDE8104001F006BB10BD30B58FB0282153
:102CA0006846FDF784FB14210AA8FDF780FB01218B
:102CB0000804CDE900100024029402250491CDE916
:102CC00007504FF4E01009906846FEF71FFE08B168
:102CD00072B6FEE70F20CDE90A054FF48060CDE91A
:102CE0000C4002210AA80E94FEF714FD002801D022
:102CF00072B6FEE70FB030BD704700000148FFF725
:102D0000A0B90000C4010020F0B50268194B1A4CAC
:102D10001A4D4FF08047984205D0B84203D0A042E8
:102D200001D0A84203D122F070064A68324398428B
:102D300005D0B84203D0A04201D0A84203D122F46A
:102D40004074CA6822434C6922F080022243026028
:102D50008A68C2620A688262984201D10969016385
:102D6000012141610169C90703D0016921F0010115
:102D70000161F0BD002C014000040040000800404B
:102D800070B5044600680169E26821F440511143BE
:102D900001612169A0680843616908432168CA6824
:102DA00041F20C639A430243CA6020684169A269F8
:102DB00021F44071114341611E492068884202D1CB
:102DC000FEF76EFD01E0FEF75BFD00EBC00101EBDD
:102DD0000012606864218000B2FBF0F3B3FBF1F3F2
:102DE0006FF018067343B2FBF0F5B2FBF0F605EB9B
:102DF0008305322303EB0515B5FBF1F5B6FBF1F6C0
:102E000005F0F00505EB0615B2FBF0F6B2FBF0F0AD
:102E1000B0FBF1F06FF01802504306EB800003EBBB
:102E20000010B0FBF1F0216800F00F00284488602A
:102E300070BD0000003801400148FEF78EB8000068
:102E4000A40000200148FEF788B80000A40000207C
:102E5000FEE70907090E002804DB00F1E02080F8F6
:102E60000014704700F00F0000F1E02080F8141DFE
:102E70007047000000B585B00020029011488169BC
:102E800041F0040181618069694600F0040004900A
:102E90001020009001200190032003900A48FEF7C3
:102EA00079FA002000F034F80848094A0168914294
:102EB00003D190F85100002801D1FFF763FD05B060
:102EC00000BD00000010024000080140CC000020BE
:102ED00000300140FEF754BB08B501788DF80010B2
:102EE00040788DF801006946022000F0D1F9010A0E
:102EF0008DF802108DF803000A2000F011F86946E1
:102F0000042000F038FE0A2000F002F808BD00009E
:102F1000012210210148FEF72DBB000000080140EE
:102F2000002210210148FEF725BB000000080140E7
:102F30000649074A0968B1FBF2F141430520B1FB9C
:102F4000F0F000E000BF401EFCD270471C000020E3
:102F500040420F00FEF722FBFFF79FFEFFF7BEFC8B
:102F6000FFF776FCFFF70EFDFFF730FDFFF752FD90
:102F7000FFF780FFFFF778F908B172B6FEE7074860
:102F8000FEF7D2F908B172B6FEE7FDF7FCFE00F0DD
:102F900033F8FFF77FFC00F041F8FEE7A4000020C3
:102FA00010B5EFF3058111B16FF0050403E00024C3
:102FB00008B100F087FF204610BD38B50546EFF395
:102FC000058010B16FF005040CE0002401F0FAFD5B
:102FD000291A0090002903DD684600F099FF01E0FE
:102FE0006FF00304204638BDEFF3058008B101F00F
:102FF000EFBD01F0E7BD0000EFF3058010B16FF009
:10300000050070470448016811B14FF0FF30704768
:1030100001210160002070477400002010B5EFF31B
:10302000058010B16FF0050010BD08480168012946
:1030300002D04FF0FF3010BD054A002182F8141D68
:103040000221016001F034F8002010BD740000205E
:103050000BE000E0F8B50D460024211F4E1C0028AF
:1030600004D000BFEFF30582A2B10DB10C461BE006
:1030700000216A46009101F0FBFB012813D1009862
:1030800090B10A494FF080500860BFF34F8FBFF3F3
:103090006F8F09E0294601F039FC012804D015B1F1
:1030A0006FF0010400E034462046F8BD04ED00E076
:1030B000F8B5144603460E464FF00005EFF30580C1
:1030C00098BB93B39E423DD84CB1A0680028E068FD
:1030D00003D0502836D3012002E008B132E00020AE
:1030E000012B05D010B31846A26801F00EF920E0BC
:1030F00040B103200090002211460120A36801F096
:1031000045F904E003220021012001F01EF9050029
:1031100018D086B100231A46194601F0AFF90128EC
:1031200009D0284600F080FE00250BE0184601F08B
:10313000CFF8050006D00CB1216800E00021284638
:1031400000F05EFE2846F8BD38B50024E51E0028D4
:103150000BD000BFEFF30581A9B1002100916946B2
:1031600001F09BFA012815D102E06FF0030412E090
:10317000009880B109494FF080500860BFF34F8F2D
:10318000BFF36F8F07E000231A46194601F076F966
:10319000012800D02C46204638BD000004ED00E098
:1031A0002DE9FF414FEA01034FF00005EFF30581E0
:1031B000039549BB40B38027182100244AB3166801
:1031C00006B1344696691EB13146761E382E02D2BB
:1031D0001679F60703D0002004B0BDE8F0815669E7
:1031E00006B1B708D2F808C0BCF1000F0DD0D56801
:1031F0005C2D18D312693AB136B18DE806103A4603
:10320000214601F0A6FC03900DE0D6685EB9126974
:103210004AB903AACDE90012BAB2214601F06CFC0A
:10322000012800D003950398D6E72DE9F0430F4617
:103230000026C106DDF81C900C0E354607EB470C46
:1032400002EB0408115D98F80180A41C01EB082131
:103250000CEB050803EB48086D1CEDB228F8061CC2
:10326000E4B2032DECD3111909884CBA02EBC0016A
:10327000062000F00DF809EB0701844202D0012678
:10328000304600E0002001F8010C3046BDE8F08334
:1032900030B5102300220A4D0AE08C5C521C84EAEF
:1032A000D314E4B2D2B235F8144084EA03239BB2BB
:1032B0008242F2D34FF6FF7000EA430030BD0000B7
:1032C000965100082DE9F041134C0F460546E6687B
:1032D0002068001D00F096FC681C07D137B12168FA
:1032E000BDE8F0410D48091D00F0DCBC2068354404
:1032F000B5424560216805D2A06BBDE8F041091DCB
:1033000000F0B8BC606B091D00F0B4FCA06A8542F7
:1033100000D2A562BDE8F08124000020B811002091
:103320002DE9F041054600F0C9FC2D4CA068401C79
:10333000A06020682B4F10B1606930B32BE025608E
:10334000A068012827D1002606EB860007EB800045
:1033500000F082FC761C382EF6D3234800F07CFC6B
:103360002148143000F078FC1F48283000F074FC2D
:103370001D483C3000F070FC1B48503000F06CFCE5
:10338000194860631430A06305E02068E96AC06AE8
:10339000884200D82560606A401C60626864E86A00
:1033A0002169884200D9206100EB800007EB800092
:1033B000291D00F077FC00F0A1FC606900280CD00A
:1033C0002068E96AC06A884207D208494FF08050F5
:1033D0000860BFF34F8FBFF36F8FBDE8F08100002F
:1033E00024000020080D00206811002004ED00E0FA
:1033F00038B500F063FC104C2068C8B90F4800F0E5
:103400002BFC0E48143000F027FC0C48E060143010
:1034100020610A4B0020F03B009003F15002102184
:103420000A2000F0B3FF206010B105A100F0E8FC15
:10343000BDE8384000F062BC60000020BC120020F3
:10344000546D72510000000030B4026C0B46002A2B
:103450000BD0C1681144C1608468A14201D30168E6
:10346000C16030BC1846FCF755BF30BC70472DE931
:10347000F041856B174604460026026C82B1C7B145
:10348000E068FCF747FFE168206C091AE1602268F8
:10349000914202D2A168081AE060022F16D017E00C
:1034A0002068A8B9A06801F0FFFB06460020A060D4
:1034B0000EE06068FCF72EFF216C606808446060D5
:1034C000A168884204D32068606001E005B16D1EE8
:1034D0006D1CA5633046BDE8F08110B5044690F838
:1034E000590058B101280CD002280FD0502080F389
:1034F0001188BFF34F8FBFF36F8FFEE7206B00F093
:1035000011FC2046BDE8104000F00CBC10BD0000CE
:1035100010484FF40051420706D0C01D0D4920F05D
:103520000700411AC1F500510B4A00230144C2E9CA
:1035300000030839183A21F0070111604B600B6055
:103540000B1AC0E9001393604FF0004053605061C4
:10355000704700009C19002090000020144E154C6C
:10356000A6F29C474FF08058DFF84C9012E000BF65
:1035700000F0A4FBF068C568281D00F043FBA068BC
:10358000401EA0606068401E606000F0B7FB2846E7
:10359000FFF7A3FF60680028EAD138680128F9D94D
:1035A000C9F80080BFF34F8FBFF36F8FF2E70000C1
:1035B000A41100202400002004ED00E070B51D4699
:1035C000049C51B1C4F80020C4E90F010121204638
:1035D00000F010FF84F84C5070BD2460F4E7000048
:1035E0002DE9F05F8846DDE90B941546834691008E
:1035F0009A460A9EA522206BFCF7D1FE6FF00301CC
:10360000206B01EB8501084420F00707780707D0FD
:10361000502080F31188BFF34F8FBFF36F8FFEE709
:103620000025B8F1000F0FD05FF00000221818F845
:10363000001082F8341018F8001011B1401C102846
:10364000F4D384F8435001E084F83450382E00D38A
:103650003726E662C4E91365201D00F008FB04F17B
:10366000180000F004FB2461C6F138006462A06118
:10367000656584F8585052465946384600F066FA57
:103680002060B9F1000F01D0C9F80040BDE8F09FFB
:1036900030B5114900E011460A688242FBD34B68FD
:1036A0005C18844203D14068184448600846436867
:1036B0001C18944209D1084C183C2468A24209D035
:1036C00052681A4442600A6812680260814200D05F
:1036D000086030BD0460F9E79000002070B5002458
:1036E00041600B4D0061914206D8D11A8269914226
:1036F00006D2011D286907E09A4203D2994201D3FC
:10370000012403E0011DE86800F0B4FA204670BD12
:103710006000002010B5044600F0D0FAA06B28B17C
:103720005FF0000400F0EAFA204610BD0124F9E73A
:1037300030B589B03C4D6EE00498002806DADDE92A
:103740000601059A90470498002864DB069C60698E
:1037500010B1201D00F056FA03A800F0D7F8024679
:1037600004980A2857D2DFE800F00505052D334AF2
:1037700005052D3394F8280040F0010084F8280056
:103780000599A069059B01442046FFF7A7FF68B390
:10379000216A2046884794F8280040073BD500203E
:1037A00000900598A169002342181946204601F0AF
:1037B000C1FBD8B9502080F31188BFF34F8FBFF3FE
:1037C0006F8FFEE714F8280F20F00100207022E030
:1037D00094F8280040F0010084F828000598A061C2
:1037E00028B1811813462046FFF778FF13E05020D8
:1037F00080F31188BFF34F8FBFF36F8FFEE794F80C
:103800002800810703D4204600F08CFA03E020F062
:10381000010084F82800002204A9286800F08CFF29
:10382000002889D109B030BD600000202DE9FC419D
:103830000F46054600F080FC01A800F067F804463A
:10384000019818B101F0E4FABDE8FC81254EAFB152
:1038500030690068D0B30027291B3A46306800F071
:103860000FFB01F0D5FA0028EED11F494FF0805030
:103870000860BFF34F8FBFF36F8FE5E7A542EBD82A
:1038800001F0C6FAF0682746C068C468201D00F041
:10389000B9F994F82800410719D5A0692B464119B8
:1038A0003A462046FFF71AFFA8B10020034601461A
:1038B00000902A46204601F03DFB60B9502080F37D
:1038C0001188BFF34F8FBFF36F8FFEE707E020F043
:1038D000010084F82800216A20468847B4E70127C0
:1038E000BAE700006000002004ED00E00648416BEC
:1038F000096829B1416BC968C96849688162704724
:103900004FF0FF31FAE700002400002070B50546B3
:1039100001F058F9064E0446B068844203D200F024
:1039200009F8012000E0002028602046B46070BD46
:1039300060000020F8B5194D20E0C068C468066832
:10394000201D00F05FF9216A2046884794F828007E
:10395000400713D5A0693044B04206D924616060A5
:10396000211DE86800F086F908E0002003460146C2
:1039700000903246204601F0DDFA38B1E86801686F
:103980000029DAD12969C5E90310F8BD502080F378
:103990001188BFF34F8FBFF36F8FFEE760000020E9
:1039A00008484068401C4FF0500080F3118804D054
:1039B000BFF34F8FBFF36F8FFEE7BFF34F8FBFF3A0
:1039C0006F8FFEE798000020074CE068016841B166
:1039D000C0680021D0F80000FFF728FFFFF7A8FE1D
:1039E000F3E701210020F7E7600000202DE9F04116
:1039F000044600F063F994F9455004F1240609E007
:103A0000606A48B1304601F0CBF908B100F0CEFA57
:103A10006D1E6DB2002DF3DC4FF0FF3684F845606B
:103A200000F06CF900F04AF994F9445004F11007E1
:103A300009E0206948B1384601F0B2F908B100F058
:103A4000B5FA6D1E6DB2002DF3DC84F84460BDE85C
:103A5000F04100F053B900002DE9F0410546002780
:103A600000F06AFB324E306808B9FFF751FD70690B
:103A700005424ED1C5B3083568070ED005F00700E2
:103A8000C0F108000544680707D0502080F3118872
:103A9000BFF34F8FBFF36F8FFEE72DB37068854282
:103AA00037D82348183001460C6801E020460C4600
:103AB0006168A94202D221680029F7D131688C429D
:103AC00027D007682168016060680837411B10290A
:103AD0000FD96019420708D0502080F31188BFF336
:103AE0004F8FBFF36F8FFEE713E041606560FFF714
:103AF000CFFD61687068401A7060B268904200D271
:103B0000B060706901430020C4E90001F068401C06
:103B1000F06001F07DF9780707D0502080F311881C
:103B2000BFF34F8FBFF36F8FFEE73846BDE8F081DC
:103B3000780000200449086818B10868026D521C1A
:103B400002650868704700002400002010B5031FBC
:103B50004FF080741C601B1F21F001011960191FB8
:103B6000024B0B60143940380A6010BDA1390008BF
:103B7000FF2000F029B870B50E460546002404E089
:103B8000305D00F021F8641CE4B2AC42F8D370BDA3
:103B90002DE9F0411D4690460E460746002404E0FC
:103BA000385D00F011F8641CE4B2B442F8D300248C
:103BB00006E0FF2000F008F808F80400641CE4B2F6
:103BC000AC42F6D3BDE8F08101B582B0FF208DF89C
:103BD000040064200090012301AA02A90848FEF70E
:103BE000DBF848B106480168CA688968009101217C
:103BF00080F85110FF200EBD9DF804000EBD00009E
:103C0000CC000020D0E9013201699A60D0E901239B
:103C10005A604A68824201D182684A600022026189
:103C20000868401E0860086870470000034B036086
:103C300003F15C000860802010607047E4120020EF
:103C4000044B036003F15C0008604FF48070106067
:103C5000704700004015002000F108014FF0FF32CE
:103C6000C0E90112C16001610021016070470021BB
:103C70000161704730B50B685A1C02D000F1080290
:103C800002E0026904E02246546825689D42FAD9A0
:103C900053684B6099608A60516008610168491CF3
:103CA000016030BD42684A6093688B6093685960D8
:103CB000916008610168491C01607047502080F3E1
:103CC0001188BFF34F8FBFF36F8F0A494868401CBC
:103CD000486001280CD10848006810F0FF0F07D099
:103CE000502080F31188BFF34F8FBFF36F8FFEE733
:103CF000704700009800002004ED00E00849486883
:103D000028B1401E486001D180F3118870475020CF
:103D100080F31188BFF34F8FBFF36F8FFEE7000072
:103D20009800002070B500282AD0164DA0F1080494
:103D300060686969084207D1502080F31188BFF399
:103D40004F8FBFF36F8FFEE722683AB1502080F3A8
:103D50001188BFF34F8FBFF36F8FFEE7884360601A
:103D600000F0EAF960686968084468602046FFF777
:103D70008FFC2869401C2861BDE8704001F048B8FC
:103D800070BD0000780000204FF0E02000210161AC
:103D9000816105494FF47A720968B1FBF2F1491E5D
:103DA00041610721016170471C00002010B5FCF73C
:103DB00037FA114910280ED300F1E02090F8F003F3
:103DC0000A78904207D2502080F31188BFF34F8FBA
:103DD000BFF36F8FFEE709480068896800F4E06070
:103DE000884207D9502080F31188BFF34F8FBFF36B
:103DF0006F8FFEE710BD0000980000200CED00E082
:103E000010B5084B002200BF53F832401CB1521CC1
:103E1000082AF9D310BD43F8321003EBC201486001
:103E200010BD0000C80C002010B504000AD000F03E
:103E300013F894F8460000280CD12046BDE8104045
:103E4000FFF770BF502080F31188BFF34F8FBFF38F
:103E50006F8FFEE710BD0000084A002102EBC1038E
:103E60005B68834206D1002042F8310002EBC101B9
:103E700048607047491C0829F0D37047C80C0020DF
:103E800070B515460E460446FFF718FF94F9441026
:103E90000020491C01D184F8440094F94510491CC4
:103EA00001D184F84500FFF729FFA06B28B92A4605
:103EB000314604F1240000F097F82046BDE8704038
:103EC000FFF794BD10B5020014D00F48006B38B155
:103ED000502080F31188BFF34F8FBFF36F8FFEE741
:103EE00000F02AF900211046FFF7ECF900F090FFEE
:103EF000002807D105494FF080500860BFF34F8F6D
:103F0000BFF36F8F10BD00002400002004ED00E01F
:103F100070B50D4604000BD095B11E4A106BB8B1B8
:103F2000502080F31188BFF34F8FBFF36F8FFEE7F0
:103F3000502080F31188BFF34F8FBFF36F8FFEE7E0
:103F4000502080F31188BFF34F8FBFF36F8FFEE7D0
:103F500000F0F2F8D26823685919934204D98B42D1
:103F60000AD9914202D807E08B42FAD9881A216017
:103F70000021FFF7A7F900E0216000F049FF0028C9
:103F800007D105494FF080500860BFF34F8FBFF352
:103F90006F8F70BD2400002004ED00E002490A6A22
:103FA0000260C96841607047240000200149012077
:103FB000C86170472400002010B50C4650B1094973
:103FC00009681831FFF756FE2046BDE81040012170
:103FD000FFF778B9502080F31188BFF34F8FBFF3FC
:103FE0006F8FFEE72400002070B514460D4668B1BF
:103FF0000A4909681831FFF755FE0CB14FF0FF353B
:1040000021462846BDE87040FFF75CB9502080F398
:104010001188BFF34F8FBFF36F8FFEE7240000209E
:1040200070B504003ED0226DA2B1E06C884200D38E
:104030000146E06A884235D0012A33D11A4D2A68F8
:1040400094420FD1502080F31188BFF34F8FBFF3FC
:104050006F8FFEE7502080F31188BFF34F8FBFF3BF
:104060006F8FFEE7E162A269002A02DBC1F138012D
:10407000A1610E4E00EB8000616906EB8000814279
:1040800010D1201DFFF7BEFDE06A2969884200D9E2
:10409000286100EB800006EB8000211DBDE8704028
:1040A000FFF700BE70BD000024000020080D0020B6
:1040B00030B587B00024039405AA04A903A804948A
:1040C000FFF7B4FDDDE903010094CDE90110002301
:1040D00015A11748059A00F03CFD164D0028E8622E
:1040E0001FD000F0F7FE012809D0401C19D1502044
:1040F00080F31188BFF34F8FBFF36F8FFEE750201F
:1041000080F31188BFF34F8FBFF36F8F4FF0FF30F5
:10411000A86201206861EC6007B0BDE8304000F0A3
:104120006DB807B030BD000049444C4500000000A8
:104130005D350008240000200248016B491C016322
:104140007047000024000020164810B5016B11B123
:104150000121C16110BD0021C1610169124A01E064
:10416000B9B1491E01EB810352F82330002BF7D07F
:1041700001EB810302EB830202F1080453685B68E0
:104180005360A34201D15B685360DA680260016149
:1041900010BD502080F31188BFF34F8FBFF36F8F96
:1041A000FEE7000024000020080D002070B5054641
:1041B000002409E00A20FEF7B3FEFF20FFF7D8FC39
:1041C0000A20FEF7A5FE641CAC42F3DB70BD70B59F
:1041D000054600244FF496760CE00A20FEF7A0FE78
:1041E0003046FEF7A5FE0A20FEF792FE0A20FEF7F3
:1041F0009FFE641CAC42F0DB70BD00001CB526497C
:1042000008780190FF20087008788DF800009DF86C
:1042100000009DF8002000F0F000904207D05020F0
:1042200080F31188BFF34F8FBFF36F8FFEE79DF8C8
:1042300000001A4C00F0500020700720A06005E03C
:104240009DF8002052008DF80020401E9DF80020AF
:104250001206F5D4A060032807D0502080F31188FF
:10426000BFF34F8FBFF36F8FFEE74FF44070A06036
:10427000019808700A48016841F470010160016802
:1042800041F070410160FFF77FFD00206060FBF7A7
:1042900091FF00201CBD000000E400E09800002019
:1042A00020ED00E010B5502080F31188BFF34F8F50
:1042B000BFF36F8F00F094FC18B104494FF08050A9
:1042C0000860002080F3118810BD000004ED00E0BC
:1042D00010B50C4648B184420FD9502080F31188A4
:1042E000BFF34F8FBFF36F8FFEE7502080F311882D
:1042F000BFF34F8FBFF36F8FFEE70222002100F064
:1043000024F8002800D0846310BD38B50C4648B1AD
:1043100084420FD9502080F31188BFF34F8FBFF331
:104320006F8FFEE7502080F31188BFF34F8FBFF3EC
:104330006F8FFEE70221134600220091114600F024
:1043400025F8002800D0846338BDF8B517460E461E
:10435000050013D005FB06F05030FFF77DFB04008D
:104360000AD0002084F8460004F150023B46314652
:1043700028460094FFF722F92046F8BD502080F32C
:104380001188BFF34F8FBFF36F8FFEE738B5049DE1
:1043900018B153B1CAB181B120E0502080F3118827
:1043A000BFF34F8FBFF36F8FFEE7502080F311886C
:1043B000BFF34F8FBFF36F8FFEE7502080F311885C
:1043C000BFF34F8FBFF36F8FFEE739B1502080F3FB
:1043D0001188BFF34F8FBFF36F8FFEE750241C4649
:1043E000012384F846302B460094FFF7E7F8204677
:1043F00038BD000070B50D46040025D0FFF75EFC07
:10440000D4E90F20216802FB0011A1600021A16303
:10441000216861600A46D4E90F01401E00FB0121BA
:10442000E16021464FF0FF3001F8440F487004F17D
:1044300010008DB1FFF710FC04F12400FFF70CFC15
:10444000FFF75CFC012070BD502080F31188BFF3A2
:104450004F8FBFF36F8FFEE721690029F0D000F086
:104460009FFC0028ECD004494FF080500860BFF357
:104470004F8FBFF36F8FE3E704ED00E02DE9FF47B7
:1044800082B01D468A464FF00008040003D0BAF1FE
:10449000000F08D011E0502080F31188BFF34F8F38
:1044A000BFF36F8FFEE7206C38B1502080F3118886
:1044B000BFF34F8FBFF36F8FFEE7022D0AD1E06B82
:1044C000012807D0502080F31188BFF34F8FBFF32E
:1044D0006F8FFEE700F068FB3F4F4FF000094FF091
:1044E000805648B9049838B1502080F31188BFF342
:1044F0004F8FBFF36F8FFEE7FFF7E0FBA06BE16B21
:10450000884207D3022D05D00498D0B1B8F1000F2E
:104510001AD01EE02A4651462046FEF7A8FF616ADF
:1045200019B104F1240000F03BFC20B13E60BFF360
:104530004F8FBFF36F8FFFF7E1FB012006B0BDE89F
:10454000F087FFF7DBFB22E06846FFF727FD4FF01F
:104550000108FFF7D3FBFFF7EFFDFFF7AFFB94F97F
:104560004400401C01D184F8449094F94500401C5B
:1045700001D184F84590FFF7C1FB04A9684600F01B
:1045800081FA30B12046FFF731FA00F041FC0020FB
:10459000D4E7FFF793FBA06BE16B884213D1FFF7E1
:1045A000ADFB04F110000499FFF706FD2046FFF76C
:1045B0001DFA00F02DFC00289ED13E60BFF34F8F06
:1045C000BFF36F8F98E7FFF799FB2046FFF70EFACE
:1045D00000F01EFC90E7000004ED00E02DE9F0473C
:1045E0001F4690468946040003D0B9F1000F08D059
:1045F00011E0502080F31188BFF34F8FBFF36F8F0E
:10460000FEE7206C38B1502080F31188BFF34F8F44
:10461000BFF36F8FFEE7022F0AD1E06B012807D0AE
:10462000502080F31188BFF34F8FBFF36F8FFEE7E9
:10463000FFF7BCFB5020EFF3118680F31188BFF326
:104640004F8FBFF36F8FA06BE16B884206D3022FB1
:1046500004D0002086F31188BDE8F08794F9455016
:10466000A06B3A4649462046FEF701FF681C04D07D
:104670006D1C84F845500120ECE7606A0028FAD0F0
:1046800004F1240000F08CFB0028F4D0B8F1000FF6
:10469000F1D00121C8F80010EDE770B50E46040016
:1046A00009D0206C78B1502080F31188BFF34F8F70
:1046B000BFF36F8FFEE7502080F31188BFF34F8F59
:1046C000BFF36F8FFEE7206848B9A06838B150206B
:1046D00080F31188BFF34F8FBFF36F8FFEE7FFF7B3
:1046E00065FB5020EFF3118580F31188BFF34F8FE6
:1046F000BFF36F8FA16BE06B884218D994F9450026
:10470000491CA163411C04D0401C84F845000120D1
:104710000EE0606A0028FAD004F1240000F040FBAB
:104720000028F4D0002EF2D001203060EFE7002006
:1047300085F3118870BD00002DE9F747002683B08E
:104740008A46040003D0BAF1000F08D011E05020CF
:1047500080F31188BFF34F8FBFF36F8FFEE7206C9C
:1047600038B1502080F31188BFF34F8FBFF36F8FA4
:10477000FEE700F019FADFF8F4804FF000094FF07F
:10478000805748B9059838B1502080F31188BFF39D
:104790004F8FBFF36F8FFEE7FFF790FAA56BC5B1A0
:1047A00051462046FEF750FE6D1EA563206950B1AC
:1047B00004F1100000F0F4FA28B1C8F80070BFF35B
:1047C0004F8FBFF36F8FFFF799FA012006B0BDE856
:1047D000F087059808B11EB106E0FFF78FFA27E0D1
:1047E0006846FFF7DBFB0126FFF788FAFFF7A4FC1A
:1047F000FFF764FA94F94400401C01D184F8449016
:1048000094F94500401C01D184F84590FFF776FAF1
:1048100005A9684600F036F9002820460AD0FFF7BF
:10482000E5F800F0F5FA2046FEF774FF0028B3D053
:104830000020CBE7FEF76EFF90B104F1240005994C
:10484000FFF7BAFB2046FFF7D1F800F0E1FA0028A5
:10485000A2D1C8F80070BFF34F8FBFF36F8F9BE7F3
:104860002046FFF7C3F800F0D3FA95E704ED00E027
:104870002DE9F04790468946040003D0B9F1000FB6
:1048800008D011E0502080F31188BFF34F8FBFF3A1
:104890006F8FFEE7206C38B1502080F31188BFF392
:1048A0004F8FBFF36F8FFEE7FFF780FA5020EFF3D3
:1048B000118680F31188BFF34F8FBFF36F8FA76B03
:1048C000F7B194F9445049462046FEF7BDFD7F1EDE
:1048D000A763681C04D06D1C84F84450012010E0CC
:1048E00020690028FAD004F1100000F059FA0028DD
:1048F000F4D0B8F1000FF1D00121C8F80010EDE7B5
:10490000002086F31188BDE8F08700002DE9F3430D
:10491000002683B00400354609D0206C78B15020C1
:1049200080F31188BFF34F8FBFF36F8FFEE75020E6
:1049300080F31188BFF34F8FBFF36F8FFEE700F056
:1049400033F9DFF83C814FF000094FF0805748B948
:10495000049838B1502080F31188BFF34F8FBFF314
:104960006F8FFEE7FFF7AAF9A06BC8B1401EA063E6
:10497000206810B9FFF7DEF8A060206950B104F19B
:10498000100000F00DFA28B1C8F80070BFF34F8F87
:10499000BFF36F8FFFF7B2F9012005B0BDE8F083D8
:1049A000049808B166B10FE03DB1502080F3118842
:1049B000BFF34F8FBFF36F8FFEE7FFF79FF95DE007
:1049C0006846FFF7EBFA0126FFF798F9FFF7B4FB0B
:1049D000FFF774F994F94400401C01D184F8449025
:1049E00094F94500401C01D184F84590FFF786F901
:1049F00004A9684600F046F80028204612D0FEF7C9
:104A0000F5FF00F005FA2046FEF784FE0028A9D045
:104A10009DB3FFF753F9606A50B3206B0068C0F193
:104A2000380126E0FEF776FEE0B1206838B9FFF7DE
:104A300045F9A06800F078F90546FFF75FF904F141
:104A400024000499FFF7B8FA2046FEF7CFFF00F0E4
:104A5000DFF9002886D1C8F80070BFF34F8FBFF38D
:104A60006F8F7FE72046FEF7C1FF00F0D1F979E7AD
:104A70000021A068FFF7D4FA9FE7FFE700208CE74A
:104A800004ED00E02DE9F0410C46050011D0C4B161
:104A9000FFF714F9174BDA686E682068911B471C02
:104AA00017D02F681B6A9F4219D0964217D801244D
:104AB00010E0502080F31188BFF34F8FBFF36F8F4A
:104AC000FEE7502080F31188BFF34F8FBFF36F8F45
:104AD000FEE70024FFF712F92046BDE8F081884286
:104AE00005D9401A20602846FFF758FAF1E7002060
:104AF0002060DCE7240000202DE9FF5F8346DDE92C
:104B00000E87994616468A469000FEF7A5FF0500D7
:104B10001CD05C20FEF7A0FF040014D00020256309
:104B200084F85900CDE90240CDE900874B46324672
:104B300051465846FEF754FD2046FEF7F1FB012092
:104B400004B0BDE8F09F2846FFF7ECF84FF0FF30C7
:104B5000F6E7F0B585B0DDE90B640A9DA6B1DCB1DE
:104B60005C2700972663022684F85960002604AF6C
:104B7000CDE90246CDE90057FEF732FD2046FEF7AB
:104B8000CFFB049805B0F0BD502080F31188BFF32F
:104B90004F8FBFF36F8FFEE7502080F31188BFF374
:104BA0004F8FBFF36F8FFEE70548416919B1006B66
:104BB00018B10020704701207047022070470000A4
:104BC000240000200148C068704700002400002035
:104BD00010B5FFF7EBF80148C06810BD24000020B5
:104BE0002DE9F0412E4C0027206B28B1A069401C14
:104BF000A0613846BDE8F081E668761CE66013D116
:104C0000606B006838B1502080F31188BFF34F8F7C
:104C1000BFF36F8FFEE7606BA16B6163A063206AD7
:104C2000401C2062FEF762FEA06ADFF878808642B0
:104C300009D3606B0068A0B1606BC068C568686824
:104C4000864211D2A0622068C06A00EB800158F849
:104C50002100012800D90127E0690028C9D00127D7
:104C6000C7E74FF0FF30EDE7281DFEF7CBFFA86A3E
:104C700018B105F11800FEF7C5FFE86A21698842FE
:104C800000D9206100EB800108EB8100291DFFF7AE
:104C900009F8E86A2168C96A8842CAD30127C8E7C7
:104CA00024000020080D002070B504004FF0000122
:104CB00033D01B4D2868844207D0502080F31188E0
:104CC000BFF34F8FBFF36F8FFEE7206D38B1401EEB
:104CD0002065E36CE26A9A421FD040B11DE050208B
:104CE00080F31188BFF34F8FBFF36F8FFEE7201D56
:104CF000FEF788FFE06CE062C0F13800A061E06A76
:104D00002969884200D92861064900EB800001EB3F
:104D10008000211DFEF7C6FF0121084670BD00007E
:104D200024000020080D002070B504004FF00000A2
:104D30002BD0194DE16A2A68D26A914226D2A06925
:104D4000002804DB2868C06AC0F13800A061134E57
:104D500001EB8101606906EB8101884211D1201DC0
:104D6000FEF750FF2868C06AE0622969884200D9CE
:104D7000286100EB800006EB8000211DFEF792FF0A
:104D800002E02868C06AE062012070BDE16C2A6818
:104D9000D26A9142F8D370BD24000020080D002093
:104DA00070B5C068C46854B104F118000646FEF737
:104DB00029FF144D286B50B13146134815E050209F
:104DC00080F31188BFF34F8FBFF36F8FFEE7201D75
:104DD000FEF718FFE06A2969884200D928610B496B
:104DE00000EB800001EB8000211DFEF75BFFE06A15
:104DF0002968C96A884202D90120E86170BD002093
:104E000070BD00002400002090110020080D00203B
:104E10002DE9F0472C4D00242746286B38B1FEF7CA
:104E20004DFF286B401E2863286B40B146E05020A0
:104E300080F31188BFF34F8FBFF36F8FFEE7A96830
:104E4000224E0120D1B3A6F5916980463068E0B1C9
:104E5000F068C46804F11800FEF7D4FE201DFEF7C8
:104E6000D1FEE06A2969884200D9286100EB8001FF
:104E700009EB8100211DFEF715FFE06A2968C96A68
:104E80008842E3D3C5F81C80E0E70CB1FEF72EFDA5
:104E9000AC694CB14FEA0806FFF7A2FE00B1EE6123
:104EA000641EF9D10020A861E86938B108490127DA
:104EB00038070860BFF34F8FBFF36F8FFEF71EFFF9
:104EC0003846BDE8F0870000240000209011002043
:104ED00004ED00E010B586B0FEF78AFA114C2068A8
:104EE000B8B100200390049005AA04A903A8FEF716
:104EF000A7FEDDE9032102208DE8070000230AA1B7
:104F00000B48059AFFF725FE606010B106B001203E
:104F100010BD502080F31188BFF34F8FBFF36F8F08
:104F2000FEE7000060000020546D7220537663009D
:104F3000C93900082DE9FF411E46134602000A9DAB
:104F40004FF0000016D0144C2768002F0FD0CDE989
:104F500000130292062917DAFFF726FE02284FF007
:104F600000030FD0002269462068FFF787FA04B0DB
:104F7000BDE8F081502080F31188BFF34F8FBFF35D
:104F80006F8FFEE72A46EEE7002332466946384631
:104F9000FFF724FBEBE7000060000020491058BF3A
:104FA000C1F140415B1058BFC3F140438B42EFF366
:104FB0000080704751EA030C17D41CF5801F58BFBE
:104FC000BCF5801F00F10680994218BF704708BFEA
:104FD0009042704707D711F5801F58BF13F5801F07
:104FE00019D499427047894270471CF5801F08D533
:104FF000BCF5801FF7D58B4218BF704708BF8242AF
:1050000070474FF4001C1CEB410F38BF1CEB430FE3
:1050100001D28B42704770B500F01BF89224490012
:105020004FF000514FF08053FFF7B8BFB0FA80F354
:1050300010FA03F10AD0C3F11D0303F580634FEAB0
:1050400041504FEA035202EBD12170474FF000006C
:1050500070470EF1020E2EF0030E5EF8046B36421E
:1050600005D4012A43EB030515F5001F12D80128CA
:1050700041EB010C1CF5001F0CD80ED14FEAD17C7E
:1050800015F5001F0CEB4C0C0CF1020C08BF4CEB9F
:10509000D37C04E04FF0080C01E04FEAD37C0CEB2A
:1050A0004C0526FA05F606F00706B6F1040C06D202
:1050B0000EEB860CBDE870404CF0010C6047DFE859
:1050C0000CF0090B02024FF000414FF00000A1F577
:1050D000002170BD19461046012851EB010418BF8C
:1050E000D4F5001484BF002001F0004170BD000021
:1050F00098530008000000000000000000000000BD
:105100000000000000080000100000000000000087
:1051100000000000A4530008000000000000000090
:105120000000000000000000000200001900000064
:105130000000000000000000B05300080000000064
:10514000000000000000000000000000000400005B
:10515000080000000000000000000000BC53000830
:105160000000000000000000000000000102020337
:105170000405060708090A0B0C0D0E0F101000009D
:1051800000000000000001020304060708090000F7
:10519000000001020304000099C5ABCE320BCFD84A
:1051A000561D6416FDD307F49E31AC3A35FFC82C6A
:1051B00051E963E2FA2797AD0E683C63A5A65875DE
:1051C000C1B0F3BB6A7E9059099C3B97A2525F81A4
:1051D000C644F44F6D8A2E5BB79E85951C50E183C3
:1051E00078464A4DD38829AFB06A82611BA4E6771E
:1051F0007FB24DB9D47CB9F6203312388BFD762EB0
:10520000EFEBDDE04425BE0227C715CC8C0971DA2F
:10521000E81FDA1443D1C5F35C366E3DF7F80A2B6C
:1052200093EEA1E53820C2075BC269C9F00C0DDF1F
:10523000941AA6113FD4525ECB9BF99060559D867F
:1052400004433648AF8D55AACC6FFE6467A19A72AD
:1052500003B731BCA879EBA8726D4066D9A324705E
:10526000BDB58FBE167BEC5C75994792DE572384E3
:10527000BA41884A118F7C05E5C0D7CB4E0EB3DD0D
:105280002A18181381D67BF1E234D03F49FAB429A9
:105290002DEC1FE7862213A28A67B86C21A9DC7A5D
:1052A00045BF77B4EE7114568D93BF98265DDB8EA3
:1052B000424B7040E985840F1DCA2FC1B6044BD7FD
:1052C000D212E01979DC83FB1A3E2835B1F04C2369
:1052D000D5E6E7ED7E283DF9A43C96370FF2F221A2
:1052E0006BE459EFC02A3A0DA3C891C30806F5D55F
:1052F0006C105E1BC7DEAA543391019A985F658CCF
:10530000FC49CE425787ADA03465066E9FAB6278EC
:10531000FBBDC9B65073D6514F947D9FE45A19898D
:10532000804CB2472B82D1A548607A6BE3AE1E7DDC
:1053300087B8B5B32C7641FCD839EA3273F78E249E
:1053400017E125EABC2F4608DFCDEDC6740389D0EE
:105350001015221EBBDBF80A61CF53C4CA0137D235
:10536000AE179C1C05D9FFFE663B5430CDF53026A8
:10537000A9E39BE8022D6FA7F662C4695DACA07F2C
:1053800039BA0BB192746853F196C39D5A58A78BE2
:105390003E4E0C459580000052544F535461736B40
:1053A000310000006D795461736B303200000000F1
:1053B0006D795461736B30330000000063616E5F80
:1053C00074780000E453000800000020A4000000EE
:1053D0002801000888540008A40000205C3F000059
:1053E0004401000800000000000000000000000070
:1053F000000000000100000010000000000000009C
:1054000000127A0000000000000000000000000010
:10541000000000000000000000000000000000008C
:10542000000000000000000000000000000000007C
:10543000000000000000000000000000000000006C
:10544000000000000000000000000000000000005C
:10545000000000000000000000000000000000004C
:10546000000000000000000000000000000000003C
:10547000000000000000000000000000000000002C
:08548000AAAAAAAA000000007C
:04000005080000ED02
:00000001FF
