:020000040800F2
:100000008007002061100008910200089302000898
:10001000970200089B0200089F02000800000000F1
:10002000000000000000000000000000A302000823
:10003000A502000800000000A7020008A9020008AD
:100040007B1000087B1000087B1000087B10000864
:100050007B1000087B1000087B1000087B10000854
:100060007B1000087B1000087B1000087B10000844
:100070007B1000087B1000087B1000087B10000834
:100080007B1000087B1000087B1000087B10000824
:100090007B1000087B1000087B1000087B10000814
:1000A0007B1000087B1000087B1000087B10000804
:1000B0007B1000087B1000087B1000087B100008F4
:1000C0007B1000087B1000087B1000087B100008E4
:1000D0007B100008D50F00087B1000087B1000087B
:1000E0007B1000087B1000087B1000087B100008C4
:1000F0007B1000087B1000087B1000087B100008B4
:100100007B1000087B1000087B1000087B100008A3
:100110007B1000087B1000087B1000087B10000893
:100120007B1000087B1000087B1000087B10000883
:10013000DFF80CD002F018FA00480047450100082B
:100140008007002000BF00F081FE4FF4A06000F0A7
:1001500099FF4FF4E13000F0F1FE00F097F900F064
:10016000E2F900F0A2FB6AE000F077FB322000F039
:10017000AAFE334A33480178002000F089FC304958
:10018000088801F0A7FF07462F4901F0F3FE044657
:1001900001F0A5FF05462A460B462CA002F018FAEE
:1001A0002749488801F096FF0746274901F0E2FEFB
:1001B000044601F094FF05462A460B4626A002F0AD
:1001C00007FA1F49888801F085FF07461E4901F09C
:1001D000D1FE044601F083FF05462A460B4621A0C6
:1001E00002F0F6F91649888901F074FF07461649AE
:1001F00001F0C0FE044601F072FF05462A460B4698
:100200001BA002F0E5F90E49C88901F063FF07461B
:100210000D4901F0AFFE044601F061FF05462A4694
:100220000B4616A002F0D4F917A002F0D1F9174836
:10023000006808B9012000E000201449086093E735
:10024000480000200000002000401C4656313A259E
:100250006676200D0A00000056323A256676200D9B
:100260000A00000056333A256676200D0A00000089
:1002700056343A256676200D0A00000056353A2598
:100280006676200D0A0000000D0A000094812142CC
:10029000704700BFFEE700BFFEE700BFFEE700BFFC
:1002A000FEE7704770477047704700000CB50020AC
:1002B000019000906C48006840F480306A49086002
:1002C00000BF6948006800F4003000900198401CAD
:1002D0000190009818B90198B0F5A06FF1D162486B
:1002E000006800F4003010B10120009001E000200F
:1002F00000900098012843D15C48006840F010004D
:100300005A4908600846006820F003000860084663
:10031000006840F002000860534840685249486055
:100320000846406848600846406840F4806048607D
:100330000846406820F47C1048600846406840F455
:10034000E81048600846006840F08070086000BF10
:100350004548006800F000700028F9D04248406825
:1003600020F00300404948600846406840F0020021
:10037000486000BF3C48406800F00C000828F9D1F4
:100380000CBD10B5FFF792FF10BD10B536480068E0
:1003900040F001003449086008464068344908408C
:1003A0003149486008460068324908402E490860D3
:1003B0000846006820F4802008600846406820F461
:1003C000FE0048604FF41F008860FFF7DAFF4FF02F
:1003D00000602949086010BD10B5002100200022EE
:1003E000214B5B6803F00C0121B1042906D00829D8
:1003F00028D107E0214B224C236027E01F4B204CE3
:10040000236023E0184B5B6803F47010164B5B68A5
:1004100003F48032022303EB904022B9194B43438B
:10042000174C23600DE0104B5B6803F4003323B1DD
:10043000144B4343124C236003E0104B4343104CD6
:10044000236003E00D4B0E4C236000BF00BF064B42
:100450005B68C3F303130C4CE15C094B1B68CB4096
:10046000074C236010BD0000001002400020024035
:100470000000FFF8FFFFF6FE08ED00E000127A0032
:100480000400002000093D000800002008B50121FB
:10049000482001F081F92020ADF8000010208DF8EF
:1004A000030003208DF802006946094800F0B8FEF9
:1004B0002021074800F061FF2020ADF800006946C8
:1004C000044800F0ADFE2021024800F056FF08BDB0
:1004D000000C01400018014070B50546002405E0FD
:1004E000601CC4B20C2C01DD002070BD022141480B
:1004F00001F009FD0028F3D029463E4801F0B0FC88
:10050000002405E0601CC4B20C2C01DDFF20ECE7E8
:100510000121384801F0F7FC0028F3D0354801F0FC
:10052000A1FCC0B2E1E700B587B00121042001F0D1
:1005300033F90121080301F02FF9E020ADF818008C
:1005400018208DF81B0003208DF81A0006A92A48F0
:1005500000F066FEE021284800F00FFF1020ADF803
:10056000180003208DF81A0010208DF81B0006A932
:10057000214800F055FE10211F4800F0FEFE00202B
:10058000ADF804004FF48270ADF806000020ADF81D
:1005900008000220ADF80A000120ADF80C0040026E
:1005A000ADF80E002820ADF810000020ADF81200C4
:1005B0000720ADF8140001A90E4801F07BFB0121D2
:1005C0000C4801F01CFCFF20FFF786FF07B000BDC0
:1005D00010B50446074800884FF6C7710840054922
:1005E000088008460088204308800121014801F066
:1005F00006FC10BD0030014000080140002021E051
:10060000FE2100EB4002FE4B03F81210002100EB2C
:10061000400203EB4202517000EB400203EB420246
:10062000917000EB400203EB4202D17000EB4002FC
:1006300003EB42021171F02100EB400203EB420296
:100640005171401CEF4909788842D9DB704730B5B9
:1006500002460B46102100200BE01D5C85EAE115E7
:10066000ECB2E94D35F8245085EA0125A9B2451CC4
:10067000E8B29042F1DB4FF6FF7000EA410030BD76
:100680002DE9F04105460E4617469846002404E041
:10069000285DFFF721FF601CC4B2B442F8DB0024E0
:1006A00005E0FF20FFF718FF3855601CC4B2444531
:1006B000F7DBBDE8F08110B51021D44800F05FFEF3
:1006C000022000F000FC1021D04800F056FE10BDC2
:1006D0002DE9FC5F06460D46082001904FF0000B07
:1006E000F00002F017FC074600208DF80000022001
:1006F0008DF801002B208DF802000A208DF80300F0
:10070000FFF7D9FF1021C14800F039FEF006030EB3
:100710003A4604216846FFF7B3FFDA4606E017F8C9
:100720000A10BBA001F054FF0AF1010ABAF1090F47
:10073000F5DB1021B54800F020FE002429E0002060
:1007400007E000EBC401795C05EBC4021154411CC5
:10075000C8B20828F5DB05EBC400C07905EBC4017D
:10076000897900EB01201FFA80F94946AAA001F01F
:100770002FFF05EBC4010620FFF769FF80464146C5
:10078000AAA001F025FFC14501D04FF0FF3B601C3E
:10079000C4B2B442D3DB384602F094FB5846BDE8FD
:1007A000FC9F70B505460E46002404E0305DFFF75F
:1007B00093FE601CC4B2AC42F8DB70BD2DE9F05F63
:1007C000804689464FF0060B4FEAC800001D00F036
:1007D000FF0A504602F09EFB0446002020700120D4
:1007E00060703D20A0706E20E070042547461FE039
:1007F00000200AE0791E01EB410109EB4101095C8F
:100800006155691CCDB2411CC8B20628F2DB781EC6
:1008100000EB400009EB40010620FFF718FF0646F9
:1008200030126055681C2654A81CC5B2781EC7B289
:10083000002FDDDCFFF73FFF1021744800F09FFD23
:1008400021465046FFF7ADFF1021704800F095FD9E
:10085000204602F037FBBDE8F09F10B510216B4831
:1008600000F08DFD012000F02EFB1021674800F004
:1008700084FD10BD70B50C46C0F340018D1C6F4E59
:100880003570C507290E01F1600505EB0415154407
:100890007570C0F340010D1D694E3570C507290EF6
:1008A00001F160051D44757070BD10B5FFF7A6FE1F
:1008B0000123002211460320FFF7DCFFFFF7CDFFE5
:1008C0004F4950480078FFF779FFFFF7F4FEFFF734
:1008D000F2FE5C494B480078FFF7FAFE401C18B95D
:1008E00059A001F075FE02E05EA001F071FE10BD9E
:1008F00038B5524800788DF80000504840788DF89F
:1009000001004E490220FFF7A2FE044620128DF896
:100910000200E0B28DF80300FFF7CDFE10213B4846
:1009200000F02DFD69460420FFF73BFF10213748FA
:1009300000F023FD38BD38B5414800788DF800003F
:100940003F4840788DF801003D490220FFF77FFEC7
:10095000044620128DF80200E0B28DF80300FFF784
:10096000AAFE1021294800F00AFD69460420FFF77D
:1009700018FF1021254800F000FD38BD2DE9F8438F
:1009800004460E4617464FF00808012C06D10420F5
:100990008DF8010000208DF8000019E0022C06D12E
:1009A00006208DF8010000208DF8000010E0032CD7
:1009B00006D108208DF8010000208DF8000007E026
:1009C000042C05D10A208DF8010000208DF80000CC
:1009D00069460220FFF73BFE054628128DF802000B
:1009E000E8B28DF80300FFF766FE1021074800F01B
:1009F000C6FCF006030E3A460421684640E00000BB
:100A0000600000201C000020802F0008000801402A
:100A10002564200A000000007265636569766564DC
:100A20005F7065633D2564200A00000064617461A5
:100A30005F7065633D2564200A00000018000020F7
:100A40001A000020840000204C5443363830345FB4
:100A50004D4F44554C415220494E4954204E472158
:100A60000A0D00004C5443363830345F4D4F445526
:100A70004C415220494E4954204F4B210A0D000051
:100A8000FFF7FEFD1021F04800F077FCBDE8F88389
:100A90002DE9F74F84B08946082003900620029084
:100AA000032001900020009000254FEAC90002F0C9
:100AB00031FA04460498002845D14FF0010B3EE07E
:100AC0000025224649465846FFF758FFA84630E021
:100AD000002015E0625D691C615C02EB01218EB2B1
:100AE00008EB4802069901EBC202ABF1010101EBF0
:100AF0004101014422F81160A91CCDB2411CC8B2C9
:100B00000328E7DB681C205C615D00EB01201FFA15
:100B100080FA04EBC8010620FFF799FD0746BA45A5
:100B200001D0FF200090A81CC5B208F1010000F020
:100B3000FF08C845CCDB0BF1010000F0FF0BBBF157
:100B4000050FBDDB3AE0224649460498FFF716FF41
:100B50004FF0000830E0002015E0625D691C615C28
:100B600002EB01218EB208EB4802069901EBC202AA
:100B70000499491E01EB4101014422F81160A91CAE
:100B8000CDB2411CC8B20328E7DB681C205C615D64
:100B900000EB01201FFA80FA04EBC8010620FFF7E2
:100BA00056FD0746BA4501D0FF200090A81CC5B2EB
:100BB00008F1010000F0FF08C845CCDB204602F038
:100BC00081F9009807B0BDE8F08F2DE9F84304469D
:100BD0000E4617464FF00808012C06D10C208DF860
:100BE000010000208DF800000EE0022C06D10E203E
:100BF0008DF8010000208DF8000005E00C208DF834
:100C0000010000208DF8000069460220FFF71FFD5B
:100C1000054628128DF80200E8B28DF80300FFF7B0
:100C20004AFD1021884800F0AAFBF006030E3A4660
:100C300004216846FFF724FD1021834800F09DFB46
:100C4000BDE8F8832DE9F74F84B08846082003906B
:100C500006200290032001900025002000904FEA1A
:100C6000C80002F057F904460498002845D14FF017
:100C7000010B3EE00025224641465846FFF7A5FFFE
:100C8000002730E0002016E0625D691C615C02EB29
:100C900001211FFA81F907EB4702069901EB820255
:100CA000ABF1010101EB4101014422F81190A91CB3
:100CB000CDB2411CC8B20328E6DB681C205C615D34
:100CC00000EB01201FFA80FA04EBC7010620FFF7B2
:100CD000BEFC0646B24502D04FF0FF300090A81C83
:100CE000C5B2781CC7B24745CCDB0BF1010000F060
:100CF000FF0BBBF1030FBDDB37E0224641460498F2
:100D0000FFF763FF00272EE0002015E0625D691CFD
:100D1000615C02EB01211FFA81F907EB470206999A
:100D200001EB82020499491E01EB4101014422F8C2
:100D30001190A91CCDB2401C0328E7DB681C205C85
:100D4000615D00EB01201FFA80FA04EBC701062069
:100D5000FFF77DFC0646B24502D04FF0FF30009011
:100D6000A81CC5B27F1C4745CEDB204602F0AAF87E
:100D7000009807B0BDE8F08F38B507208DF8000067
:100D800011208DF8010069460220FFF760FC04463F
:100D900020128DF80200E0B28DF80300FFF78BFC03
:100DA0001021294800F0EBFA00231A460421684676
:100DB000FFF766FC1021244800F0DFFA38BD38B593
:100DC00007208DF8000012208DF8010069460220EE
:100DD000FFF73DFC044620128DF80200E0B28DF8CA
:100DE0000300FFF768FC1021174800F0C8FA002341
:100DF0001A4604216846FFF743FC1021124800F010
:100E0000BCFA38BD38B505208DF80000EF208DF80C
:100E1000010069460220FFF71AFC044620128DF8F3
:100E20000200E0B28DF80300FFF745FC10210648F0
:100E300000F0A5FA69460420FFF7B3FC1021024830
:100E400000F09BFA38BD00000008014010B56FF0BB
:100E5000040000F066F92E4800682E49B0FBF1F05E
:100E60002D4908700846007800EB4001C1EBC01026
:100E70004FF6FF7101EAC0002849088010BD014605
:100E8000254A12784A434FF0E0235A6100229A61C2
:100E90001A46126942F001021A6100BF4FF0E022C7
:100EA000106900F001021AB100F48032002AF5D076
:100EB0004FF0E022126922F001024FF0E0231A61A4
:100EC00000229A6170470146144A12884A434FF043
:100ED000E0235A6100229A611A46126942F0010227
:100EE0001A6100BF4FF0E022106900F001021AB150
:100EF00000F48032002AF5D04FF0E022126922F08F
:100F000001024FF0E0231A6100229A61704700004D
:100F10000400002000127A001E00002020000020A3
:100F200000BF704700BF4A4A128802F04002002A00
:100F3000F9D0C2B2464B1B1D1A80704710B586B05F
:100F40000446012144F2040000F026FC4FF4007036
:100F5000ADF8140003208DF8160018208DF8170046
:100F600005A93C4800F05CF94FF48060ADF814002E
:100F700004208DF8170005A9364800F051F9252006
:100F80008DF8000003208DF801008DF8020001208B
:100F90008DF80300684600F07AF801940020ADF85F
:100FA0000800ADF80A00ADF80C00ADF810000C20F8
:100FB000ADF80E0001A9264800F095FC012240F290
:100FC0002551234800F027FD0121214800F017FD9D
:100FD00006B010BD10B540F225511D4800F000FECE
:100FE00010B31B4800F07CFDC4B21B48008800F41D
:100FF0000040C8B91848008800F4804060B10A2C4D
:1010000003D000201449088020E01348008840F4F1
:1010100000401149088019E00D2C06D10E480088C7
:1010200040F480400C49088010E00B480088C0F371
:101030000D000A490C5408480088401C06490880E5
:1010400008460088C72801DD0020088010BD000088
:10105000003801400008014028000020B4000020B2
:101060000648804706480047FEE7FEE7FEE7FEE742
:10107000FEE7FEE7FEE7FEE7FEE7FEE78B0300087C
:101080003101000831490143314A1160704770B5A0
:10109000002100230F22C47804B32D4C246804F4EB
:1010A000E064C4F5E064210AC1F10403CA40447855
:1010B00004FA03F18478144021430901254C067891
:1010C000A155047804F01F050124AC4005786D118A
:1010D000AD0005F1E025C5F8004109E0047804F011
:1010E0001F050124AC401C4D0678761145F82640BA
:1010F00070BD1A4A0A400243154B1B1F1A60704705
:1011000039B1134A121D12680243114B1B1D1A609C
:1011100006E00F4A121D126882430D4B1B1D1A6018
:101120007047042808D14FF0E021096941F004011B
:101130004FF0E022116107E04FF0E021096921F052
:1011400004014FF0E0221161704700000000FA0531
:101150000CED00E000E400E080E100E080FFFF1F14
:1011600010B50446CC48844208D10121042000F087
:101170002DFB0021042000F029FB46E0C7488442F3
:1011800008D10121082000F021FB0021082000F0F7
:101190001DFB3AE0C248844208D10121102000F032
:1011A00015FB0021102000F011FB2EE0BD48844209
:1011B00008D10121202000F009FB0021202000F0AF
:1011C00005FB22E0B848844208D10121402000F00C
:1011D000FDFA0021402000F0F9FA16E0B3488442FD
:1011E00008D10121802000F0F1FA0021802000F0D8
:1011F000EDFA0AE0AE48844207D10121801500F0E3
:10120000E5FA0021A01500F0E1FA10BD10B50121AA
:10121000084600F0DBFA0021012000F0D7FA10BDEB
:101220002DE9F0410246002500260020002300247D
:10123000002791F803C00CF00F0591F803C00CF0E3
:10124000100CBCF1000F03D091F802C04CEA050568
:1012500091F800C0BCF1000F31D0146800202BE0E1
:101260004FF0010C0CFA00F3B1F800C00CEA0306D1
:101270009E4220D183004FF00F0C0CFA03F7BC43C1
:1012800005FA03FC4CEA040491F803C0BCF1280FF2
:1012900006D14FF0010C0CFA00FCC2F814C00AE0B1
:1012A00091F803C0BCF1480F05D14FF0010C0CFAC6
:1012B00000FCC2F810C0401C0828D1D31460B1F85B
:1012C00000C0BCF1FF0F34DD546800202EE000F1B7
:1012D000080C4FF0010808FA0CF3B1F800C00CEA52
:1012E00003069E4221D183004FF00F0C0CFA03F746
:1012F000BC4305FA03FC4CEA040491F803C0BCF1BA
:10130000280F05D100F1080C08FA0CF8C2F8148077
:1013100091F803C0BCF1480F07D100F1080C4FF061
:10132000010808FA0CF8C2F81080401C0828CED337
:101330005460BDE8F0814FF6FF7101800221817099
:101340000421C17070470246002093680B400BB126
:10135000012000E0002070470146886880B2704795
:1013600002460020D3680B400BB1012000E00020B2
:1013700070470146C86880B270470161704741619B
:1013800070470AB1016100E041617047C160704778
:101390004FF480320A43826181618261826982698D
:1013A000704702460020434B18684FF68073184080
:1013B00040EA021008433F4B186070473E49C8613D
:1013C0007047F0B50A46002300240021002500F0F4
:1013D0000046B6F1004F02D1364EF16901E0354EBC
:1013E0007168C0F3034583B200F44016B6F5401FA0
:1013F00008D121F070612F4E766826F070662D4F6F
:101400007E6012E000F48016B6F5801F06D1032638
:1014100006FA05F4A14341F0706106E0460D36017D
:1014200003FA06F6B14341F0706122B1460D360170
:1014300003FA06F6314300F00046B6F1004F02D140
:101440001C4EF16101E01B4E7160F0BD30B5002211
:101450008B071C0F0F2303FA04F2164B08338C1072
:1014600053F824309343134C08348D1044F825303E
:1014700023468C1053F824308C07240F00FA04F410
:1014800023430C4C08348D1044F8253030BD0A49F4
:10149000DC3108607047000000080140000C01408A
:1014A000001001400014014000180140001C0140E0
:1014B000002001400000014000002042DF48006899
:1014C00040F00100DD49086008464068DC490840FA
:1014D000DA49486008460068DA490840D749086098
:1014E0000846006820F4802008600846406820F420
:1014F000FE0048604FF41F0088607047CF490968BC
:1015000021F48031CD4A11601146096821F480210F
:101510001160B0F5803F03D0B0F5802F0ED106E00A
:10152000C649096841F48031C44A116007E0C349E3
:10153000096841F4A021C14A116000E000BF00BF6A
:10154000704710B501460022002300204A11012AED
:1015500002D1BA4C236806E0022A02D1B74C236AB2
:1015600001E0B64C636A01F01F02012494401C4064
:101570000CB1012000E0002010BD38B50020009023
:101580000024002500BF3120FFF7DBFF054600984F
:10159000401C00900098B0F5A06F01D0002DF2D053
:1015A0003120FFF7CEFF08B1012400E000242046DF
:1015B00038BD01460020A14A106820F0F80040EA3A
:1015C000C10010607047A0490860704702460020C3
:1015D0009A4B586820F47C1042EA01031843974B59
:1015E0005860704798490866704701460020934A42
:1015F000506820F003000843506070478F484068EF
:1016000000F00C007047014600208C4A506820F022
:10161000F00008435060704701460020874A506838
:1016200020F4E06008435060704701460020834A80
:10163000506820F4605040EAC1005060704729B102
:101640007E4A527A02437D4B5A7204E07B4A527AB8
:1016500082437A4B5A7270477B49D8310860704791
:1016600001460020754A506820F44040084350600D
:1016700070470021714A20321170704A82F82010A0
:10168000012802D004280AD104E001216B4A20324B
:10169000117005E00521694A2032117000E000BF99
:1016A00000BF70476949086070476449096A01438F
:1016B000624A11627047654944390860704730B525
:1016C00000210022002400235C4D6D6805F00C0110
:1016D00021B1042905D0082923D105E05C4D05601E
:1016E00022E05B4D05601FE0544D6D6805F47012FB
:1016F000524D6D6805F48034022505EB92421CB909
:10170000544D554305600BE04C4D6D6805F40035B4
:101710001DB1504D5543056002E04D4D55430560E8
:1017200002E04B4D056000BF00BF444D6D6805F001
:10173000F0010909484D6B5C0568DD4045603F4D8F
:101740006D6805F4E061090A434D6B5C4568DD4056
:1017500085603A4D6D6805F46051C90A3E4D6B5C79
:101760004568DD40C560354D6D6805F44041890B25
:101770003A4D6B5CC568B5FBF3F5056130BD29B129
:101780002E4A526902432D4B5A6104E02B4A52699A
:1017900082432A4B5A61704729B1284A9269024311
:1017A000264B9A6104E0254A92698243234B9A6151
:1017B000704729B1214AD2690243204BDA6104E023
:1017C0001E4AD26982431D4BDA61704729B11B4A18
:1017D000D2680243194BDA6004E0184AD2688243A7
:1017E000164BDA60704729B1144A12690243134B51
:1017F0001A6104E0114A12698243104B1A61704762
:1018000012494039086070470F49C86470470B4956
:10181000C87170470948406A40F0807007494862C3
:10182000704701460020054A92680A400AB101202B
:1018300000E00020704701498872704700100240A4
:101840000000FFF8FFFFF6FE000042428004424223
:1018500000127A0000093D002A0000203A00002012
:1018600010B50446FB48844209D101218803FFF7E3
:10187000ADFF00214FF48040FFF7A8FF32E0F648AB
:10188000844209D101214804FFF7ADFF00214FF444
:101890000030FFF7A8FF25E0F048844209D101217C
:1018A0008804FFF7A0FF00214FF48020FFF79BFF83
:1018B00018E0EB48844209D10121C804FFF793FFE7
:1018C00000214FF40020FFF78EFF0BE0E548844233
:1018D00008D101210805FFF786FF00214FF4801091
:1018E000FFF781FF10BD2DE9F04786B005460E4693
:1018F0000024A24600BFA1460027B08900B100BF66
:101900002F462C8A4CF6FF700440F08804432C824A
:10191000AC894EF6F3100440B088318908437189D0
:1019200008430443AC81AC8A4FF6FF400440B089C1
:101930000443AC8201A8FFF7C2FEC648874202D129
:10194000DDF810A001E0DDF80CA0A88900F400404B
:1019500040B10AEBCA0000EB0A1031684900B0FB45
:10196000F1F807E00AEBCA0000EB0A1031688900C1
:10197000B0FBF1F86420B8FBF0F004012009642109
:1019800001FB1089A88900F4004040B1322000EB2F
:10199000C900B0FBF1F000F00700044308E032207A
:1019A00000EB09106421B0FBF1F000F00F000443DC
:1019B0002C8106B0BDE8F0874FF41651016000217C
:1019C0008180C18001810C2141810021818170478A
:1019D00010B502460020108A4FF2FF0318400B8812
:1019E0004C8823438C882343CC882343184310829C
:1019F00010BD0021018041808180C180704721B1EC
:101A0000828942F40052828104E082894DF6FF739C
:101A10001A4082817047F0B5034600240026002555
:101A2000002040F66A17B94200D100BF1846C1F342
:101A3000421401F01F06012707FA06F5012C01D117
:101A40000C3004E0022C01D1103000E014301AB147
:101A500007682F43076002E00768AF430760F0BDE7
:101A60001AB1838A0B43838202E0838A8B43838289
:101A70007047028A4FF6F0731A400282028A0A43C4
:101A80000282704782894FF2FF731A4082818289F5
:101A90000A438281704721B1828942F00202828129
:101AA00004E082894FF6FD731A4082817047028AF2
:101AB0004FF6DF731A400282028A0A43028270479D
:101AC00021B1028A42F48042028204E0028A4BF68B
:101AD000FF731A4002827047C1F308028280704788
:101AE00001468888C0F308007047818941F00101F0
:101AF00081817047028BD2B20283028B42EA0122BB
:101B000002837047028B02F47F420283028B0A43F6
:101B10000283704721B1828A42F02002828204E06F
:101B2000828A4FF6DF731A408282704721B1828A1F
:101B300042F01002828204E0828A4FF6EF731A406C
:101B40008282704721B1828A42F00802828204E0D8
:101B5000828A4FF6F7731A408282704721B18289D8
:101B600042F40042828103E08289C2F30E02828144
:101B7000704721B1828A42F40062828204E0828A44
:101B80004FF2FF731A4082827047828A4FF6FB73CE
:101B90001A408282828A0A438282704721B1828AF5
:101BA00042F00202828204E0828A4FF6FD731A40FC
:101BB0008282704702460020B1F5007F00D100BF4D
:101BC00013880B400BB1012000E00020704701F4A6
:101BD0000072B2F5007F00D100BFCA430280704797
:101BE00070B50246002400230025002040F66A1646
:101BF000B14200D100BFC1F3421501F01F0301261D
:101C000006FA03F3012D02D19689334006E0022D36
:101C100002D1168A334001E0968A33400C12012625
:101C200006FA04F41688344013B10CB1012000E028
:101C3000002070BD10B50022002340F66A14A142B6
:101C400000D100BF0A1201249440A3B2DC430480F7
:101C500010BD000000380140004400400048004032
:101C6000004C00400050004010B50446BE4884427D
:101C700008D101218014FFF7A9FD0021A014FFF76E
:101C8000A5FD16E0B948844208D101210014FFF7F0
:101C9000AAFD00212014FFF7A6FD0AE0B448844203
:101CA00007D10121C013FFF79EFD0021E013FFF7CC
:101CB0009AFD10BD10B50022028802F441520B8833
:101CC0004C8823438C882343CC8823430C892343AB
:101CD0004C8923438C892343CC8923431A430280B4
:101CE000838B4FF2FF74234083830B8A038210BDE2
:101CF0002DE9F04F85B005460C464FF0000902274C
:101D00004FF000084FF0010B0026B246A88B4FF2AF
:101D100040010840A88302202884B5F81C90A068E0
:101D2000022801D100BF38E0A08810B94FF0010BA4
:101D300001E04FF0020B8D48854200D100E000BF6A
:101D40006846FFF7BCFCDDF800A0E088B0F5007F36
:101D50000AD14FEA1A2000EB80004000A168B0FBD6
:101D6000F1F0401D86B20BE04FEA4B10BAFBF0F0E9
:101D700000EB80004000A168B0FBF1F0401D86B28E
:101D80000A20B6FBF0F606F00108A6EB0800C0F347
:101D90004F074FF6FF7000EA0828022F01DBFF2FE4
:101DA00002DD02274FF00008E08840EA08003843CF
:101DB0002884A088A18908436188084321880843B2
:101DC00040F4006040EA0909A5F81C9005B0BDE8A0
:101DD000F08F0021018041808180C180018141819B
:101DE0008181C181072101827047002101804180EA
:101DF0008180C1800221816000218181704721B1F1
:101E0000028842F04002028004E002884FF6BF736D
:101E10001A400280704721B1828B42F48062828333
:101E200004E0828B4FF6FF331A408283704730B54F
:101E3000002400230C110125A540ABB21AB18588FE
:101E40001D43858002E085889D43858030BD1AB1A1
:101E500083880B43838002E083888B4383807047B1
:101E6000818170470146888970474FF6FF62914231
:101E700004D0028842F48072028004E002884FF6A7
:101E8000FF631A400280704721B1828842F0040249
:101E9000828004E082884FF6FB731A40828070478C
:101EA00002884FF2FF731A40028002880A430280C0
:101EB0007047018841F480510180704721B1028848
:101EC00042F40052028004E002884DF6FF731A408B
:101ED0000280704702460020012901D0108B00E0EB
:101EE000908A70470146088A7047B1F5804F04D147
:101EF000028842F48042028004E002884BF6FF73BD
:101F00001A40028070470246002013890B400BB133
:101F1000012000E000207047CA4302817047F0B5FD
:101F20000246002000240023002501F00F070126AF
:101F3000BE40B4B20B1101269E40B3B2968806EAA9
:101F400003051689264016B10DB1012000E00020DE
:101F5000F0BD10B5002201F00F040123A3409AB296
:101F6000D343038110BD0000003001400038004021
:101F7000003C004030B480EA010202F0004530F03D
:101F8000004221F0004013D090B1C30DD40DC2F334
:101F90001601C0F31600E41A41F4000140F40002F7
:101FA0007D34914201D3641C00E04900002C02DA28
:101FB00030BC002070474FF400000023914201D351
:101FC000891A034340084FEA4101F7D151B19142C8
:101FD00002D14FF0004105E002D24FF0010101E0D3
:101FE0006FF0010103EBC450284430BC00F0E1B8AD
:101FF0002DE9FE4F81EA030404F0004421F0004182
:1020000000944FF0000B23F0004350EA01045ED02F
:1020100052EA03045BD0C3F30A54C1F30A552C44BB
:10202000A4F2F3340194A0FB0254C1F3130141F470
:102030008011C3F3130343F4801301FB024400FB3C
:10204000034E840A970A44EA815447EA8357A4FB63
:10205000076802958D0A05FB07854FEA932C04FB60
:102060000C542705029D4FEA065847EA1637B5EB90
:1020700008056EEB070C870E920E47EA811742EABD
:102080008312A7FB0201B6EB0B0164EB00042B0DDE
:1020900043EA0C335E1844EB1C50DA465146E7FB2A
:1020A0000201C5F313044FEA0B3343EA14534FEA1A
:1020B0000432019C43EA0603A4F10C040294009C40
:1020C000CDE900B400F0BBF803B0BDE8F08F00200C
:1020D0000146F9E796230022114600F073B800F09C
:1020E000004230F000400AD0C10D01F56071C0F32C
:1020F000160042EA0151C208400711437047002010
:102100000146704730B50B460146002020220124CD
:1021100009E021FA02F59D4205D303FA02F5491BB5
:1021200004FA02F52844151EA2F10102F1DC30BDCB
:102130002DE9F05F0546002092469B4688460646FC
:10214000814640241BE0284641464746224600F08F
:1021500020F853465A46C01A914110D311461846EA
:10216000224600F013FA2D1A67EB01084F4622466B
:102170000120002100F00AFA17EB00094E41201E51
:10218000A4F10104DFDC484631462A464346BDE857
:10219000F09F202A04DB203A21FA02F00021704748
:1021A00021FA02F3D040C2F12002914008431946BF
:1021B00070470029A8BF7047401C490008BF20F0A5
:1021C0000100704710B4B0FA80FC00FA0CF050EA3D
:1021D000010404BF10BC704749B1CCF1200421FABE
:1021E00004F411FA0CF118BF012121430843A3EBB9
:1021F0000C01CB1D4FEA00614FEA102042BF0020C6
:1022000010BC704700EBC35010440029A4BF10BCA1
:102210007047401C490008BF20F0010010BC704707
:1022200010B5141E73F1000408DA401C41F10001DE
:1022300092185B411A4301D120F0010010BD2DE935
:10224000F04D92469B4611B1B1FA81F202E0B0FA2C
:1022500080F22032904600F099F904460F4640EA99
:102260000A0041EA0B0153465A46084313D011466F
:1022700053EA010019D0C8F140025046FFF789FF28
:1022800005460E4650465946424600F07FF908433F
:1022900005D0012004E020463946BDE8F08D00203D
:1022A000054346EAE0762C4337430A986305E40A7F
:1022B000A0EB08000022FD0A44EA47540A3002D588
:1022C00000200146E9E7010510196941DDE90845EB
:1022D00000196941BDE8F04DA2E72DE9FE4F8046A7
:1022E00081EA0300C00F0C46009021F0004123F06A
:1022F0000045B8EB0200A94105D240462146904670
:102300001C460B46024623F00040104347D0270DE1
:10231000C7F30A00C3F30A510290401A0190402803
:102320006BDAC3F3130040F4801B0098924620B18F
:102330000023D2EB030A63EB0B0B01985946C0F163
:102340004002504600F022F906460D4650465946D6
:10235000019A00F02AF910EB08006141002487EA95
:10236000115284EAE7731A4340D0009A62B3019A8B
:10237000012A4FEA075215DC001B61EB02014FF006
:10238000004202EA0752CDE90042001C41F58011EB
:1023900032462B46FFF753FF03B0BDE8F08F4046AF
:1023A0002146F9E7001B61EB0201001C41F5801397
:1023B00000185B412018A2F5001747EB030140EA23
:1023C000D570B6196D4111E06D084FEA360645EA41
:1023D000C0754FEA0752001B61EB0201001C41F57A
:1023E000801149084FEA30000019514132462B460E
:1023F00003B0BDE8F04FFFF713BF00980122400083
:102400000023D0EB020263EBE073009821464FEA11
:10241000E074B8EB000061EB0401E9E783F00043EE
:102420005BE781F0004158E72DE9F04D81EA0304B4
:1024300004F0004B21F0004514464FF0000A23F051
:10244000004150EA050220D054EA01021DD0C5F334
:102450000A570246C5F31303C1F31300C1F30A562A
:1024600040F4801543F48013A7EB0608101BD646F2
:1024700008F2FD3873EB050002D308F1010801E012
:1024800092185B41B8F1000F03DA00200146BDE865
:10249000F08D00204FF48011064684460EE0171B95
:1024A00073EB050705D3121B63EB050306434CEAE8
:1024B000010C49084FEA300092185B4150EA0107CD
:1024C000EDD152EA030012D082EA040083EA05014A
:1024D000084305D0101BAB4106D20122002306E0C1
:1024E00000224FF0004302E06FF0010253101AEB9C
:1024F00006004CEB085110EB0A0041EB0B01BDE864
:10250000F04DFFF78DBEC1F30A52C1F3130140F243
:10251000FF3341F480119A4202DA002001467047ED
:1025200040F233439A42A2F2334202DC5242FFF7B6
:1025300030BE00F02BB8000030B5041E71F100046D
:1025400004DB4FF00044404264EB0101141E73F1C0
:10255000000405DB1C464FF00043524263EB0403CA
:10256000994208BF904230BD064C074D06E0E06836
:1025700040F0010394E8070098471034AC42F6D3CA
:10258000FDF7DAFD80330008A0330008202A04DBC1
:10259000203A00FA02F1002070479140C2F1200376
:1025A00020FA03F3194390407047202A06DBCB172B
:1025B000203A41FA02F043EAE07306E041FA02F3FE
:1025C000D040C2F1200291400843194670470000F4
:1025D0000FB4054B10B503A9044A029800F0DAF8CD
:1025E00010BC5DF814FB0000250F0008240000203B
:1025F00002E008C8121F08C1002AFAD170477047CC
:10260000002001E001C1121F002AFBD17047000029
:102610002DE9FF5F82B00021DDE90430020DDDF815
:1026200040B0034318D044F61050A2F2FF324243A8
:102630001514119801281FD0A5EB0B00401C5FEA70
:10264000000A4FF000064E4FDFF83891B046504672
:1026500015D5CAF1000413E0119801244AA30128FA
:1026600001D16FEA0B010298119AC0E90031C0E96B
:10267000024206B0BDE8F09FCBF10000DFE7044660
:102680000021404A491842EB0450CDE9001012E005
:10269000E00707D032463B4640464946FFF7A8FCD4
:1026A0008046894632463B4610461946FFF7A0FC55
:1026B00006460F466410002CEAD1DDE90401DDE98D
:1026C0000023BAF1000F06DAFFF792FC42464B46B0
:1026D000FFF78EFC05E0FFF7A7FE42464B46FFF7EB
:1026E000A3FE04460E460022284BFFF725FF03D821
:1026F0004FF0FF30014607E00022254B20463146CF
:10270000FFF7EBFDFFF7FFFE102409E0002C0ADBCA
:102710000A220023FFF70CFD039B30321A55641E7A
:1027200050EA0102F2D1641C039AC4F1110314446B
:10273000119A012A03D0012208430DD10AE008436F
:1027400004D000204FF0110B119072E7A3EB0B05A2
:102750006D1E0DE05B4504DD4FF0000205F1010543
:1027600004E003DA4FF00002A5F10105002AECD0E5
:1027700002981199C0E90231C0E9004579E70000EB
:10278000000014400000F03F300000000000F04363
:102790000000E03F2DE9FF4F95B09B468946064675
:1027A00000250FE2252877D100242746F84A012189
:1027B000059400E0044316F8013F203B01FA03F0C2
:1027C0001042F7D130782A2811D06FF02F033078DB
:1027D000A0F13002092A16D8059A44F0020402EB4F
:1027E000820203EB42021044761C0590EFE759F891
:1027F000042B0592002A03DA504244F40054059059
:1028000044F00204761C30782E2816D116F8010FF9
:1028100044F004042A280DD06FF02F023078A0F184
:102820003003092B09D807EB870302EB4303C718D2
:10283000761CF3E759F8047B761C30786C280FD0AF
:1028400006DC4C2817D068280DD06A2814D104E083
:10285000742810D07A280FD10DE044F400140AE057
:1028600044F4801401E044F440147278824202D1AE
:1028700004F58014761C761C307866280BD013DCA7
:10288000582877D009DC002875D04528F6D046288E
:10289000F4D047281AD19DE118E0632835D0642888
:1028A00079D0652812D195E1702873D008DC6728AB
:1028B000F1D069286FD06E280DD06F2806D1B5E011
:1028C00073282CD0752875D0782874D05A4617995B
:1028D00090476D1C75E1C4F30250022809D003280B
:1028E0000DD0D9F8001004280DD00D6009F10409AD
:1028F00067E1D9F80010EA17C1E90052F6E7D9F804
:1029000000100D80F2E70D70F0E719F8041B8DF848
:10291000001000208DF80100EA46012003E059F87C
:1029200004AB4FF0FF3061074FF0000102D40DE01F
:1029300008F101018846B9420FDA8045F8DB1AF840
:1029400008100029F4D108E008F10101884681420D
:10295000FADB1AF808100029F6D105985B46A0EBBF
:10296000080721463846179A00F094FA284400EBED
:10297000080507E04DE029E10DE01AF8010B5A4681
:1029800017999047B8F10108F7D25B4621463846BF
:10299000179A13E142E00A220092C4F302524FF068
:1029A000000A022A08D059F804CB032A4FEAEC7136
:1029B0000AD00DE029E02AE009F1070121F0070221
:1029C000F2E802C1914609E00FFA8CFC4FEAEC7183
:1029D000042A03D14FFA8CFC4FEAEC71002907DA84
:1029E0000A460021DCF1000C61EB02012D2202E01D
:1029F000220504D52B228DF80420012203E0E207F2
:102A000001D02022F7E7904659E00A2102E0102287
:102A10000DE010214FF0000A00910BE010224FF062
:102A2000000A44F004040827009203E008224FF053
:102A3000000A0092C4F30252022A05D059F804CBCE
:102A40000021032A08D009E009F1070121F007025B
:102A5000F2E802C1914605E01FFA8CFC042A01D17C
:102A60000CF0FF0C4FF00008220728D5702806D084
:102A7000009B83F0100353EA0A0305D00EE04022C6
:102A80008DF80420012208E05CEA010206D0302221
:102A90008DF804208DF8050002229046009B83F0FB
:102AA000080353EA0A030AD15CEA010201D1620772
:102AB00005D530228DF804204FF001087F1E5828DC
:102AC00004D034A003900EA802900DE036A0F9E7E0
:102AD00053466046009AFFF72BFB84460398825CBE
:102AE0000298401E029002705CEA0100F0D1029848
:102AF00006A9081A00F1200A600702D524F48034E0
:102B000000E00127574502DDA7EB0A0000E00020A6
:102B100000EB0A01009005984144401A0590E0033B
:102B200006D45B462146179A059800F0B3F9054490
:102B3000002706E001A85A46C05D179990476D1C12
:102B40007F1C4745F6DBE0030CD55B462146179A10
:102B5000059800F09FF9054404E030205A46179983
:102B600090476D1C0099481E00900029F5DC08E094
:102B7000029802995A460078491C02911799904789
:102B80006D1CBAF10001AAF1010AF1DC65E1000057
:102B90000928010030313233343536373839616233
:102BA00063646566000000003031323334353637F7
:102BB00038394142434445460000000000F058F9CE
:102BC0000544761C307800287FF4ECAD19B0284617
:102BD000BDE8F08F620700D4062709F1070222F052
:102BE000070CFCE80223E14603F000485FEA080C0A
:102BF00002D00FF2702C0DE05FEA045C02D50FF2F8
:102C0000682C07E05FEAC47C02D00FF2602C01E080
:102C1000AFF2700C4FF0FF3823F00043CDF850C0F6
:102C200065280CD006DC452809D046281DD0472849
:102C30003DD13DE0662818D067287ED138E00021DC
:102C4000112F01DB112000E0781CCDE9000106A95D
:102C50000EA8FFF7DDFCDDE90F010E9A03910021BC
:102C6000009207F1010A04914DE04FF000400097F7
:102C7000CDE9011006A90EA8FFF7CAFCDDE90F0295
:102C800003920E9B11990022DDF80CA00093049290
:102C900011B9791C00EB010AB7EB0A0004D4C0F1AA
:102CA000FF3007F1010A0490AAEB0700019044E00D
:102CB000012F00DA01270021112F01DD112000E092
:102CC0003846CDE9000106A90EA8FFF7A1FCDDE911
:102CD0000F010E9A0391002104910092BA46210738
:102CE0000CD40399514500DA8A46BAF1010F05DD8B
:102CF000009AAAF10101515C302908D0B84202DAE9
:102D000010F1040F06DA0121CDE9011015E0AAF156
:102D10000101E9E7002805DC049901440491AAEBCC
:102D2000000102E0411C514500DD8A460499401A29
:102D3000401C01904FF000400290200704D40198FD
:102D4000504501DBCDF8048000208DF84F0002983B
:102D50000DF14F07B0F1004F25D02B200E900298B7
:102D60004FF0020800280CDA404202902D200E900D
:102D700007E00A210298FFF7C5F93031029007F801
:102D8000011DB8F10001A8F10108F2DC0298002849
:102D9000EFD1791E0E980870307800F0200040F0D6
:102DA000450007F8020D12A8C01B00F1070814988F
:102DB000007800B1012000EB0A01019801EBE071FD
:102DC00005984144401A401E0590E00306D45B4636
:102DD0002146179A059800F05DF80544149800788C
:102DE00018B15A46179990476D1CE00324D55B46ED
:102DF0002146179A059800F04DF805441CE0049808
:102E0000002807DBDDE90301884203DD0098405C10
:102E1000179901E0179930205A469047049805F118
:102E20000105401C04900198401E019004D12E2001
:102E30005A46179990476D1CBAF10001AAF1010A90
:102E4000DDDC05E017F8010B5A46179990476D1C19
:102E5000B8F10001A8F10108F4DC5B462146179A9D
:102E60000598ABE62D0000002B00000020000000BC
:102E70002DE9F041044600251E461746880404D477
:102E800005E039462020B0476D1C641EF9D5284660
:102E9000BDE8F0812DE9F041044600251E4690462C
:102EA000C80301D5302700E02027880404D505E0B9
:102EB00041463846B0476D1C641EF9D52846BDE82A
:102EC000F081000010B5002821D0114B0022001F16
:102ED000196803E0814203D80A4649680029F9D1FC
:102EE00052B11368841A9C4204D1006818441060DF
:102EF000104602E0506000E0186039B102680B1A19
:102F0000934203D10B681A4402604968416010BDC6
:102F100040000020F0B50B30154D20F007010024D3
:102F2000144A0FE003688B420BD38B4205D95E1A1B
:102F300043184768C3E9006700E04368136002C0B4
:102F400004E0021D10680028ECD12046002802D1C0
:102F5000286808B10020F0BD064A07481060074AFB
:102F6000121A22F00702C0E9002401202860D7E7E6
:102F70004400002040000020840100208003002045
:102F80000000000099C50000ABCE0000320B00002D
:102F9000CFD80000561D000064160000FDD30000CD
:102FA00007F400009E310000AC3A000035FF00003D
:102FB000C82C000051E9000063E20000FA2700007D
:102FC00097AD00000E6800003C630000A5A600005D
:102FD00058750000C1B00000F3BB00006A7E00001D
:102FE00090590000099C00003B970000A25200008D
:102FF0005F810000C6440000F44F00006D8A0000AD
:103000002E5B0000B79E0000859500001C5000005C
:10301000E1830000784600004A4D0000D38800009C
:1030200029AF0000B06A0000826100001BA400000C
:10303000E67700007FB200004DB90000D47C0000AC
:10304000B9F6000020330000123800008BFD0000AC
:10305000762E0000EFEB0000DDE0000044250000CC
:10306000BE02000027C7000015CC00008C0900003C
:1030700071DA0000E81F0000DA14000043D10000FC
:10308000C5F300005C3600006E3D0000F7F800005C
:103090000A2B000093EE0000A1E50000382000009C
:1030A000C20700005BC2000069C90000F00C00000C
:1030B0000DDF0000941A0000A61100003FD40000AC
:1030C000525E0000CB9B0000F990000060550000AC
:1030D0009D8600000443000036480000AF8D0000CC
:1030E00055AA0000CC6F0000FE64000067A100003C
:1030F0009A72000003B7000031BC0000A8790000FC
:10310000EBA80000726D000040660000D9A300002B
:1031100024700000BDB500008FBE0000167B0000CB
:10312000EC5C00007599000047920000DE5700003B
:1031300023840000BA410000884A0000118F00007B
:103140007C050000E5C00000D7CB00004E0E00005B
:10315000B3DD00002A1800001813000081D600001B
:103160007BF10000E2340000D03F000049FA00008B
:10317000B42900002DEC00001FE7000086220000AB
:1031800013A200008A670000B86C000021A90000AB
:10319000DC7A000045BF000077B40000EE7100004B
:1031A000145600008D930000BF980000265D0000BB
:1031B000DB8E0000424B000070400000E9850000FB
:1031C000840F00001DCA00002FC10000B6040000DB
:1031D0004BD70000D2120000E019000079DC00009B
:1031E00083FB00001A3E000028350000B1F000000B
:1031F0004C230000D5E60000E7ED00007E2800002B
:103200003DF90000A43C0000963700000FF20000DA
:10321000F22100006BE4000059EF0000C02A00001A
:103220003A0D0000A3C8000091C30000080600008A
:10323000F5D500006C1000005E1B0000C7DE00002A
:10324000AA54000033910000019A0000985F00002A
:10325000658C0000FC490000CE420000578700004A
:10326000ADA0000034650000066E00009FAB0000BA
:1032700062780000FBBD0000C9B60000507300007A
:10328000D65100004F9400007D9F0000E45A0000DA
:1032900019890000804C0000B24700002B8200001A
:1032A000D1A50000486000007A6B0000E3AE00008A
:1032B0001E7D000087B80000B5B300002C7600002A
:1032C00041FC0000D8390000EA32000073F700002A
:1032D0008E24000017E1000025EA0000BC2F00004A
:1032E00046080000DFCD0000EDC6000074030000BA
:1032F00089D0000010150000221E0000BBDB00007A
:10330000F80A000061CF000053C40000CA010000A9
:1033100037D20000AE1700009C1C000005D9000049
:10332000FFFE0000663B000054300000CDF50000B9
:1033300030260000A9E300009BE80000022D0000F9
:103340006FA70000F6620000C46900005DAC0000D9
:10335000A07F000039BA00000BB100009274000099
:1033600068530000F1960000C39D00005A58000009
:10337000A78B00003E4E00000C4500009580000029
:10338000A03300080000002048000000F0250008DD
:10339000E833000848000020380700000026000835
:1033A0000100000000A24A0400000000000000002C
:1033B00001020304060708090000000001000000E4
:1033C00000000000000000000000000000000102FA
:1033D00003040102030406070809020406080000AA
:0833E0000000000000000000E5
:0400000508000131BD
:00000001FF
